{
  "_format": "hh-sol-artifact-1",
  "contractName": "ERC20Template3",
  "sourceName": "contracts/templates/ERC20Template3.sol",
  "abi": [
    {
      "anonymous": false,
      "inputs": [
        {
          "indexed": true,
          "internalType": "address",
          "name": "user",
          "type": "address"
        },
        {
          "indexed": true,
          "internalType": "address",
          "name": "signer",
          "type": "address"
        },
        {
          "indexed": false,
          "internalType": "uint256",
          "name": "timestamp",
          "type": "uint256"
        },
        {
          "indexed": false,
          "internalType": "uint256",
          "name": "blockNumber",
          "type": "uint256"
        }
      ],
      "name": "AddedMinter",
      "type": "event"
    },
    {
      "anonymous": false,
      "inputs": [
        {
          "indexed": true,
          "internalType": "address",
          "name": "user",
          "type": "address"
        },
        {
          "indexed": true,
          "internalType": "address",
          "name": "signer",
          "type": "address"
        },
        {
          "indexed": false,
          "internalType": "uint256",
          "name": "timestamp",
          "type": "uint256"
        },
        {
          "indexed": false,
          "internalType": "uint256",
          "name": "blockNumber",
          "type": "uint256"
        }
      ],
      "name": "AddedPaymentManager",
      "type": "event"
    },
    {
      "anonymous": false,
      "inputs": [
        {
          "indexed": true,
          "internalType": "address",
          "name": "owner",
          "type": "address"
        },
        {
          "indexed": true,
          "internalType": "address",
          "name": "spender",
          "type": "address"
        },
        {
          "indexed": false,
          "internalType": "uint256",
          "name": "value",
          "type": "uint256"
        }
      ],
      "name": "Approval",
      "type": "event"
    },
    {
      "anonymous": false,
      "inputs": [
        {
          "indexed": true,
          "internalType": "address",
          "name": "signer",
          "type": "address"
        },
        {
          "indexed": false,
          "internalType": "uint256",
          "name": "timestamp",
          "type": "uint256"
        },
        {
          "indexed": false,
          "internalType": "uint256",
          "name": "blockNumber",
          "type": "uint256"
        }
      ],
      "name": "CleanedPermissions",
      "type": "event"
    },
    {
      "anonymous": false,
      "inputs": [
        {
          "indexed": true,
          "internalType": "address",
          "name": "consumeMarketFeeAddress",
          "type": "address"
        },
        {
          "indexed": true,
          "internalType": "address",
          "name": "consumeMarketFeeToken",
          "type": "address"
        },
        {
          "indexed": false,
          "internalType": "uint256",
          "name": "consumeMarketFeeAmount",
          "type": "uint256"
        }
      ],
      "name": "ConsumeMarketFee",
      "type": "event"
    },
    {
      "anonymous": false,
      "inputs": [
        {
          "indexed": false,
          "internalType": "address",
          "name": "currentMinter",
          "type": "address"
        },
        {
          "indexed": false,
          "internalType": "address",
          "name": "newMinter",
          "type": "address"
        }
      ],
      "name": "MinterApproved",
      "type": "event"
    },
    {
      "anonymous": false,
      "inputs": [
        {
          "indexed": false,
          "internalType": "address",
          "name": "currentMinter",
          "type": "address"
        },
        {
          "indexed": false,
          "internalType": "address",
          "name": "newMinter",
          "type": "address"
        }
      ],
      "name": "MinterProposed",
      "type": "event"
    },
    {
      "anonymous": false,
      "inputs": [
        {
          "indexed": false,
          "internalType": "bytes32",
          "name": "exchangeId",
          "type": "bytes32"
        },
        {
          "indexed": true,
          "internalType": "address",
          "name": "owner",
          "type": "address"
        },
        {
          "indexed": false,
          "internalType": "address",
          "name": "exchangeContract",
          "type": "address"
        },
        {
          "indexed": true,
          "internalType": "address",
          "name": "baseToken",
          "type": "address"
        }
      ],
      "name": "NewFixedRate",
      "type": "event"
    },
    {
      "anonymous": false,
      "inputs": [
        {
          "indexed": true,
          "internalType": "address",
          "name": "caller",
          "type": "address"
        },
        {
          "indexed": true,
          "internalType": "address",
          "name": "_newPaymentCollector",
          "type": "address"
        },
        {
          "indexed": false,
          "internalType": "uint256",
          "name": "timestamp",
          "type": "uint256"
        },
        {
          "indexed": false,
          "internalType": "uint256",
          "name": "blockNumber",
          "type": "uint256"
        }
      ],
      "name": "NewPaymentCollector",
      "type": "event"
    },
    {
      "anonymous": false,
      "inputs": [
        {
          "indexed": true,
          "internalType": "address",
          "name": "user",
          "type": "address"
        },
        {
          "indexed": false,
          "internalType": "uint256",
          "name": "expires",
          "type": "uint256"
        },
        {
          "indexed": false,
          "internalType": "uint256",
          "name": "epoch",
          "type": "uint256"
        }
      ],
      "name": "NewSubscription",
      "type": "event"
    },
    {
      "anonymous": false,
      "inputs": [
        {
          "indexed": true,
          "internalType": "address",
          "name": "consumer",
          "type": "address"
        },
        {
          "indexed": false,
          "internalType": "address",
          "name": "payer",
          "type": "address"
        },
        {
          "indexed": false,
          "internalType": "uint256",
          "name": "amount",
          "type": "uint256"
        },
        {
          "indexed": false,
          "internalType": "uint256",
          "name": "serviceIndex",
          "type": "uint256"
        },
        {
          "indexed": false,
          "internalType": "uint256",
          "name": "timestamp",
          "type": "uint256"
        },
        {
          "indexed": true,
          "internalType": "address",
          "name": "publishMarketAddress",
          "type": "address"
        },
        {
          "indexed": false,
          "internalType": "uint256",
          "name": "blockNumber",
          "type": "uint256"
        }
      ],
      "name": "OrderStarted",
      "type": "event"
    },
    {
      "anonymous": false,
      "inputs": [
        {
          "indexed": true,
          "internalType": "address",
          "name": "predictoor",
          "type": "address"
        },
        {
          "indexed": true,
          "internalType": "uint256",
          "name": "slot",
          "type": "uint256"
        },
        {
          "indexed": false,
          "internalType": "uint256",
          "name": "stake",
          "type": "uint256"
        },
        {
          "indexed": false,
          "internalType": "uint256",
          "name": "payout",
          "type": "uint256"
        },
        {
          "indexed": false,
          "internalType": "bool",
          "name": "predictedValue",
          "type": "bool"
        },
        {
          "indexed": false,
          "internalType": "bool",
          "name": "trueValue",
          "type": "bool"
        },
        {
          "indexed": false,
          "internalType": "uint256",
          "name": "aggregatedPredictedValue",
          "type": "uint256"
        },
        {
          "indexed": false,
          "internalType": "enum ERC20Template3.Status",
          "name": "status",
          "type": "uint8"
        }
      ],
      "name": "PredictionPayout",
      "type": "event"
    },
    {
      "anonymous": false,
      "inputs": [
        {
          "indexed": true,
          "internalType": "address",
          "name": "predictoor",
          "type": "address"
        },
        {
          "indexed": true,
          "internalType": "uint256",
          "name": "slot",
          "type": "uint256"
        },
        {
          "indexed": false,
          "internalType": "uint256",
          "name": "stake",
          "type": "uint256"
        }
      ],
      "name": "PredictionSubmitted",
      "type": "event"
    },
    {
      "anonymous": false,
      "inputs": [
        {
          "indexed": true,
          "internalType": "address",
          "name": "PublishMarketFeeAddress",
          "type": "address"
        },
        {
          "indexed": true,
          "internalType": "address",
          "name": "PublishMarketFeeToken",
          "type": "address"
        },
        {
          "indexed": false,
          "internalType": "uint256",
          "name": "PublishMarketFeeAmount",
          "type": "uint256"
        }
      ],
      "name": "PublishMarketFee",
      "type": "event"
    },
    {
      "anonymous": false,
      "inputs": [
        {
          "indexed": false,
          "internalType": "address",
          "name": "caller",
          "type": "address"
        },
        {
          "indexed": false,
          "internalType": "address",
          "name": "PublishMarketFeeAddress",
          "type": "address"
        },
        {
          "indexed": false,
          "internalType": "address",
          "name": "PublishMarketFeeToken",
          "type": "address"
        },
        {
          "indexed": false,
          "internalType": "uint256",
          "name": "PublishMarketFeeAmount",
          "type": "uint256"
        }
      ],
      "name": "PublishMarketFeeChanged",
      "type": "event"
    },
    {
      "anonymous": false,
      "inputs": [
        {
          "indexed": true,
          "internalType": "address",
          "name": "user",
          "type": "address"
        },
        {
          "indexed": true,
          "internalType": "address",
          "name": "signer",
          "type": "address"
        },
        {
          "indexed": false,
          "internalType": "uint256",
          "name": "timestamp",
          "type": "uint256"
        },
        {
          "indexed": false,
          "internalType": "uint256",
          "name": "blockNumber",
          "type": "uint256"
        }
      ],
      "name": "RemovedMinter",
      "type": "event"
    },
    {
      "anonymous": false,
      "inputs": [
        {
          "indexed": true,
          "internalType": "address",
          "name": "user",
          "type": "address"
        },
        {
          "indexed": true,
          "internalType": "address",
          "name": "signer",
          "type": "address"
        },
        {
          "indexed": false,
          "internalType": "uint256",
          "name": "timestamp",
          "type": "uint256"
        },
        {
          "indexed": false,
          "internalType": "uint256",
          "name": "blockNumber",
          "type": "uint256"
        }
      ],
      "name": "RemovedPaymentManager",
      "type": "event"
    },
    {
      "anonymous": false,
      "inputs": [
        {
          "indexed": false,
          "internalType": "uint256",
          "name": "totalAmount",
          "type": "uint256"
        },
        {
          "indexed": false,
          "internalType": "uint256",
          "name": "slot",
          "type": "uint256"
        },
        {
          "indexed": false,
          "internalType": "uint256",
          "name": "amountPerEpoch",
          "type": "uint256"
        },
        {
          "indexed": false,
          "internalType": "uint256",
          "name": "numEpochs",
          "type": "uint256"
        },
        {
          "indexed": false,
          "internalType": "uint256",
          "name": "secondsPerEpoch",
          "type": "uint256"
        }
      ],
      "name": "RevenueAdded",
      "type": "event"
    },
    {
      "anonymous": false,
      "inputs": [
        {
          "indexed": false,
          "internalType": "uint256",
          "name": "secondsPerEpoch",
          "type": "uint256"
        },
        {
          "indexed": false,
          "internalType": "uint256",
          "name": "secondsPerSubscription",
          "type": "uint256"
        },
        {
          "indexed": false,
          "internalType": "uint256",
          "name": "trueValueSubmitTimeout",
          "type": "uint256"
        },
        {
          "indexed": false,
          "internalType": "address",
          "name": "stakeToken",
          "type": "address"
        }
      ],
      "name": "SettingChanged",
      "type": "event"
    },
    {
      "anonymous": false,
      "inputs": [
        {
          "indexed": true,
          "internalType": "address",
          "name": "from",
          "type": "address"
        },
        {
          "indexed": true,
          "internalType": "address",
          "name": "to",
          "type": "address"
        },
        {
          "indexed": false,
          "internalType": "uint256",
          "name": "value",
          "type": "uint256"
        }
      ],
      "name": "Transfer",
      "type": "event"
    },
    {
      "anonymous": false,
      "inputs": [
        {
          "indexed": true,
          "internalType": "uint256",
          "name": "slot",
          "type": "uint256"
        },
        {
          "indexed": false,
          "internalType": "bool",
          "name": "trueValue",
          "type": "bool"
        },
        {
          "indexed": false,
          "internalType": "uint256",
          "name": "floatValue",
          "type": "uint256"
        },
        {
          "indexed": false,
          "internalType": "enum ERC20Template3.Status",
          "name": "status",
          "type": "uint8"
        }
      ],
      "name": "TruevalSubmitted",
      "type": "event"
    },
    {
      "stateMutability": "payable",
      "type": "fallback"
    },
    {
      "inputs": [],
      "name": "BASE",
      "outputs": [
        {
          "internalType": "uint256",
          "name": "",
          "type": "uint256"
        }
      ],
      "stateMutability": "view",
      "type": "function"
    },
    {
      "inputs": [],
      "name": "DOMAIN_SEPARATOR",
      "outputs": [
        {
          "internalType": "bytes32",
          "name": "",
          "type": "bytes32"
        }
      ],
      "stateMutability": "view",
      "type": "function"
    },
    {
      "inputs": [],
      "name": "PERMIT_TYPEHASH",
      "outputs": [
        {
          "internalType": "bytes32",
          "name": "",
          "type": "bytes32"
        }
      ],
      "stateMutability": "view",
      "type": "function"
    },
    {
      "inputs": [
        {
          "internalType": "address",
          "name": "owner",
          "type": "address"
        },
        {
          "internalType": "address",
          "name": "spender",
          "type": "address"
        }
      ],
      "name": "allowance",
      "outputs": [
        {
          "internalType": "uint256",
          "name": "",
          "type": "uint256"
        }
      ],
      "stateMutability": "view",
      "type": "function"
    },
    {
      "inputs": [
        {
          "internalType": "address",
          "name": "spender",
          "type": "address"
        },
        {
          "internalType": "uint256",
          "name": "amount",
          "type": "uint256"
        }
      ],
      "name": "approve",
      "outputs": [
        {
          "internalType": "bool",
          "name": "",
          "type": "bool"
        }
      ],
      "stateMutability": "nonpayable",
      "type": "function"
    },
    {
      "inputs": [
        {
          "internalType": "uint256",
          "name": "",
          "type": "uint256"
        }
      ],
      "name": "authERC20",
      "outputs": [
        {
          "internalType": "address",
          "name": "",
          "type": "address"
        }
      ],
      "stateMutability": "view",
      "type": "function"
    },
    {
      "inputs": [
        {
          "internalType": "address",
          "name": "account",
          "type": "address"
        }
      ],
      "name": "balanceOf",
      "outputs": [
        {
          "internalType": "uint256",
          "name": "",
          "type": "uint256"
        }
      ],
      "stateMutability": "view",
      "type": "function"
    },
    {
      "inputs": [
        {
          "internalType": "uint256",
          "name": "amount",
          "type": "uint256"
        }
      ],
      "name": "burn",
      "outputs": [],
      "stateMutability": "nonpayable",
      "type": "function"
    },
    {
      "inputs": [
        {
          "internalType": "address",
          "name": "account",
          "type": "address"
        },
        {
          "internalType": "uint256",
          "name": "amount",
          "type": "uint256"
        }
      ],
      "name": "burnFrom",
      "outputs": [],
      "stateMutability": "nonpayable",
      "type": "function"
    },
    {
      "inputs": [
        {
          "components": [
            {
              "internalType": "address",
              "name": "consumer",
              "type": "address"
            },
            {
              "internalType": "uint256",
              "name": "serviceIndex",
              "type": "uint256"
            },
            {
              "components": [
                {
                  "internalType": "address",
                  "name": "providerFeeAddress",
                  "type": "address"
                },
                {
                  "internalType": "address",
                  "name": "providerFeeToken",
                  "type": "address"
                },
                {
                  "internalType": "uint256",
                  "name": "providerFeeAmount",
                  "type": "uint256"
                },
                {
                  "internalType": "uint8",
                  "name": "v",
                  "type": "uint8"
                },
                {
                  "internalType": "bytes32",
                  "name": "r",
                  "type": "bytes32"
                },
                {
                  "internalType": "bytes32",
                  "name": "s",
                  "type": "bytes32"
                },
                {
                  "internalType": "uint256",
                  "name": "validUntil",
                  "type": "uint256"
                },
                {
                  "internalType": "bytes",
                  "name": "providerData",
                  "type": "bytes"
                }
              ],
              "internalType": "struct ERC20Template3.providerFee",
              "name": "_providerFee",
              "type": "tuple"
            },
            {
              "components": [
                {
                  "internalType": "address",
                  "name": "consumeMarketFeeAddress",
                  "type": "address"
                },
                {
                  "internalType": "address",
                  "name": "consumeMarketFeeToken",
                  "type": "address"
                },
                {
                  "internalType": "uint256",
                  "name": "consumeMarketFeeAmount",
                  "type": "uint256"
                }
              ],
              "internalType": "struct ERC20Template3.consumeMarketFee",
              "name": "_consumeMarketFee",
              "type": "tuple"
            }
          ],
          "internalType": "struct ERC20Template3.OrderParams",
          "name": "_orderParams",
          "type": "tuple"
        },
        {
          "components": [
            {
              "internalType": "address",
              "name": "exchangeContract",
              "type": "address"
            },
            {
              "internalType": "bytes32",
              "name": "exchangeId",
              "type": "bytes32"
            },
            {
              "internalType": "uint256",
              "name": "maxBaseTokenAmount",
              "type": "uint256"
            },
            {
              "internalType": "uint256",
              "name": "swapMarketFee",
              "type": "uint256"
            },
            {
              "internalType": "address",
              "name": "marketFeeAddress",
              "type": "address"
            }
          ],
          "internalType": "struct ERC20Template3.FreParams",
          "name": "_freParams",
          "type": "tuple"
        }
      ],
      "name": "buyFromFreAndOrder",
      "outputs": [],
      "stateMutability": "nonpayable",
      "type": "function"
    },
    {
      "inputs": [],
      "name": "cap",
      "outputs": [
        {
          "internalType": "uint256",
          "name": "",
          "type": "uint256"
        }
      ],
      "stateMutability": "view",
      "type": "function"
    },
    {
      "inputs": [],
      "name": "cleanFrom721",
      "outputs": [],
      "stateMutability": "nonpayable",
      "type": "function"
    },
    {
      "inputs": [],
      "name": "cleanPermissions",
      "outputs": [],
      "stateMutability": "nonpayable",
      "type": "function"
    },
    {
      "inputs": [
        {
          "internalType": "address",
          "name": "fixedPriceAddress",
          "type": "address"
        },
        {
          "internalType": "address[]",
          "name": "addresses",
          "type": "address[]"
        },
        {
          "internalType": "uint256[]",
          "name": "uints",
          "type": "uint256[]"
        }
      ],
      "name": "createFixedRate",
      "outputs": [
        {
          "internalType": "bytes32",
          "name": "exchangeId",
          "type": "bytes32"
        }
      ],
      "stateMutability": "nonpayable",
      "type": "function"
    },
    {
      "inputs": [],
      "name": "curEpoch",
      "outputs": [
        {
          "internalType": "uint256",
          "name": "",
          "type": "uint256"
        }
      ],
      "stateMutability": "view",
      "type": "function"
    },
    {
      "inputs": [],
      "name": "decimals",
      "outputs": [
        {
          "internalType": "uint8",
          "name": "",
          "type": "uint8"
        }
      ],
      "stateMutability": "pure",
      "type": "function"
    },
    {
      "inputs": [
        {
          "internalType": "address",
          "name": "spender",
          "type": "address"
        },
        {
          "internalType": "uint256",
          "name": "subtractedValue",
          "type": "uint256"
        }
      ],
      "name": "decreaseAllowance",
      "outputs": [
        {
          "internalType": "bool",
          "name": "",
          "type": "bool"
        }
      ],
      "stateMutability": "nonpayable",
      "type": "function"
    },
    {
      "inputs": [
        {
          "internalType": "uint256",
          "name": "",
          "type": "uint256"
        }
      ],
      "name": "epochStatus",
      "outputs": [
        {
          "internalType": "enum ERC20Template3.Status",
          "name": "",
          "type": "uint8"
        }
      ],
      "stateMutability": "view",
      "type": "function"
    },
    {
      "inputs": [],
      "name": "feeCollector",
      "outputs": [
        {
          "internalType": "address",
          "name": "",
          "type": "address"
        }
      ],
      "stateMutability": "view",
      "type": "function"
    },
    {
      "inputs": [
        {
          "internalType": "uint256",
          "name": "epoch_start",
          "type": "uint256"
        },
        {
          "components": [
            {
              "internalType": "address",
              "name": "userAddress",
              "type": "address"
            },
            {
              "internalType": "uint8",
              "name": "v",
              "type": "uint8"
            },
            {
              "internalType": "bytes32",
              "name": "r",
              "type": "bytes32"
            },
            {
              "internalType": "bytes32",
              "name": "s",
              "type": "bytes32"
            },
            {
              "internalType": "uint256",
              "name": "validUntil",
              "type": "uint256"
            }
          ],
          "internalType": "struct ERC20Template3.userAuth",
          "name": "_userAuth",
          "type": "tuple"
        }
      ],
      "name": "getAggPredval",
      "outputs": [
        {
          "internalType": "uint256",
          "name": "",
          "type": "uint256"
        },
        {
          "internalType": "uint256",
          "name": "",
          "type": "uint256"
        }
      ],
      "stateMutability": "view",
      "type": "function"
    },
    {
      "inputs": [],
      "name": "getDispensers",
      "outputs": [
        {
          "internalType": "address[]",
          "name": "",
          "type": "address[]"
        }
      ],
      "stateMutability": "view",
      "type": "function"
    },
    {
      "inputs": [],
      "name": "getERC721Address",
      "outputs": [
        {
          "internalType": "address",
          "name": "",
          "type": "address"
        }
      ],
      "stateMutability": "view",
      "type": "function"
    },
    {
      "inputs": [],
      "name": "getFixedRates",
      "outputs": [
        {
          "components": [
            {
              "internalType": "address",
              "name": "contractAddress",
              "type": "address"
            },
            {
              "internalType": "bytes32",
              "name": "id",
              "type": "bytes32"
            }
          ],
          "internalType": "struct ERC20Template3.fixedRate[]",
          "name": "",
          "type": "tuple[]"
        }
      ],
      "stateMutability": "view",
      "type": "function"
    },
    {
      "inputs": [],
      "name": "getId",
      "outputs": [
        {
          "internalType": "uint8",
          "name": "",
          "type": "uint8"
        }
      ],
      "stateMutability": "pure",
      "type": "function"
    },
    {
      "inputs": [],
      "name": "getPaymentCollector",
      "outputs": [
        {
          "internalType": "address",
          "name": "",
          "type": "address"
        }
      ],
      "stateMutability": "view",
      "type": "function"
    },
    {
      "inputs": [
        {
          "internalType": "address",
          "name": "user",
          "type": "address"
        }
      ],
      "name": "getPermissions",
      "outputs": [
        {
          "components": [
            {
              "internalType": "bool",
              "name": "minter",
              "type": "bool"
            },
            {
              "internalType": "bool",
              "name": "paymentManager",
              "type": "bool"
            }
          ],
          "internalType": "struct ERC20Roles.RolesERC20",
          "name": "",
          "type": "tuple"
        }
      ],
      "stateMutability": "view",
      "type": "function"
    },
    {
      "inputs": [
        {
          "internalType": "uint256",
          "name": "epoch_start",
          "type": "uint256"
        },
        {
          "internalType": "address",
          "name": "predictoor",
          "type": "address"
        },
        {
          "components": [
            {
              "internalType": "address",
              "name": "userAddress",
              "type": "address"
            },
            {
              "internalType": "uint8",
              "name": "v",
              "type": "uint8"
            },
            {
              "internalType": "bytes32",
              "name": "r",
              "type": "bytes32"
            },
            {
              "internalType": "bytes32",
              "name": "s",
              "type": "bytes32"
            },
            {
              "internalType": "uint256",
              "name": "validUntil",
              "type": "uint256"
            }
          ],
          "internalType": "struct ERC20Template3.userAuth",
          "name": "_userAuth",
          "type": "tuple"
        }
      ],
      "name": "getPrediction",
      "outputs": [
        {
          "components": [
            {
              "internalType": "bool",
              "name": "predictedValue",
              "type": "bool"
            },
            {
              "internalType": "uint256",
              "name": "stake",
              "type": "uint256"
            },
            {
              "internalType": "address",
              "name": "predictoor",
              "type": "address"
            },
            {
              "internalType": "bool",
              "name": "paid",
              "type": "bool"
            }
          ],
          "internalType": "struct ERC20Template3.Prediction",
          "name": "prediction",
          "type": "tuple"
        }
      ],
      "stateMutability": "view",
      "type": "function"
    },
    {
      "inputs": [],
      "name": "getPublishingMarketFee",
      "outputs": [
        {
          "internalType": "address",
          "name": "",
          "type": "address"
        },
        {
          "internalType": "address",
          "name": "",
          "type": "address"
        },
        {
          "internalType": "uint256",
          "name": "",
          "type": "uint256"
        }
      ],
      "stateMutability": "view",
      "type": "function"
    },
    {
      "inputs": [
        {
          "internalType": "uint256",
          "name": "epoch_start",
          "type": "uint256"
        }
      ],
      "name": "getsubscriptionRevenueAtEpoch",
      "outputs": [
        {
          "internalType": "uint256",
          "name": "",
          "type": "uint256"
        }
      ],
      "stateMutability": "view",
      "type": "function"
    },
    {
      "inputs": [
        {
          "internalType": "address",
          "name": "spender",
          "type": "address"
        },
        {
          "internalType": "uint256",
          "name": "addedValue",
          "type": "uint256"
        }
      ],
      "name": "increaseAllowance",
      "outputs": [
        {
          "internalType": "bool",
          "name": "",
          "type": "bool"
        }
      ],
      "stateMutability": "nonpayable",
      "type": "function"
    },
    {
      "inputs": [
        {
          "internalType": "string[]",
          "name": "strings_",
          "type": "string[]"
        },
        {
          "internalType": "address[]",
          "name": "addresses_",
          "type": "address[]"
        },
        {
          "internalType": "address[]",
          "name": "factoryAddresses_",
          "type": "address[]"
        },
        {
          "internalType": "uint256[]",
          "name": "uints_",
          "type": "uint256[]"
        },
        {
          "internalType": "bytes[]",
          "name": "bytes_",
          "type": "bytes[]"
        }
      ],
      "name": "initialize",
      "outputs": [
        {
          "internalType": "bool",
          "name": "",
          "type": "bool"
        }
      ],
      "stateMutability": "nonpayable",
      "type": "function"
    },
    {
      "inputs": [
        {
          "internalType": "address",
          "name": "user",
          "type": "address"
        }
      ],
      "name": "isERC20Deployer",
      "outputs": [
        {
          "internalType": "bool",
          "name": "",
          "type": "bool"
        }
      ],
      "stateMutability": "view",
      "type": "function"
    },
    {
      "inputs": [],
      "name": "isInitialized",
      "outputs": [
        {
          "internalType": "bool",
          "name": "",
          "type": "bool"
        }
      ],
      "stateMutability": "view",
      "type": "function"
    },
    {
      "inputs": [
        {
          "internalType": "address",
          "name": "account",
          "type": "address"
        }
      ],
      "name": "isMinter",
      "outputs": [
        {
          "internalType": "bool",
          "name": "",
          "type": "bool"
        }
      ],
      "stateMutability": "view",
      "type": "function"
    },
    {
      "inputs": [
        {
          "internalType": "address",
          "name": "user",
          "type": "address"
        }
      ],
      "name": "isValidSubscription",
      "outputs": [
        {
          "internalType": "bool",
          "name": "",
          "type": "bool"
        }
      ],
      "stateMutability": "view",
      "type": "function"
    },
    {
      "inputs": [
        {
          "internalType": "address",
          "name": "account",
          "type": "address"
        },
        {
          "internalType": "uint256",
          "name": "value",
          "type": "uint256"
        }
      ],
      "name": "mint",
      "outputs": [],
      "stateMutability": "nonpayable",
      "type": "function"
    },
    {
      "inputs": [],
      "name": "name",
      "outputs": [
        {
          "internalType": "string",
          "name": "",
          "type": "string"
        }
      ],
      "stateMutability": "view",
      "type": "function"
    },
    {
      "inputs": [
        {
          "internalType": "address",
          "name": "",
          "type": "address"
        }
      ],
      "name": "nonces",
      "outputs": [
        {
          "internalType": "uint256",
          "name": "",
          "type": "uint256"
        }
      ],
      "stateMutability": "view",
      "type": "function"
    },
    {
      "inputs": [],
      "name": "pausePredictions",
      "outputs": [],
      "stateMutability": "nonpayable",
      "type": "function"
    },
    {
      "inputs": [],
      "name": "paused",
      "outputs": [
        {
          "internalType": "bool",
          "name": "",
          "type": "bool"
        }
      ],
      "stateMutability": "view",
      "type": "function"
    },
    {
      "inputs": [
        {
          "internalType": "uint256",
          "name": "epoch_start",
          "type": "uint256"
        },
        {
          "internalType": "address",
          "name": "predictoor_addr",
          "type": "address"
        }
      ],
      "name": "payout",
      "outputs": [],
      "stateMutability": "nonpayable",
      "type": "function"
    },
    {
      "inputs": [
        {
          "internalType": "uint256[]",
          "name": "blocknums",
          "type": "uint256[]"
        },
        {
          "internalType": "address",
          "name": "predictoor_addr",
          "type": "address"
        }
      ],
      "name": "payoutMultiple",
      "outputs": [],
      "stateMutability": "nonpayable",
      "type": "function"
    },
    {
      "inputs": [
        {
          "internalType": "address",
          "name": "",
          "type": "address"
        }
      ],
      "name": "permissions",
      "outputs": [
        {
          "internalType": "bool",
          "name": "minter",
          "type": "bool"
        },
        {
          "internalType": "bool",
          "name": "paymentManager",
          "type": "bool"
        }
      ],
      "stateMutability": "view",
      "type": "function"
    },
    {
      "inputs": [
        {
          "internalType": "uint256",
          "name": "epoch_start",
          "type": "uint256"
        }
      ],
      "name": "redeemUnusedSlotRevenue",
      "outputs": [],
      "stateMutability": "nonpayable",
      "type": "function"
    },
    {
      "inputs": [
        {
          "internalType": "address",
          "name": "_minter",
          "type": "address"
        }
      ],
      "name": "removeMinter",
      "outputs": [],
      "stateMutability": "nonpayable",
      "type": "function"
    },
    {
      "inputs": [],
      "name": "router",
      "outputs": [
        {
          "internalType": "address",
          "name": "",
          "type": "address"
        }
      ],
      "stateMutability": "view",
      "type": "function"
    },
    {
      "inputs": [],
      "name": "secondsPerEpoch",
      "outputs": [
        {
          "internalType": "uint256",
          "name": "",
          "type": "uint256"
        }
      ],
      "stateMutability": "view",
      "type": "function"
    },
    {
      "inputs": [],
      "name": "secondsPerSubscription",
      "outputs": [
        {
          "internalType": "uint256",
          "name": "",
          "type": "uint256"
        }
      ],
      "stateMutability": "view",
      "type": "function"
    },
    {
      "inputs": [
        {
          "internalType": "address",
          "name": "_newFeeCollector",
          "type": "address"
        }
      ],
      "name": "setFeeCollector",
      "outputs": [],
      "stateMutability": "nonpayable",
      "type": "function"
    },
    {
      "inputs": [
        {
          "internalType": "address",
          "name": "_newPaymentCollector",
          "type": "address"
        }
      ],
      "name": "setPaymentCollector",
      "outputs": [],
      "stateMutability": "nonpayable",
      "type": "function"
    },
    {
      "inputs": [
        {
          "internalType": "address",
          "name": "_publishMarketFeeAddress",
          "type": "address"
        },
        {
          "internalType": "address",
          "name": "_publishMarketFeeToken",
          "type": "address"
        },
        {
          "internalType": "uint256",
          "name": "_publishMarketFeeAmount",
          "type": "uint256"
        }
      ],
      "name": "setPublishingMarketFee",
      "outputs": [],
      "stateMutability": "nonpayable",
      "type": "function"
    },
    {
      "inputs": [
        {
          "internalType": "uint256",
          "name": "prediction_ts",
          "type": "uint256"
        }
      ],
      "name": "soonestEpochToPredict",
      "outputs": [
        {
          "internalType": "uint256",
          "name": "",
          "type": "uint256"
        }
      ],
      "stateMutability": "view",
      "type": "function"
    },
    {
      "inputs": [],
      "name": "stakeToken",
      "outputs": [
        {
          "internalType": "address",
          "name": "",
          "type": "address"
        }
      ],
      "stateMutability": "view",
      "type": "function"
    },
    {
      "inputs": [
        {
          "internalType": "address",
          "name": "consumer",
          "type": "address"
        },
        {
          "internalType": "uint256",
          "name": "serviceIndex",
          "type": "uint256"
        },
        {
          "components": [
            {
              "internalType": "address",
              "name": "providerFeeAddress",
              "type": "address"
            },
            {
              "internalType": "address",
              "name": "providerFeeToken",
              "type": "address"
            },
            {
              "internalType": "uint256",
              "name": "providerFeeAmount",
              "type": "uint256"
            },
            {
              "internalType": "uint8",
              "name": "v",
              "type": "uint8"
            },
            {
              "internalType": "bytes32",
              "name": "r",
              "type": "bytes32"
            },
            {
              "internalType": "bytes32",
              "name": "s",
              "type": "bytes32"
            },
            {
              "internalType": "uint256",
              "name": "validUntil",
              "type": "uint256"
            },
            {
              "internalType": "bytes",
              "name": "providerData",
              "type": "bytes"
            }
          ],
          "internalType": "struct ERC20Template3.providerFee",
          "name": "_providerFee",
          "type": "tuple"
        },
        {
          "components": [
            {
              "internalType": "address",
              "name": "consumeMarketFeeAddress",
              "type": "address"
            },
            {
              "internalType": "address",
              "name": "consumeMarketFeeToken",
              "type": "address"
            },
            {
              "internalType": "uint256",
              "name": "consumeMarketFeeAmount",
              "type": "uint256"
            }
          ],
          "internalType": "struct ERC20Template3.consumeMarketFee",
          "name": "_consumeMarketFee",
          "type": "tuple"
        }
      ],
      "name": "startOrder",
      "outputs": [],
      "stateMutability": "nonpayable",
      "type": "function"
    },
    {
      "inputs": [
        {
          "internalType": "bool",
          "name": "predictedValue",
          "type": "bool"
        },
        {
          "internalType": "uint256",
          "name": "stake",
          "type": "uint256"
        },
        {
          "internalType": "uint256",
          "name": "epoch_start",
          "type": "uint256"
        }
      ],
      "name": "submitPredval",
      "outputs": [],
      "stateMutability": "nonpayable",
      "type": "function"
    },
    {
      "inputs": [
        {
          "internalType": "uint256",
          "name": "epoch_start",
          "type": "uint256"
        },
        {
          "internalType": "bool",
          "name": "trueValue",
          "type": "bool"
        },
        {
          "internalType": "uint256",
          "name": "floatValue",
          "type": "uint256"
        },
        {
          "internalType": "bool",
          "name": "cancelRound",
          "type": "bool"
        }
      ],
      "name": "submitTrueVal",
      "outputs": [],
      "stateMutability": "nonpayable",
      "type": "function"
    },
    {
      "inputs": [
        {
          "internalType": "uint256",
          "name": "epoch_start",
          "type": "uint256"
        },
        {
          "internalType": "address",
          "name": "predictoor",
          "type": "address"
        }
      ],
      "name": "submittedPredval",
      "outputs": [
        {
          "internalType": "bool",
          "name": "",
          "type": "bool"
        }
      ],
      "stateMutability": "view",
      "type": "function"
    },
    {
      "inputs": [
        {
          "internalType": "address",
          "name": "",
          "type": "address"
        }
      ],
      "name": "subscriptions",
      "outputs": [
        {
          "internalType": "address",
          "name": "user",
          "type": "address"
        },
        {
          "internalType": "uint256",
          "name": "expires",
          "type": "uint256"
        }
      ],
      "stateMutability": "view",
      "type": "function"
    },
    {
      "inputs": [],
      "name": "symbol",
      "outputs": [
        {
          "internalType": "string",
          "name": "",
          "type": "string"
        }
      ],
      "stateMutability": "view",
      "type": "function"
    },
    {
      "inputs": [
        {
          "internalType": "uint256",
          "name": "_timestamp",
          "type": "uint256"
        }
      ],
      "name": "toEpochStart",
      "outputs": [
        {
          "internalType": "uint256",
          "name": "",
          "type": "uint256"
        }
      ],
      "stateMutability": "view",
      "type": "function"
    },
    {
      "inputs": [],
      "name": "totalSupply",
      "outputs": [
        {
          "internalType": "uint256",
          "name": "",
          "type": "uint256"
        }
      ],
      "stateMutability": "view",
      "type": "function"
    },
    {
      "inputs": [
        {
          "internalType": "address",
          "name": "to",
          "type": "address"
        },
        {
          "internalType": "uint256",
          "name": "amount",
          "type": "uint256"
        }
      ],
      "name": "transfer",
      "outputs": [
        {
          "internalType": "bool",
          "name": "",
          "type": "bool"
        }
      ],
      "stateMutability": "nonpayable",
      "type": "function"
    },
    {
      "inputs": [
        {
          "internalType": "address",
          "name": "from",
          "type": "address"
        },
        {
          "internalType": "address",
          "name": "to",
          "type": "address"
        },
        {
          "internalType": "uint256",
          "name": "amount",
          "type": "uint256"
        }
      ],
      "name": "transferFrom",
      "outputs": [
        {
          "internalType": "bool",
          "name": "",
          "type": "bool"
        }
      ],
      "stateMutability": "nonpayable",
      "type": "function"
    },
    {
      "inputs": [],
      "name": "trueValSubmitTimeout",
      "outputs": [
        {
          "internalType": "uint256",
          "name": "",
          "type": "uint256"
        }
      ],
      "stateMutability": "view",
      "type": "function"
    },
    {
      "inputs": [
        {
          "internalType": "uint256",
          "name": "",
          "type": "uint256"
        }
      ],
      "name": "trueValues",
      "outputs": [
        {
          "internalType": "bool",
          "name": "",
          "type": "bool"
        }
      ],
      "stateMutability": "view",
      "type": "function"
    },
    {
      "inputs": [
        {
          "internalType": "uint256",
          "name": "s_per_subscription",
          "type": "uint256"
        },
        {
          "internalType": "uint256",
          "name": "_truval_submit_timeout",
          "type": "uint256"
        }
      ],
      "name": "updateSeconds",
      "outputs": [],
      "stateMutability": "nonpayable",
      "type": "function"
    },
    {
      "inputs": [],
      "name": "withdrawETH",
      "outputs": [],
      "stateMutability": "payable",
      "type": "function"
    },
    {
      "stateMutability": "payable",
      "type": "receive"
    }
  ],
  "bytecode": "0x6080604052600b805460ff19908116909155601c805490911690553480156200002757600080fd5b5060408051808201825260048152631d195cdd60e21b60208083019182528351808501909452600a8452691d195cdd14de5b589bdb60b21b90840152815191929162000076916003916200009a565b5080516200008c9060049060208401906200009a565b50506001600755506200017d565b828054620000a89062000140565b90600052602060002090601f016020900481019282620000cc576000855562000117565b82601f10620000e757805160ff191683800117855562000117565b8280016001018555821562000117579182015b8281111562000117578251825591602001919060010190620000fa565b506200012592915062000129565b5090565b5b808211156200012557600081556001016200012a565b600181811c908216806200015557607f821691505b602082108114156200017757634e487b7160e01b600052602260045260246000fd5b50919050565b615d1e806200018d6000396000f3fe6080604052600436106103b75760003560e01c806379d9d7f3116101f0578063be95e01a1161010c578063ec342ad0116100a5578063f317784e11610077578063f317784e14610cbd578063f778f83414610cdd578063f887ea4014610cfd578063f9aa6e0f14610d1d578063fc913bed14610d5a57005b8063ec342ad014610bed578063ef83fbad14610c09578063ef867ff414610c3e578063f046395a14610c5e57005b8063d99325cb116100de578063d99325cb14610b92578063dd62ed3e14610bb2578063e086e5ec14610bd2578063e487c2e814610bda57005b8063be95e01a14610b10578063c415b95c14610b30578063c95de13e14610b50578063d888731514610b7d57005b806396fb3eaf11610189578063a9059cbb1161015b578063a9059cbb14610a52578063aa271e1a14610a72578063b3998be014610aab578063b664fac814610acb578063b6f421b614610ae057005b806396fb3eaf146109d2578063a42dce80146109f2578063a457c2d714610a12578063a8c09b0b14610a3257005b806383835a85116101c257806383835a85146109275780638b96412b1461093d5780638d58986a1461095d57806395d89b41146109bd57005b806379d9d7f3146108a35780637dda231e146108c35780637ecebe00146108e557806382c03da51461091257005b8063355274ea116102df5780634f189cb211610278578063580c8f3d1161024a578063580c8f3d146108095780635c975abb1461081f5780635d1ca6311461083957806370a082311461084d57806379cc67901461088357005b80634f189cb21461079657806351ed6a30146107ab57806357a3a31b146107cb57806357ad5ff6146107e957005b8063397b3743116102b1578063397b3743146106f857806340c10f191461073457806342966c681461075457806347ac7d551461077457005b8063355274ea146106955780633644e515146106aa578063392e53cd146106c057806339509351146106d857005b806323b872dd116103515780632f0c0eb5116103235780632f0c0eb5146106095780633092afd51461061f57806330adf81f1461063f578063313ce5671461067357005b806323b872dd1461058957806324e7fdda146105a957806327e62483146105c95780632cdf2e26146105e957005b80630f58ff951161038a5780630f58ff951461049e578063160a7925146104be57806318160ddd1461054a578063210aaf221461056957005b80627ffb78146103c057806301e88208146103fc57806306fdde031461044c578063095ea7b31461046e57005b366103be57005b005b3480156103cc57600080fd5b50600b5461010090046001600160a01b03165b6040516001600160a01b0390911681526020015b60405180910390f35b34801561040857600080fd5b50610435610417366004614fbd565b60056020526000908152604090205460ff8082169161010090041682565b6040805192151583529015156020830152016103f3565b34801561045857600080fd5b50610461610d7a565b6040516103f39190615006565b34801561047a57600080fd5b5061048e610489366004615039565b610e0c565b60405190151581526020016103f3565b3480156104aa57600080fd5b506103be6104b93660046150a9565b610e26565b3480156104ca57600080fd5b5061052b6104d9366004614fbd565b6040805180820190915260008082526020820152506001600160a01b031660009081526005602090815260409182902082518084019093525460ff808216151584526101009091041615159082015290565b60408051825115158152602092830151151592810192909252016103f3565b34801561055657600080fd5b506002545b6040519081526020016103f3565b34801561057557600080fd5b5061055b6105843660046150ff565b610e6b565b34801561059557600080fd5b5061048e6105a4366004615118565b610e85565b3480156105b557600080fd5b5061048e6105c4366004615159565b610eab565b3480156105d557600080fd5b506103be6105e43660046150ff565b610ed9565b3480156105f557600080fd5b506103be610604366004615197565b6110ce565b34801561061557600080fd5b5061055b601b5481565b34801561062b57600080fd5b506103be61063a366004614fbd565b6114a8565b34801561064b57600080fd5b5061055b7f6e71edae12b1b97f4d1f60370fef10105fa2faae0126114a169c64845d6126c981565b34801561067f57600080fd5b5060125b60405160ff90911681526020016103f3565b3480156106a157600080fd5b50600a5461055b565b3480156106b657600080fd5b5061055b601d5481565b3480156106cc57600080fd5b50600b5460ff1661048e565b3480156106e457600080fd5b5061048e6106f3366004615039565b6115c4565b34801561070457600080fd5b50600d54600e54600f54604080516001600160a01b039485168152939092166020840152908201526060016103f3565b34801561074057600080fd5b506103be61074f366004615039565b6115e6565b34801561076057600080fd5b506103be61076f3660046150ff565b6116b7565b34801561078057600080fd5b506107896116c1565b6040516103f39190615225565b3480156107a257600080fd5b506103be611722565b3480156107b757600080fd5b506019546103df906001600160a01b031681565b3480156107d757600080fd5b506103be6107e6366004614fbd565b50565b3480156107f557600080fd5b506103be610804366004615118565b6117fd565b34801561081557600080fd5b5061055b60185481565b34801561082b57600080fd5b50601c5461048e9060ff1681565b34801561084557600080fd5b506003610683565b34801561085957600080fd5b5061055b610868366004614fbd565b6001600160a01b031660009081526020819052604090205490565b34801561088f57600080fd5b506103be61089e366004615039565b6119b7565b3480156108af57600080fd5b506103be6108be366004615238565b6119cc565b3480156108cf57600080fd5b506108d8611ceb565b6040516103f391906152b1565b3480156108f157600080fd5b5061055b610900366004614fbd565b601e6020526000908152604090205481565b34801561091e57600080fd5b506103be611d60565b34801561093357600080fd5b5061055b601a5481565b34801561094957600080fd5b5061055b6109583660046153dd565b611dbf565b34801561096957600080fd5b5061097d6109783660046154ca565b612286565b6040516103f39190815115158152602080830151908201526040808301516001600160a01b03169082015260609182015115159181019190915260800190565b3480156109c957600080fd5b50610461612382565b3480156109de57600080fd5b5061048e6109ed366004614fbd565b612391565b3480156109fe57600080fd5b506103be610a0d366004614fbd565b61240f565b348015610a1e57600080fd5b5061048e610a2d366004615039565b612557565b348015610a3e57600080fd5b506103be610a4d366004615509565b6125dd565b348015610a5e57600080fd5b5061048e610a6d366004615039565b612636565b348015610a7e57600080fd5b5061048e610a8d366004614fbd565b6001600160a01b031660009081526005602052604090205460ff1690565b348015610ab757600080fd5b5061048e610ac636600461555c565b612644565b348015610ad757600080fd5b506103be612777565b348015610aec57600080fd5b5061048e610afb3660046150ff565b60136020526000908152604090205460ff1681565b348015610b1c57600080fd5b506103be610b2b366004615159565b61289e565b348015610b3c57600080fd5b506017546103df906001600160a01b031681565b348015610b5c57600080fd5b5061055b610b6b3660046150ff565b60009081526015602052604090205490565b348015610b8957600080fd5b5061055b612c17565b348015610b9e57600080fd5b506103be610bad36600461564c565b612c27565b348015610bbe57600080fd5b5061055b610bcd36600461566e565b612d46565b6103be612d71565b348015610be657600080fd5b50306103df565b348015610bf957600080fd5b5061055b670de0b6b3a764000081565b348015610c1557600080fd5b50610c29610c2436600461569c565b612d9d565b604080519283526020830191909152016103f3565b348015610c4a57600080fd5b506103df610c593660046150ff565b612e1c565b348015610c6a57600080fd5b50610c9e610c79366004614fbd565b601660205260009081526040902080546001909101546001600160a01b039091169082565b604080516001600160a01b0390931683526020830191909152016103f3565b348015610cc957600080fd5b5061055b610cd83660046150ff565b612e46565b348015610ce957600080fd5b5061048e610cf8366004614fbd565b612e6a565b348015610d0957600080fd5b50601f546103df906001600160a01b031681565b348015610d2957600080fd5b50610d4d610d383660046150ff565b60146020526000908152604090205460ff1681565b6040516103f391906156f8565b348015610d6657600080fd5b506103be610d75366004615706565b612ea2565b606060088054610d899061573b565b80601f0160208091040260200160405190810160405280929190818152602001828054610db59061573b565b8015610e025780601f10610dd757610100808354040283529160200191610e02565b820191906000526020600020905b815481529060010190602001808311610de557829003601f168201915b5050505050905090565b600033610e1a818585613133565b60019150505b92915050565b60005b82811015610e6557610e53848483818110610e4657610e46615770565b905060200201358361289e565b80610e5d8161579c565b915050610e29565b50505050565b601854600090610e7b81846157b7565b610e2091906157d9565b600033610e93858285613257565b610e9e8585856132cb565b60019150505b9392505050565b60009182526010602090815260408084206001600160a01b0393841685529091529091206002015416151590565b600b5460405163160a792560e01b81523360048201526101009091046001600160a01b03169063160a792590602401608060405180830381865afa158015610f25573d6000803e3d6000fd5b505050506040513d601f19601f82011682018060405250810190610f4991906157f8565b6020015180610fd05750600b546040516331a9108f60e11b815260016004820152339161010090046001600160a01b031690636352211e90602401602060405180830381865afa158015610fa1573d6000803e3d6000fd5b505050506040513d601f19601f82011682018060405250810190610fc5919061587c565b6001600160a01b0316145b610ff55760405162461bcd60e51b8152600401610fec90615899565b60405180910390fd5b80610fff82610e6b565b1461101c5760405162461bcd60e51b8152600401610fec906158ce565b80611025612c17565b101561103057600080fd5b6000818152601260205260409020541561104957600080fd5b6017546001600160a01b03166110a15760405162461bcd60e51b815260206004820152601d60248201527f43616e6e6f742073656e64206665657320746f206164647265737320300000006044820152606401610fec565b6017546000828152601560205260409020546019546107e6926001600160a01b039182169291169061346f565b600b5460405163160a792560e01b81523360048201526101009091046001600160a01b03169063160a792590602401608060405180830381865afa15801561111a573d6000803e3d6000fd5b505050506040513d601f19601f8201168201806040525081019061113e91906157f8565b60200151806111c55750600b546040516331a9108f60e11b815260016004820152339161010090046001600160a01b031690636352211e90602401602060405180830381865afa158015611196573d6000803e3d6000fd5b505050506040513d601f19601f820116820180604052508101906111ba919061587c565b6001600160a01b0316145b6111e15760405162461bcd60e51b8152600401610fec90615899565b836111eb85610e6b565b146112085760405162461bcd60e51b8152600401610fec906158ce565b611210612c17565b8411156112555760405162461bcd60e51b81526020600482015260136024820152721d1bdbc819585c9b1e481d1bc81cdd589b5a5d606a1b6044820152606401610fec565b60008481526014602052604081205460ff166002811115611278576112786156c0565b146112b75760405162461bcd60e51b815260206004820152600f60248201526e185b1c9958591e481cd95d1d1b1959608a1b6044820152606401610fec565b6000601b54856112c791906158f5565b6112cf612c17565b11905060008060008781526014602052604090205460ff1660028111156112f8576112f86156c0565b149050828061130c575081801561130c5750805b1561132f576000868152601460205260409020805460ff19166002179055611450565b6000868152601360209081526040808320805460ff199081168a15151790915560148352818420805490911660011790556012909152902054158015906113b6575084801561138a5750600086815260116020526040902054155b806113b65750841580156113b65750600086815260126020908152604080832054601190925290912054145b15611450576017546001600160a01b03166114235760405162461bcd60e51b815260206004820152602760248201527f43616e6e6f742073656e6420736c6173686564207374616b657320746f2061646044820152660647265737320360cc1b6064820152608401610fec565b601754600087815260126020526040902054601954611450926001600160a01b039182169291169061346f565b6000868152601460205260409081902054905187917ff77048461eef01232e5d5a901c088f04c60951fe52551bb41e88ee0066dbbc5191611498918991899160ff169061590d565b60405180910390a2505050505050565b600b5460405163160a792560e01b81523360048201526101009091046001600160a01b03169063160a792590602401608060405180830381865afa1580156114f4573d6000803e3d6000fd5b505050506040513d601f19601f8201168201806040525081019061151891906157f8565b602001518061159f5750600b546040516331a9108f60e11b815260016004820152339161010090046001600160a01b031690636352211e90602401602060405180830381865afa158015611570573d6000803e3d6000fd5b505050506040513d601f19601f82011682018060405250810190611594919061587c565b6001600160a01b0316145b6115bb5760405162461bcd60e51b8152600401610fec90615899565b6107e6816134d2565b600033610e1a8185856115d78383612d46565b6115e191906158f5565b613133565b3360009081526005602052604090205460ff166116455760405162461bcd60e51b815260206004820152601960248201527f455243323054656d706c6174653a204e4f54204d494e544552000000000000006044820152606401610fec565b600a5461165b8261165560025490565b90613543565b11156116a95760405162461bcd60e51b815260206004820152601f60248201527f44617461746f6b656e54656d706c6174653a20636170206578636565646564006044820152606401610fec565b6116b3828261354f565b5050565b6107e6338261360e565b60606021805480602002602001604051908101604052809291908181526020018280548015610e0257602002820191906000526020600020905b81546001600160a01b031681526001909101906020018083116116fb575050505050905090565b600b546040516331a9108f60e11b8152600160048201526101009091046001600160a01b031690636352211e90602401602060405180830381865afa15801561176f573d6000803e3d6000fd5b505050506040513d601f19601f82011682018060405250810190611793919061587c565b6001600160a01b0316336001600160a01b0316146117f35760405162461bcd60e51b815260206004820152601b60248201527f455243323054656d706c6174653a206e6f74204e46544f776e657200000000006044820152606401610fec565b6117fb613740565b565b600d546001600160a01b0316331461186a5760405162461bcd60e51b815260206004820152602a60248201527f455243323054656d706c6174653a206e6f74207075626c6973684d61726b65746044820152694665654164647265737360b01b6064820152608401610fec565b6001600160a01b0383166118d15760405162461bcd60e51b815260206004820152602860248201527f496e76616c6964205f7075626c6973684d61726b657446656541646472657373604482015267206164647265737360c01b6064820152608401610fec565b6001600160a01b0382166119365760405162461bcd60e51b815260206004820152602660248201527f496e76616c6964205f7075626c6973684d61726b6574466565546f6b656e206160448201526564647265737360d01b6064820152608401610fec565b600d80546001600160a01b038581166001600160a01b03199283168117909355600e8054918616919092168117909155600f839055604080513381526020810193909352820152606081018290527f02ab4b3fc023109c2d0da394bda239166c833f63c42b71b67ed4b836dca0ddfe906080015b60405180910390a1505050565b6119c2823383613257565b6116b3828261360e565b33600090815260208190526040902054670de0b6b3a764000090811115611a415760405162461bcd60e51b8152602060048201526024808201527f4e6f7420656e6f7567682064617461746f6b656e7320746f207374617274204f604482015263393232b960e11b6064820152608401610fec565b600d5460408051338152602081018490529081018690524260608201524360808201526001600160a01b03918216918716907fe1c4fa794edfa8f619b8257a077398950357b9c6398528f94480307352f9afcc9060a00160405180910390a36000600f54118015611abc5750600e546001600160a01b031615155b8015611ad25750600d546001600160a01b031615155b15611b4757600e54600d54600f54611afa926001600160a01b03908116923392911690613ad6565b600e54600d54600f546040519081526001600160a01b0392831692909116907f4049a448ac6f0284a98d2cb9199e73605944ea5bec901a037f88c84703de82b29060200160405180910390a35b60008260400135118015611b7457506000611b686040840160208501614fbd565b6001600160a01b031614155b8015611b9657506000611b8a6020840184614fbd565b6001600160a01b031614155b15611c3357611bc6611bae6040840160208501614fbd565b33611bbc6020860186614fbd565b8560400135613ad6565b611bd66040830160208401614fbd565b6001600160a01b0316611bec6020840184614fbd565b6001600160a01b03167f6d11837f46cc09b011cf4aae09fcade046c020aac088090ae4f77ff67b7079728460400135604051611c2a91815260200190565b60405180910390a35b6000601a54611c40612c17565b611c4a91906158f5565b6040805180820182526001600160a01b03898116808352602080840186815260008381526016909252949020835181546001600160a01b031916931692909217825592516001909101559192507f498f6fbe01bd9d9e4dd7aed2b61275cee780377081cbcc813dabf749f933dd4983611cc1612c17565b6040805192835260208301919091520160405180910390a2611ce2836116b7565b50505050505050565b60606020805480602002602001604051908101604052809291908181526020016000905b82821015611d57576000848152602090819020604080518082019091526002850290910180546001600160a01b03168252600190810154828401529083529092019101611d0f565b50505050905090565b600b5461010090046001600160a01b031633146117f35760405162461bcd60e51b815260206004820152601f60248201527f455243323054656d706c6174653a204e4f542037323120436f6e7472616374006044820152606401610fec565b600b5460405163160a792560e01b815233600482015260009161010090046001600160a01b03169063160a792590602401608060405180830381865afa158015611e0d573d6000803e3d6000fd5b505050506040513d601f19601f82011682018060405250810190611e3191906157f8565b6020015180611eb85750600b546040516331a9108f60e11b815260016004820152339161010090046001600160a01b031690636352211e90602401602060405180830381865afa158015611e89573d6000803e3d6000fd5b505050506040513d601f19601f82011682018060405250810190611ead919061587c565b6001600160a01b0316145b611ed45760405162461bcd60e51b8152600401610fec90615899565b611edc613c24565b60205415611f2c5760405162461bcd60e51b815260206004820152601a60248201527f4669786564207261746520616c72656164792070726573656e740000000000006044820152606401610fec565b82600081518110611f3f57611f3f615770565b60209081029190910101516019546001600160a01b03908116911614611fbc5760405162461bcd60e51b815260206004820152602c60248201527f43616e6e6f74206372656174652046524520776974682062617365546f6b656e60448201526b109eb9ba30b5b2aa37b5b2b760a11b6064820152608401610fec565b60006001600160a01b031683600281518110611fda57611fda615770565b60200260200101516001600160a01b031614156120395760405162461bcd60e51b815260206004820152601b60248201527f466565436f6c6c6563746f722063616e6e6f74206265207a65726f00000000006044820152606401610fec565b308360038151811061204d5761204d615770565b60200260200101906001600160a01b031690816001600160a01b03168152505060008260048151811061208257612082615770565b602002602001015111156120995761209984613c7e565b601f54604051638244937560e01b81526001600160a01b03909116906382449375906120cd9087908790879060040161592a565b6020604051808303816000875af11580156120ec573d6000803e3d6000fd5b505050506040513d601f19601f820116820180604052508101906121109190615990565b90508260008151811061212557612125615770565b60200260200101516001600160a01b03168360018151811061214957612149615770565b60200260200101516001600160a01b03167fb3fac3ae95956dbac74e63ba8dac94081832395c8788e3049c900a7732f34805838760405161219d9291909182526001600160a01b0316602082015260400190565b60405180910390a3604080518082019091526001600160a01b0385811682526020808301848152815460018101835560009290925292517fc97bfaf2f8ee708c303a06d134f5ecd8389ae0432af62dc132a24118292866bb600292830290810180546001600160a01b031916929094169190911790925591517fc97bfaf2f8ee708c303a06d134f5ecd8389ae0432af62dc132a24118292866bc909101558351849190811061224e5761224e615770565b6020026020010151601760006101000a8154816001600160a01b0302191690836001600160a01b03160217905550610ea46001600755565b6040805160808101825260008082526020820181905291810182905260608101919091526122b2612c17565b84111561231a576122c282613d54565b6122cf6020830183614fbd565b6001600160a01b0316836001600160a01b03161461231a5760405162461bcd60e51b815260206004820152600860248201526709cdee840c2eae8d60c31b6044820152606401610fec565b505060009182526010602090815260408084206001600160a01b0393841685528252928390208351608081018552815460ff9081161515825260018301549382019390935260029091015492831693810193909352600160a01b909104161515606082015290565b606060098054610d899061573b565b600b5460405163160a792560e01b81526001600160a01b0383811660048301526000926101009004169063160a792590602401608060405180830381865afa1580156123e1573d6000803e3d6000fd5b505050506040513d601f19601f8201168201806040525081019061240591906157f8565b6020015192915050565b600b5460405163160a792560e01b81523360048201526101009091046001600160a01b03169063160a792590602401608060405180830381865afa15801561245b573d6000803e3d6000fd5b505050506040513d601f19601f8201168201806040525081019061247f91906157f8565b60200151806125065750600b546040516331a9108f60e11b815260016004820152339161010090046001600160a01b031690636352211e90602401602060405180830381865afa1580156124d7573d6000803e3d6000fd5b505050506040513d601f19601f820116820180604052508101906124fb919061587c565b6001600160a01b0316145b6125225760405162461bcd60e51b8152600401610fec90615899565b6001600160a01b03811661253557600080fd5b601780546001600160a01b0319166001600160a01b0392909216919091179055565b600033816125658286612d46565b9050838110156125c55760405162461bcd60e51b815260206004820152602560248201527f45524332303a2064656372656173656420616c6c6f77616e63652062656c6f77604482015264207a65726f60d81b6064820152608401610fec565b6125d28286868403613133565b506001949350505050565b6125e5613c24565b6125ee81613f1a565b6126013033670de0b6b3a76400006132cb565b61262c6126116020840184614fbd565b602084013561262360408601866159a9565b856060016119cc565b6116b36001600755565b600033610e1a8185856132cb565b600b5460009060ff16156126b45760405162461bcd60e51b815260206004820152603160248201527f455243323054656d706c6174653a20746f6b656e20696e7374616e636520616c6044820152701c9958591e481a5b9a5d1a585b1a5e9959607a1b6064820152608401610fec565b6127686126c18b8d615a20565b8a8a8080602002602001604051908101604052809392919081815260200183836020028082843760009201919091525050604080516020808e0282810182019093528d82529093508d92508c91829185019084908082843760009201919091525050604080516020808d0282810182019093528c82529093508c92508b91829185019084908082843760009201919091525061276392508991508a9050615aa7565b614349565b9b9a5050505050505050505050565b600b5460405163160a792560e01b81523360048201526101009091046001600160a01b03169063160a792590602401608060405180830381865afa1580156127c3573d6000803e3d6000fd5b505050506040513d601f19601f820116820180604052508101906127e791906157f8565b602001518061286e5750600b546040516331a9108f60e11b815260016004820152339161010090046001600160a01b031690636352211e90602401602060405180830381865afa15801561283f573d6000803e3d6000fd5b505050506040513d601f19601f82011682018060405250810190612863919061587c565b6001600160a01b0316145b61288a5760405162461bcd60e51b8152600401610fec90615899565b601c805460ff19811660ff90911615179055565b6128a6613c24565b816128b083610e6b565b146128cd5760405162461bcd60e51b8152600401610fec906158ce565b6128d78282610eab565b6129135760405162461bcd60e51b815260206004820152600d60248201526c1b9bdd081cdd589b5a5d1d1959609a1b6044820152606401610fec565b60008281526010602090815260408083206001600160a01b038086168552908352928190208151608081018352815460ff9081161515825260018301549482019490945260029091015493841691810191909152600160a01b909204161580156060830152612982575061262c565b601b5461298f90846158f5565b612997612c17565b1180156129c4575060008381526014602052604081205460ff1660028111156129c2576129c26156c0565b145b156129e3576000838152601460205260409020805460ff191660021790555b60008381526014602052604081205460ff166002811115612a0657612a066156c0565b1415612a12575061262c565b60008381526010602090815260408083206001600160a01b038616845290915281206002908101805460ff60a01b1916600160a01b17905560008581526014602052604090205460ff166002811115612a6d57612a6d6156c0565b1415612a7e57506020810151612b3c565b815160008581526013602052604090205460ff1615159015151415612b3c5760008481526013602052604081205460ff16612add57600085815260116020908152604080832054601290925290912054612ad89190615b22565b612aed565b6000858152601160205260409020545b90508015612b3a576000858152601560209081526040808320546012909252909120548290612b1d9083906158f5565b8560200151612b2c91906157d9565b612b3691906157b7565b9250505b505b60208083015183516000878152601384526040808220546012865281832054601190965291205488946001600160a01b038916947f095487dd6dbd377778c598664198287a051bce23f419565bd4ce4a2b37c63c809490938893919260ff90911691612bb090670de0b6b3a76400006157d9565b612bba91906157b7565b60008c81526014602052604090819020549051612bdf96959493929160ff1690615b39565b60405180910390a38015612c0b576040820151601954612c0b916001600160a01b03909116908361346f565b50506116b36001600755565b6000612c2242610e6b565b905090565b600b5460405163160a792560e01b81523360048201526101009091046001600160a01b03169063160a792590602401608060405180830381865afa158015612c73573d6000803e3d6000fd5b505050506040513d601f19601f82011682018060405250810190612c9791906157f8565b6020015180612d1e5750600b546040516331a9108f60e11b815260016004820152339161010090046001600160a01b031690636352211e90602401602060405180830381865afa158015612cef573d6000803e3d6000fd5b505050506040513d601f19601f82011682018060405250810190612d13919061587c565b6001600160a01b0316145b612d3a5760405162461bcd60e51b8152600401610fec90615899565b6116b36000838361474b565b6001600160a01b03918216600090815260016020908152604080832093909416825291909152205490565b60405130904780156108fc02916000818181858888f193505050501580156107e6573d6000803e3d6000fd5b600080612da983613d54565b612db9610cf86020850185614fbd565b612df75760405162461bcd60e51b815260206004820152600f60248201526e27379039bab139b1b934b83a34b7b760891b6044820152606401610fec565b50506000828152601160209081526040808320546012909252909120545b9250929050565b60068181548110612e2c57600080fd5b6000918252602090912001546001600160a01b0316905081565b60006018546002612e5791906157d9565b612e6083610e6b565b610e2091906158f5565b6001600160a01b038116600090815260166020526040812060010154612e8e612c17565b10612e9a576000610e20565b600192915050565b80612eac82610e6b565b14612ec95760405162461bcd60e51b8152600401610fec906158ce565b601c5460ff1615612f055760405162461bcd60e51b81526020600482015260066024820152651c185d5cd95960d21b6044820152606401610fec565b612f0e42612e46565b811015612f525760405162461bcd60e51b81526020600482015260126024820152711d1bdbc81b185d19481d1bc81cdd589b5a5d60721b6044820152606401610fec565b604051828152819033907f1adf2f5dd35a2da881dc68ca4d293ab5f8c12b143741836d06e273a5dbf58c539060200160405180910390a3612f938133610eab565b1561302f57600081815260106020908152604080832033845290915290206001015482146130035760405162461bcd60e51b815260206004820152601760248201527f63616e6e6f74206d6f64696679207374616b6520616d740000000000000000006044820152606401610fec565b60009081526010602090815260408083203384529091529020805460ff19169215159290921790915550565b6040805160808101825284151581526020808201858152338385018181526000606086018181528882526010865287822093825292909452949092209251835460ff191690151517835551600183015591516002909101805492516001600160a01b039092166001600160a81b031990931692909217600160a01b91151591909102179055826130c05760006130c3565b60015b6130d09060ff16836157d9565b600082815260116020526040812080549091906130ee9084906158f5565b9091555050600081815260126020526040812080548492906131119084906158f5565b909155505060195461312e906001600160a01b03163330856147b3565b505050565b6001600160a01b0383166131955760405162461bcd60e51b8152602060048201526024808201527f45524332303a20617070726f76652066726f6d20746865207a65726f206164646044820152637265737360e01b6064820152608401610fec565b6001600160a01b0382166131f65760405162461bcd60e51b815260206004820152602260248201527f45524332303a20617070726f766520746f20746865207a65726f206164647265604482015261737360f01b6064820152608401610fec565b6001600160a01b0383811660008181526001602090815260408083209487168084529482529182902085905590518481527f8c5be1e5ebec7d5bd14f71427d1e84f3dd0314c0f7b2291e5b200ac8c7c3b925910160405180910390a3505050565b60006132638484612d46565b90506000198114610e6557818110156132be5760405162461bcd60e51b815260206004820152601d60248201527f45524332303a20696e73756666696369656e7420616c6c6f77616e63650000006044820152606401610fec565b610e658484848403613133565b6001600160a01b03831661332f5760405162461bcd60e51b815260206004820152602560248201527f45524332303a207472616e736665722066726f6d20746865207a65726f206164604482015264647265737360d81b6064820152608401610fec565b6001600160a01b0382166133915760405162461bcd60e51b815260206004820152602360248201527f45524332303a207472616e7366657220746f20746865207a65726f206164647260448201526265737360e81b6064820152608401610fec565b6001600160a01b038316600090815260208190526040902054818110156134095760405162461bcd60e51b815260206004820152602660248201527f45524332303a207472616e7366657220616d6f756e7420657863656564732062604482015265616c616e636560d01b6064820152608401610fec565b6001600160a01b03848116600081815260208181526040808320878703905593871680835291849020805487019055925185815290927fddf252ad1be2c89b69c2b068fc378daa952ba7f163c4a11628f55a4df523b3ef910160405180910390a3610e65565b6040516001600160a01b03831660248201526044810182905261312e90849063a9059cbb60e01b906064015b60408051601f198184030181529190526020810180516001600160e01b03166001600160e01b0319909316929092179091526147eb565b6001600160a01b03811660008181526005602052604090819020805460ff191681559051909133917fefa2735987005aaa89c050c0ff8cc9ae7d9079d19382081c429130f98c52d480906135329042904390918252602082015260400190565b60405180910390a36116b3826148bd565b6000610ea482846158f5565b6001600160a01b0382166135a55760405162461bcd60e51b815260206004820152601f60248201527f45524332303a206d696e7420746f20746865207a65726f2061646472657373006044820152606401610fec565b80600260008282546135b791906158f5565b90915550506001600160a01b038216600081815260208181526040808320805486019055518481527fddf252ad1be2c89b69c2b068fc378daa952ba7f163c4a11628f55a4df523b3ef910160405180910390a35050565b6001600160a01b03821661366e5760405162461bcd60e51b815260206004820152602160248201527f45524332303a206275726e2066726f6d20746865207a65726f206164647265736044820152607360f81b6064820152608401610fec565b6001600160a01b038216600090815260208190526040902054818110156136e25760405162461bcd60e51b815260206004820152602260248201527f45524332303a206275726e20616d6f756e7420657863656564732062616c616e604482015261636560f01b6064820152608401610fec565b6001600160a01b0383166000818152602081815260408083208686039055600280548790039055518581529192917fddf252ad1be2c89b69c2b068fc378daa952ba7f163c4a11628f55a4df523b3ef910160405180910390a3505050565b602154602054600091613752916158f5565b9050600080826001600160401b0381111561376f5761376f615309565b604051908082528060200260200182016040528015613798578160200160208202803683370190505b50905060005b602054811015613a7e576000602082815481106137bd576137bd615770565b6000918252602080832060029092029091015481546001600160a01b039091169350829182918591634c87087d91889081106137fb576137fb615770565b9060005260206000209060020201600101546040518263ffffffff1660e01b815260040161382b91815260200190565b61018060405180830381865afa158015613849573d6000803e3d6000fd5b505050506040513d601f19601f8201168201806040525081019061386d9190615b6b565b9b509b509b50505050505050505050600082111561391357836001600160a01b031663f32f9476602087815481106138a7576138a7615770565b906000526020600020906002020160010154846040518363ffffffff1660e01b81526004016138e0929190918252602082015260400190565b600060405180830381600087803b1580156138fa57600080fd5b505af115801561390e573d6000803e3d6000fd5b505050505b82156139a757836001600160a01b031663c612e48a6020878154811061393b5761393b615770565b906000526020600020906002020160010154856040518363ffffffff1660e01b8152600401613974929190918252602082015260400190565b600060405180830381600087803b15801561398e57600080fd5b505af11580156139a2573d6000803e3d6000fd5b505050505b6139ea602086815481106139bd576139bd615770565b600091825260208083206002909202909101546001600160a01b0316825260059052604090205460ff1690565b80156139f857506001811515145b15613a675760208581548110613a1057613a10615770565b600091825260209091206002909102015486516001600160a01b0390911690879089908110613a4157613a41615770565b6001600160a01b039092166020928302919091019091015286613a638161579c565b9750505b505050508080613a769061579c565b91505061379e565b613a86614a0b565b50600c80546001600160a01b031916905560005b82811015610e6557613ac4828281518110613ab757613ab7615770565b6020026020010151613c7e565b80613ace8161579c565b915050613a9a565b6040516370a0823160e01b81526001600160a01b038381166004830152600091908616906370a0823190602401602060405180830381865afa158015613b20573d6000803e3d6000fd5b505050506040513d601f19601f82011682018060405250810190613b449190615990565b9050613b5b6001600160a01b0386168585856147b3565b613b658183613543565b6040516370a0823160e01b81526001600160a01b0385811660048301528716906370a0823190602401602060405180830381865afa158015613bab573d6000803e3d6000fd5b505050506040513d601f19601f82011682018060405250810190613bcf9190615990565b1015613c1d5760405162461bcd60e51b815260206004820152601a60248201527f5472616e7366657220616d6f756e7420697320746f6f206c6f770000000000006044820152606401610fec565b5050505050565b60026007541415613c775760405162461bcd60e51b815260206004820152601f60248201527f5265656e7472616e637947756172643a207265656e7472616e742063616c6c006044820152606401610fec565b6002600755565b6001600160a01b038116156107e6576001600160a01b0381166000908152600560205260409020805460ff1615613cf75760405162461bcd60e51b815260206004820152601d60248201527f4552433230526f6c65733a2020414c52454144592041204d494e5445520000006044820152606401610fec565b805460ff19166001178155613d0b82614aba565b6040805142815243602082015233916001600160a01b038516917f4f7e100eb1ee13e903798bd0d6aa854152e07eb05544f392b9409c12935c8095910160405180910390a35050565b60408051808201909152601c81527f19457468657265756d205369676e6564204d6573736167653a0a3332000000006020808301919091526000908290613d9d90850185614fbd565b60405160609190911b6bffffffffffffffffffffffff191660208201526080850135603482015260540160405160208183030381529060405280519060200120604051602001613dee929190615c28565b6040516020818303038152906040528051906020012090506000600182856020016020810190613e1e9190615c4a565b6040805160008152602081018083529390935260ff90911682820152860135606080830191909152860135608082015260a0016020604051602081039080840390855afa158015613e73573d6000803e3d6000fd5b5050604051601f1901519150613e8e90506020850185614fbd565b6001600160a01b0316816001600160a01b031614613edd5760405162461bcd60e51b815260206004820152600c60248201526b092dcecc2d8d2c840c2eae8d60a31b6044820152606401610fec565b42846080013511610e655760405162461bcd60e51b8152602060048201526007602482015266115e1c1a5c995960ca1b6044820152606401610fec565b6000613f296020830183614fbd565b90506000806000836001600160a01b0316634c87087d86602001356040518263ffffffff1660e01b8152600401613f6291815260200190565b61018060405180830381865afa158015613f80573d6000803e3d6000fd5b505050506040513d601f19601f82011682018060405250810190613fa49190615b6b565b505050505050955050945050935050306001600160a01b0316836001600160a01b0316146140245760405162461bcd60e51b815260206004820152602760248201527f5468697320466978656452617465206973206e6f742070726f766964696e67206044820152661d1a1a5cc8111560ca1b6064820152608401610fec565b604051636e8de4b560e11b815260208601356004820152670de0b6b3a76400006024820152606086013560448201526000906001600160a01b0386169063dd1bc96a90606401608060405180830381865afa158015614087573d6000803e3d6000fd5b505050506040513d601f19601f820116820180604052508101906140ab9190615c6d565b505050905085604001358111156141145760405162461bcd60e51b815260206004820152602760248201527f46697865645261746545786368616e67653a20546f6f206d616e79206261736560448201526620746f6b656e7360c81b6064820152608401610fec565b61412083333084613ad6565b6141416141306020880188614fbd565b6001600160a01b0385169083614b71565b6001600160a01b0385166368c4b7e96020880135670de0b6b3a76400008461416f60a08c0160808d01614fbd565b6040516001600160e01b031960e087901b1681526004810194909452602484019290925260448301526001600160a01b031660648201526060890135608482015260a401600060405180830381600087803b1580156141cd57600080fd5b505af11580156141e1573d6000803e3d6000fd5b505030600090815260208190526040902054670de0b6b3a764000092509050101561424e5760405162461bcd60e51b815260206004820152601f60248201527f556e61626c6520746f206275792044542066726f6d20466978656452617465006044820152606401610fec565b604051634c87087d60e01b8152602087013560048201526000906001600160a01b03871690634c87087d9060240161018060405180830381865afa15801561429a573d6000803e3d6000fd5b505050506040513d601f19601f820116820180604052508101906142be9190615b6b565b509a50505050505050505050506000811115611ce257604051637997ca3b60e11b815260208801356004820152602481018290526001600160a01b0387169063f32f947690604401600060405180830381600087803b15801561432057600080fd5b505af1158015614334573d6000803e3d6000fd5b50505050611ce2614343612c17565b82614c23565b6000808460008151811061435f5761435f615770565b602002602001015190508460018151811061437c5761437c615770565b6020908102919091010151601f80546001600160a01b0319166001600160a01b0392831617905581166144065760405162461bcd60e51b815260206004820152602c60248201527f455243323054656d706c6174653a20496e76616c6964206d696e7465722c202060448201526b7a65726f206164647265737360a01b6064820152608401610fec565b601f546001600160a01b03166144725760405162461bcd60e51b815260206004820152602b60248201527f455243323054656d706c6174653a20496e76616c696420726f757465722c207a60448201526a65726f206164647265737360a81b6064820152608401610fec565b8360008151811061448557614485615770565b6020026020010151600014156144e95760405162461bcd60e51b8152602060048201526024808201527f44617461746f6b656e54656d706c6174653a20496e76616c6964206361702076604482015263616c756560e01b6064820152608401610fec565b836000815181106144fc576144fc615770565b6020026020010151600a819055508660008151811061451d5761451d615770565b60200260200101516008908051906020019061453a929190614ef5565b508660018151811061454e5761454e615770565b60200260200101516009908051906020019061456b929190614ef5565b50600b805460ff196001600160a01b03841661010002166001600160a81b031990911617600117905561459d30614d0d565b856002815181106145b0576145b0615770565b6020026020010151600d60006101000a8154816001600160a01b0302191690836001600160a01b03160217905550856003815181106145f1576145f1615770565b6020026020010151600e60006101000a8154816001600160a01b0302191690836001600160a01b031602179055508360018151811061463257614632615770565b602090810291909101810151600f819055600d54600e54604080513381526001600160a01b039384169581019590955291169083015260608201527f02ab4b3fc023109c2d0da394bda239166c833f63c42b71b67ed4b836dca0ddfe9060800160405180910390a16000469050866004815181106146b2576146b2615770565b6020026020010151601960006101000a8154816001600160a01b0302191690836001600160a01b03160217905550614739856002815181106146f6576146f6615770565b60200260200101518660038151811061471157614711615770565b60200260200101518760048151811061472c5761472c615770565b602002602001015161474b565b5050600b5460ff169695505050505050565b6018546147585760188390555b601a829055601b819055601854601954604080519283526020830185905282018390526001600160a01b031660608201527fc4526e958dc74330dcd6698fa6f869171a8c97b4036026118c263688264099d5906080016119aa565b6040516001600160a01b0380851660248301528316604482015260648101829052610e659085906323b872dd60e01b9060840161349b565b6000614840826040518060400160405280602081526020017f5361666545524332303a206c6f772d6c6576656c2063616c6c206661696c6564815250856001600160a01b0316614d689092919063ffffffff16565b80519091501561312e578080602001905181019061485e9190615ca3565b61312e5760405162461bcd60e51b815260206004820152602a60248201527f5361666545524332303a204552433230206f7065726174696f6e20646964206e6044820152691bdd081cdd58d8d9595960b21b6064820152608401610fec565b6001600160a01b0381166000908152600560205260409020805460ff161580156148ee57508054610100900460ff16155b156116b35760005b60065481101561494f57826001600160a01b03166006828154811061491d5761491d615770565b6000918252602090912001546001600160a01b0316141561493d5761494f565b806149478161579c565b9150506148f6565b60065481101561312e576006805461496990600190615b22565b8154811061497957614979615770565b600091825260209091200154600680546001600160a01b0390921691839081106149a5576149a5615770565b9060005260206000200160006101000a8154816001600160a01b0302191690836001600160a01b0316021790555060068054806149e4576149e4615cc0565b600082815260209020810160001990810180546001600160a01b0319169055019055505050565b60005b600654811015614a715760006005600060068481548110614a3157614a31615770565b60009182526020808320909101546001600160a01b031683528201929092526040019020805461ffff191690555080614a698161579c565b915050614a0e565b50614a7e60066000614f79565b6040805142815243602082015233917f712bc71db81927a76b8bf1ea346247bb0ad58f18e4e5c1bd4aa0ec6573e02a2b910160405180910390a2565b60005b600654811015614b1657816001600160a01b031660068281548110614ae457614ae4615770565b6000918252602090912001546001600160a01b03161415614b0457614b16565b80614b0e8161579c565b915050614abd565b6006548114156116b357600680546001810182556000919091527ff652222313e28459528d920b65115c16c04f3efc82aaedc97be59f3f377c0d3f0180546001600160a01b0384166001600160a01b03199091161790555050565b604051636eb1769f60e11b81523060048201526001600160a01b038381166024830152600091839186169063dd62ed3e90604401602060405180830381865afa158015614bc2573d6000803e3d6000fd5b505050506040513d601f19601f82011682018060405250810190614be69190615990565b614bf091906158f5565b6040516001600160a01b038516602482015260448101829052909150610e6590859063095ea7b360e01b9060640161349b565b80156116b3576000601854601a54614c3b91906157b7565b90506001811015614c4a575060015b6000614c5682846157b7565b905060005b82811015614cb557816015600060185484614c7691906157d9565b614c8090896158f5565b81526020019081526020016000206000828254614c9d91906158f5565b90915550819050614cad8161579c565b915050614c5b565b506018546040805185815260208101879052808201849052606081018590526080810192909252517f12246f3e621dc7f930e714f57b7328c069007c690cbe9f328090bd161e7ff3b69181900360a00190a150505050565b600c80546001600160a01b0319166001600160a01b0383169081179091556040805142815243602082015233917f4d7694d695c57cc54947177c8e8a0e61aae664e9223492a798c32fadfc6419cc910160405180910390a350565b6060614d778484600085614d7f565b949350505050565b606082471015614de05760405162461bcd60e51b815260206004820152602660248201527f416464726573733a20696e73756666696369656e742062616c616e636520666f6044820152651c8818d85b1b60d21b6064820152608401610fec565b600080866001600160a01b03168587604051614dfc9190615cd6565b60006040518083038185875af1925050503d8060008114614e39576040519150601f19603f3d011682016040523d82523d6000602084013e614e3e565b606091505b5091509150614e4f87838387614e5a565b979650505050505050565b60608315614ec6578251614ebf576001600160a01b0385163b614ebf5760405162461bcd60e51b815260206004820152601d60248201527f416464726573733a2063616c6c20746f206e6f6e2d636f6e74726163740000006044820152606401610fec565b5081614d77565b614d778383815115614edb5781518083602001fd5b8060405162461bcd60e51b8152600401610fec9190615006565b828054614f019061573b565b90600052602060002090601f016020900481019282614f235760008555614f69565b82601f10614f3c57805160ff1916838001178555614f69565b82800160010185558215614f69579182015b82811115614f69578251825591602001919060010190614f4e565b50614f75929150614f93565b5090565b50805460008255906000526020600020908101906107e691905b5b80821115614f755760008155600101614f94565b6001600160a01b03811681146107e657600080fd5b600060208284031215614fcf57600080fd5b8135610ea481614fa8565b60005b83811015614ff5578181015183820152602001614fdd565b83811115610e655750506000910152565b6020815260008251806020840152615025816040850160208701614fda565b601f01601f19169190910160400192915050565b6000806040838503121561504c57600080fd5b823561505781614fa8565b946020939093013593505050565b60008083601f84011261507757600080fd5b5081356001600160401b0381111561508e57600080fd5b6020830191508360208260051b8501011115612e1557600080fd5b6000806000604084860312156150be57600080fd5b83356001600160401b038111156150d457600080fd5b6150e086828701615065565b90945092505060208401356150f481614fa8565b809150509250925092565b60006020828403121561511157600080fd5b5035919050565b60008060006060848603121561512d57600080fd5b833561513881614fa8565b9250602084013561514881614fa8565b929592945050506040919091013590565b6000806040838503121561516c57600080fd5b82359150602083013561517e81614fa8565b809150509250929050565b80151581146107e657600080fd5b600080600080608085870312156151ad57600080fd5b8435935060208501356151bf81615189565b92506040850135915060608501356151d681615189565b939692955090935050565b600081518084526020808501945080840160005b8381101561521a5781516001600160a01b0316875295820195908201906001016151f5565b509495945050505050565b602081526000610ea460208301846151e1565b60008060008084860360c081121561524f57600080fd5b853561525a81614fa8565b94506020860135935060408601356001600160401b0381111561527c57600080fd5b8601610100818903121561528f57600080fd5b92506060605f19820112156152a357600080fd5b509295919450926060019150565b602080825282518282018190526000919060409081850190868401855b828110156152fc57815180516001600160a01b031685528601518685015292840192908501906001016152ce565b5091979650505050505050565b634e487b7160e01b600052604160045260246000fd5b604051601f8201601f191681016001600160401b038111828210171561534757615347615309565b604052919050565b60006001600160401b0382111561536857615368615309565b5060051b60200190565b600082601f83011261538357600080fd5b813560206153986153938361534f565b61531f565b82815260059290921b840181019181810190868411156153b757600080fd5b8286015b848110156153d257803583529183019183016153bb565b509695505050505050565b6000806000606084860312156153f257600080fd5b83356153fd81614fa8565b92506020848101356001600160401b038082111561541a57600080fd5b818701915087601f83011261542e57600080fd5b813561543c6153938261534f565b81815260059190911b8301840190848101908a83111561545b57600080fd5b938501935b8285101561548257843561547381614fa8565b82529385019390850190615460565b96505050604087013592508083111561549a57600080fd5b50506154a886828701615372565b9150509250925092565b600060a082840312156154c457600080fd5b50919050565b600080600060e084860312156154df57600080fd5b8335925060208401356154f181614fa8565b915061550085604086016154b2565b90509250925092565b60008060c0838503121561551c57600080fd5b82356001600160401b0381111561553257600080fd5b830160c0818603121561554457600080fd5b915061555384602085016154b2565b90509250929050565b60008060008060008060008060008060a08b8d03121561557b57600080fd5b8a356001600160401b038082111561559257600080fd5b61559e8e838f01615065565b909c509a5060208d01359150808211156155b757600080fd5b6155c38e838f01615065565b909a50985060408d01359150808211156155dc57600080fd5b6155e88e838f01615065565b909850965060608d013591508082111561560157600080fd5b61560d8e838f01615065565b909650945060808d013591508082111561562657600080fd5b506156338d828e01615065565b915080935050809150509295989b9194979a5092959850565b6000806040838503121561565f57600080fd5b50508035926020909101359150565b6000806040838503121561568157600080fd5b823561568c81614fa8565b9150602083013561517e81614fa8565b60008060c083850312156156af57600080fd5b8235915061555384602085016154b2565b634e487b7160e01b600052602160045260246000fd5b600381106156f457634e487b7160e01b600052602160045260246000fd5b9052565b60208101610e2082846156d6565b60008060006060848603121561571b57600080fd5b833561572681615189565b95602085013595506040909401359392505050565b600181811c9082168061574f57607f821691505b602082108114156154c457634e487b7160e01b600052602260045260246000fd5b634e487b7160e01b600052603260045260246000fd5b634e487b7160e01b600052601160045260246000fd5b60006000198214156157b0576157b0615786565b5060010190565b6000826157d457634e487b7160e01b600052601260045260246000fd5b500490565b60008160001904831182151516156157f3576157f3615786565b500290565b60006080828403121561580a57600080fd5b604051608081018181106001600160401b038211171561582c5761582c615309565b604052825161583a81615189565b8152602083015161584a81615189565b6020820152604083015161585d81615189565b6040820152606083015161587081615189565b60608201529392505050565b60006020828403121561588e57600080fd5b8151610ea481614fa8565b6020808252818101527f455243323054656d706c6174653a204e4f54204445504c4f59455220524f4c45604082015260600190565b6020808252600d908201526c0d2dcecc2d8d2c840cae0dec6d609b1b604082015260600190565b6000821982111561590857615908615786565b500190565b83151581526020810183905260608101614d7760408301846156d6565b6001600160a01b03841681526060602080830182905260009161594f908401866151e1565b838103604085015284518082528286019183019060005b8181101561598257835183529284019291840191600101615966565b509098975050505050505050565b6000602082840312156159a257600080fd5b5051919050565b6000823560fe198336030181126159bf57600080fd5b9190910192915050565b60006001600160401b038311156159e2576159e2615309565b6159f5601f8401601f191660200161531f565b9050828152838383011115615a0957600080fd5b828260208301376000602084830101529392505050565b6000615a2e6153938461534f565b80848252602080830192508560051b850136811115615a4c57600080fd5b855b81811015615a9b5780356001600160401b03811115615a6d5760008081fd5b870136601f820112615a7f5760008081fd5b615a8d3682358684016159c9565b865250938201938201615a4e565b50919695505050505050565b6000615ab56153938461534f565b80848252602080830192508560051b850136811115615ad357600080fd5b855b81811015615a9b5780356001600160401b03811115615af45760008081fd5b870136601f820112615b065760008081fd5b615b143682358684016159c9565b865250938201938201615ad5565b600082821015615b3457615b34615786565b500390565b86815260208101869052841515604082015283151560608201526080810183905260c08101614e4f60a08301846156d6565b6000806000806000806000806000806000806101808d8f031215615b8e57600080fd5b8c51615b9981614fa8565b60208e0151909c50615baa81614fa8565b60408e015160608f0151919c509a50615bc281614fa8565b8099505060808d0151975060a08d0151965060c08d0151615be281615189565b8096505060e08d015194506101008d015193506101208d015192506101408d015191506101608d0151615c1481615189565b809150509295989b509295989b509295989b565b60008351615c3a818460208801614fda565b9190910191825250602001919050565b600060208284031215615c5c57600080fd5b813560ff81168114610ea457600080fd5b60008060008060808587031215615c8357600080fd5b505082516020840151604085015160609095015191969095509092509050565b600060208284031215615cb557600080fd5b8151610ea481615189565b634e487b7160e01b600052603160045260246000fd5b600082516159bf818460208701614fda56fea2646970667358221220478de72d84dce1f380afbeb44ff468c14dae1e8e24c7317472f823bbcb11a30364736f6c634300080c0033",
  "linkReferences": {},
  "deployedLinkReferences": {}
}