{
  "_format": "hh-sol-artifact-1",
  "contractName": "EToken",
  "sourceName": "contracts/EToken.sol",
  "abi": [
    {
      "inputs": [
        {
          "internalType": "contract IPolicyPool",
          "name": "policyPool_",
          "type": "address"
        }
      ],
      "stateMutability": "nonpayable",
      "type": "constructor"
    },
    {
      "anonymous": false,
      "inputs": [
        {
          "indexed": false,
          "internalType": "address",
          "name": "previousAdmin",
          "type": "address"
        },
        {
          "indexed": false,
          "internalType": "address",
          "name": "newAdmin",
          "type": "address"
        }
      ],
      "name": "AdminChanged",
      "type": "event"
    },
    {
      "anonymous": false,
      "inputs": [
        {
          "indexed": true,
          "internalType": "address",
          "name": "owner",
          "type": "address"
        },
        {
          "indexed": true,
          "internalType": "address",
          "name": "spender",
          "type": "address"
        },
        {
          "indexed": false,
          "internalType": "uint256",
          "name": "value",
          "type": "uint256"
        }
      ],
      "name": "Approval",
      "type": "event"
    },
    {
      "anonymous": false,
      "inputs": [
        {
          "indexed": true,
          "internalType": "address",
          "name": "beacon",
          "type": "address"
        }
      ],
      "name": "BeaconUpgraded",
      "type": "event"
    },
    {
      "anonymous": false,
      "inputs": [
        {
          "indexed": true,
          "internalType": "enum IAccessManager.GovernanceActions",
          "name": "action",
          "type": "uint8"
        },
        {
          "indexed": false,
          "internalType": "address",
          "name": "value",
          "type": "address"
        }
      ],
      "name": "ComponentChanged",
      "type": "event"
    },
    {
      "anonymous": false,
      "inputs": [
        {
          "indexed": true,
          "internalType": "enum IAccessManager.GovernanceActions",
          "name": "action",
          "type": "uint8"
        },
        {
          "indexed": false,
          "internalType": "uint256",
          "name": "value",
          "type": "uint256"
        }
      ],
      "name": "GovernanceAction",
      "type": "event"
    },
    {
      "anonymous": false,
      "inputs": [
        {
          "indexed": false,
          "internalType": "uint8",
          "name": "version",
          "type": "uint8"
        }
      ],
      "name": "Initialized",
      "type": "event"
    },
    {
      "anonymous": false,
      "inputs": [
        {
          "indexed": true,
          "internalType": "address",
          "name": "borrower",
          "type": "address"
        }
      ],
      "name": "InternalBorrowerAdded",
      "type": "event"
    },
    {
      "anonymous": false,
      "inputs": [
        {
          "indexed": true,
          "internalType": "address",
          "name": "borrower",
          "type": "address"
        },
        {
          "indexed": false,
          "internalType": "uint256",
          "name": "defaultedDebt",
          "type": "uint256"
        }
      ],
      "name": "InternalBorrowerRemoved",
      "type": "event"
    },
    {
      "anonymous": false,
      "inputs": [
        {
          "indexed": true,
          "internalType": "address",
          "name": "borrower",
          "type": "address"
        },
        {
          "indexed": false,
          "internalType": "uint256",
          "name": "value",
          "type": "uint256"
        },
        {
          "indexed": false,
          "internalType": "uint256",
          "name": "amountAsked",
          "type": "uint256"
        }
      ],
      "name": "InternalLoan",
      "type": "event"
    },
    {
      "anonymous": false,
      "inputs": [
        {
          "indexed": true,
          "internalType": "address",
          "name": "borrower",
          "type": "address"
        },
        {
          "indexed": false,
          "internalType": "uint256",
          "name": "value",
          "type": "uint256"
        }
      ],
      "name": "InternalLoanRepaid",
      "type": "event"
    },
    {
      "anonymous": false,
      "inputs": [
        {
          "indexed": false,
          "internalType": "address",
          "name": "account",
          "type": "address"
        }
      ],
      "name": "Paused",
      "type": "event"
    },
    {
      "anonymous": false,
      "inputs": [
        {
          "indexed": false,
          "internalType": "uint256",
          "name": "interestRate",
          "type": "uint256"
        },
        {
          "indexed": false,
          "internalType": "uint256",
          "name": "value",
          "type": "uint256"
        }
      ],
      "name": "SCRLocked",
      "type": "event"
    },
    {
      "anonymous": false,
      "inputs": [
        {
          "indexed": false,
          "internalType": "uint256",
          "name": "interestRate",
          "type": "uint256"
        },
        {
          "indexed": false,
          "internalType": "uint256",
          "name": "value",
          "type": "uint256"
        }
      ],
      "name": "SCRUnlocked",
      "type": "event"
    },
    {
      "anonymous": false,
      "inputs": [
        {
          "indexed": true,
          "internalType": "address",
          "name": "from",
          "type": "address"
        },
        {
          "indexed": true,
          "internalType": "address",
          "name": "to",
          "type": "address"
        },
        {
          "indexed": false,
          "internalType": "uint256",
          "name": "value",
          "type": "uint256"
        }
      ],
      "name": "Transfer",
      "type": "event"
    },
    {
      "anonymous": false,
      "inputs": [
        {
          "indexed": false,
          "internalType": "address",
          "name": "account",
          "type": "address"
        }
      ],
      "name": "Unpaused",
      "type": "event"
    },
    {
      "anonymous": false,
      "inputs": [
        {
          "indexed": true,
          "internalType": "address",
          "name": "implementation",
          "type": "address"
        }
      ],
      "name": "Upgraded",
      "type": "event"
    },
    {
      "inputs": [],
      "name": "GUARDIAN_ROLE",
      "outputs": [
        {
          "internalType": "bytes32",
          "name": "",
          "type": "bytes32"
        }
      ],
      "stateMutability": "view",
      "type": "function"
    },
    {
      "inputs": [],
      "name": "LEVEL1_ROLE",
      "outputs": [
        {
          "internalType": "bytes32",
          "name": "",
          "type": "bytes32"
        }
      ],
      "stateMutability": "view",
      "type": "function"
    },
    {
      "inputs": [],
      "name": "LEVEL2_ROLE",
      "outputs": [
        {
          "internalType": "bytes32",
          "name": "",
          "type": "bytes32"
        }
      ],
      "stateMutability": "view",
      "type": "function"
    },
    {
      "inputs": [],
      "name": "LEVEL3_ROLE",
      "outputs": [
        {
          "internalType": "bytes32",
          "name": "",
          "type": "bytes32"
        }
      ],
      "stateMutability": "view",
      "type": "function"
    },
    {
      "inputs": [],
      "name": "TWEAK_EXPIRATION",
      "outputs": [
        {
          "internalType": "uint40",
          "name": "",
          "type": "uint40"
        }
      ],
      "stateMutability": "view",
      "type": "function"
    },
    {
      "inputs": [
        {
          "internalType": "address",
          "name": "borrower",
          "type": "address"
        }
      ],
      "name": "addBorrower",
      "outputs": [],
      "stateMutability": "nonpayable",
      "type": "function"
    },
    {
      "inputs": [
        {
          "internalType": "address",
          "name": "owner",
          "type": "address"
        },
        {
          "internalType": "address",
          "name": "spender",
          "type": "address"
        }
      ],
      "name": "allowance",
      "outputs": [
        {
          "internalType": "uint256",
          "name": "",
          "type": "uint256"
        }
      ],
      "stateMutability": "view",
      "type": "function"
    },
    {
      "inputs": [
        {
          "internalType": "address",
          "name": "spender",
          "type": "address"
        },
        {
          "internalType": "uint256",
          "name": "amount",
          "type": "uint256"
        }
      ],
      "name": "approve",
      "outputs": [
        {
          "internalType": "bool",
          "name": "",
          "type": "bool"
        }
      ],
      "stateMutability": "nonpayable",
      "type": "function"
    },
    {
      "inputs": [],
      "name": "assetManager",
      "outputs": [
        {
          "internalType": "contract IAssetManager",
          "name": "",
          "type": "address"
        }
      ],
      "stateMutability": "view",
      "type": "function"
    },
    {
      "inputs": [
        {
          "internalType": "address",
          "name": "account",
          "type": "address"
        }
      ],
      "name": "balanceOf",
      "outputs": [
        {
          "internalType": "uint256",
          "name": "",
          "type": "uint256"
        }
      ],
      "stateMutability": "view",
      "type": "function"
    },
    {
      "inputs": [],
      "name": "checkpoint",
      "outputs": [],
      "stateMutability": "nonpayable",
      "type": "function"
    },
    {
      "inputs": [],
      "name": "currency",
      "outputs": [
        {
          "internalType": "contract IERC20Metadata",
          "name": "",
          "type": "address"
        }
      ],
      "stateMutability": "view",
      "type": "function"
    },
    {
      "inputs": [],
      "name": "decimals",
      "outputs": [
        {
          "internalType": "uint8",
          "name": "",
          "type": "uint8"
        }
      ],
      "stateMutability": "view",
      "type": "function"
    },
    {
      "inputs": [
        {
          "internalType": "address",
          "name": "spender",
          "type": "address"
        },
        {
          "internalType": "uint256",
          "name": "subtractedValue",
          "type": "uint256"
        }
      ],
      "name": "decreaseAllowance",
      "outputs": [
        {
          "internalType": "bool",
          "name": "",
          "type": "bool"
        }
      ],
      "stateMutability": "nonpayable",
      "type": "function"
    },
    {
      "inputs": [
        {
          "internalType": "address",
          "name": "provider",
          "type": "address"
        },
        {
          "internalType": "uint256",
          "name": "amount",
          "type": "uint256"
        }
      ],
      "name": "deposit",
      "outputs": [
        {
          "internalType": "uint256",
          "name": "",
          "type": "uint256"
        }
      ],
      "stateMutability": "nonpayable",
      "type": "function"
    },
    {
      "inputs": [
        {
          "internalType": "bytes",
          "name": "functionCall",
          "type": "bytes"
        }
      ],
      "name": "forwardToAssetManager",
      "outputs": [
        {
          "internalType": "bytes",
          "name": "",
          "type": "bytes"
        }
      ],
      "stateMutability": "nonpayable",
      "type": "function"
    },
    {
      "inputs": [],
      "name": "fundsAvailable",
      "outputs": [
        {
          "internalType": "uint256",
          "name": "",
          "type": "uint256"
        }
      ],
      "stateMutability": "view",
      "type": "function"
    },
    {
      "inputs": [],
      "name": "fundsAvailableToLock",
      "outputs": [
        {
          "internalType": "uint256",
          "name": "",
          "type": "uint256"
        }
      ],
      "stateMutability": "view",
      "type": "function"
    },
    {
      "inputs": [
        {
          "internalType": "bool",
          "name": "updated",
          "type": "bool"
        }
      ],
      "name": "getCurrentScale",
      "outputs": [
        {
          "internalType": "uint256",
          "name": "",
          "type": "uint256"
        }
      ],
      "stateMutability": "view",
      "type": "function"
    },
    {
      "inputs": [
        {
          "internalType": "address",
          "name": "borrower",
          "type": "address"
        }
      ],
      "name": "getLoan",
      "outputs": [
        {
          "internalType": "uint256",
          "name": "",
          "type": "uint256"
        }
      ],
      "stateMutability": "view",
      "type": "function"
    },
    {
      "inputs": [
        {
          "internalType": "address",
          "name": "user",
          "type": "address"
        }
      ],
      "name": "getScaledUserBalanceAndSupply",
      "outputs": [
        {
          "internalType": "uint256",
          "name": "",
          "type": "uint256"
        },
        {
          "internalType": "uint256",
          "name": "",
          "type": "uint256"
        }
      ],
      "stateMutability": "view",
      "type": "function"
    },
    {
      "inputs": [
        {
          "internalType": "address",
          "name": "spender",
          "type": "address"
        },
        {
          "internalType": "uint256",
          "name": "addedValue",
          "type": "uint256"
        }
      ],
      "name": "increaseAllowance",
      "outputs": [
        {
          "internalType": "bool",
          "name": "",
          "type": "bool"
        }
      ],
      "stateMutability": "nonpayable",
      "type": "function"
    },
    {
      "inputs": [
        {
          "internalType": "string",
          "name": "name_",
          "type": "string"
        },
        {
          "internalType": "string",
          "name": "symbol_",
          "type": "string"
        },
        {
          "internalType": "uint256",
          "name": "maxUtilizationRate_",
          "type": "uint256"
        },
        {
          "internalType": "uint256",
          "name": "internalLoanInterestRate_",
          "type": "uint256"
        }
      ],
      "name": "initialize",
      "outputs": [],
      "stateMutability": "nonpayable",
      "type": "function"
    },
    {
      "inputs": [
        {
          "internalType": "uint256",
          "name": "amount",
          "type": "uint256"
        },
        {
          "internalType": "address",
          "name": "receiver",
          "type": "address"
        }
      ],
      "name": "internalLoan",
      "outputs": [
        {
          "internalType": "uint256",
          "name": "",
          "type": "uint256"
        }
      ],
      "stateMutability": "nonpayable",
      "type": "function"
    },
    {
      "inputs": [],
      "name": "internalLoanInterestRate",
      "outputs": [
        {
          "internalType": "uint256",
          "name": "",
          "type": "uint256"
        }
      ],
      "stateMutability": "view",
      "type": "function"
    },
    {
      "inputs": [],
      "name": "lastTweak",
      "outputs": [
        {
          "internalType": "uint40",
          "name": "",
          "type": "uint40"
        },
        {
          "internalType": "uint56",
          "name": "",
          "type": "uint56"
        }
      ],
      "stateMutability": "view",
      "type": "function"
    },
    {
      "inputs": [],
      "name": "liquidityRequirement",
      "outputs": [
        {
          "internalType": "uint256",
          "name": "",
          "type": "uint256"
        }
      ],
      "stateMutability": "view",
      "type": "function"
    },
    {
      "inputs": [
        {
          "internalType": "uint256",
          "name": "scrAmount",
          "type": "uint256"
        },
        {
          "internalType": "uint256",
          "name": "policyInterestRate",
          "type": "uint256"
        }
      ],
      "name": "lockScr",
      "outputs": [],
      "stateMutability": "nonpayable",
      "type": "function"
    },
    {
      "inputs": [],
      "name": "maxNegativeAdjustment",
      "outputs": [
        {
          "internalType": "uint256",
          "name": "",
          "type": "uint256"
        }
      ],
      "stateMutability": "view",
      "type": "function"
    },
    {
      "inputs": [],
      "name": "maxUtilizationRate",
      "outputs": [
        {
          "internalType": "uint256",
          "name": "",
          "type": "uint256"
        }
      ],
      "stateMutability": "view",
      "type": "function"
    },
    {
      "inputs": [],
      "name": "minUtilizationRate",
      "outputs": [
        {
          "internalType": "uint256",
          "name": "",
          "type": "uint256"
        }
      ],
      "stateMutability": "view",
      "type": "function"
    },
    {
      "inputs": [],
      "name": "name",
      "outputs": [
        {
          "internalType": "string",
          "name": "",
          "type": "string"
        }
      ],
      "stateMutability": "view",
      "type": "function"
    },
    {
      "inputs": [],
      "name": "pause",
      "outputs": [],
      "stateMutability": "nonpayable",
      "type": "function"
    },
    {
      "inputs": [],
      "name": "paused",
      "outputs": [
        {
          "internalType": "bool",
          "name": "",
          "type": "bool"
        }
      ],
      "stateMutability": "view",
      "type": "function"
    },
    {
      "inputs": [],
      "name": "policyPool",
      "outputs": [
        {
          "internalType": "contract IPolicyPool",
          "name": "",
          "type": "address"
        }
      ],
      "stateMutability": "view",
      "type": "function"
    },
    {
      "inputs": [],
      "name": "proxiableUUID",
      "outputs": [
        {
          "internalType": "bytes32",
          "name": "",
          "type": "bytes32"
        }
      ],
      "stateMutability": "view",
      "type": "function"
    },
    {
      "inputs": [],
      "name": "rebalance",
      "outputs": [],
      "stateMutability": "nonpayable",
      "type": "function"
    },
    {
      "inputs": [],
      "name": "recordEarnings",
      "outputs": [],
      "stateMutability": "nonpayable",
      "type": "function"
    },
    {
      "inputs": [
        {
          "internalType": "address",
          "name": "borrower",
          "type": "address"
        }
      ],
      "name": "removeBorrower",
      "outputs": [],
      "stateMutability": "nonpayable",
      "type": "function"
    },
    {
      "inputs": [
        {
          "internalType": "uint256",
          "name": "amount",
          "type": "uint256"
        },
        {
          "internalType": "address",
          "name": "onBehalfOf",
          "type": "address"
        }
      ],
      "name": "repayLoan",
      "outputs": [],
      "stateMutability": "nonpayable",
      "type": "function"
    },
    {
      "inputs": [
        {
          "internalType": "address",
          "name": "user",
          "type": "address"
        }
      ],
      "name": "scaledBalanceOf",
      "outputs": [
        {
          "internalType": "uint256",
          "name": "",
          "type": "uint256"
        }
      ],
      "stateMutability": "view",
      "type": "function"
    },
    {
      "inputs": [],
      "name": "scaledTotalSupply",
      "outputs": [
        {
          "internalType": "uint256",
          "name": "",
          "type": "uint256"
        }
      ],
      "stateMutability": "view",
      "type": "function"
    },
    {
      "inputs": [],
      "name": "scr",
      "outputs": [
        {
          "internalType": "uint256",
          "name": "",
          "type": "uint256"
        }
      ],
      "stateMutability": "view",
      "type": "function"
    },
    {
      "inputs": [],
      "name": "scrInterestRate",
      "outputs": [
        {
          "internalType": "uint256",
          "name": "",
          "type": "uint256"
        }
      ],
      "stateMutability": "view",
      "type": "function"
    },
    {
      "inputs": [
        {
          "internalType": "contract IAssetManager",
          "name": "newAM",
          "type": "address"
        },
        {
          "internalType": "bool",
          "name": "force",
          "type": "bool"
        }
      ],
      "name": "setAssetManager",
      "outputs": [],
      "stateMutability": "nonpayable",
      "type": "function"
    },
    {
      "inputs": [
        {
          "internalType": "enum IEToken.Parameter",
          "name": "param",
          "type": "uint8"
        },
        {
          "internalType": "uint256",
          "name": "newValue",
          "type": "uint256"
        }
      ],
      "name": "setParam",
      "outputs": [],
      "stateMutability": "nonpayable",
      "type": "function"
    },
    {
      "inputs": [
        {
          "internalType": "contract ILPWhitelist",
          "name": "lpWhitelist_",
          "type": "address"
        }
      ],
      "name": "setWhitelist",
      "outputs": [],
      "stateMutability": "nonpayable",
      "type": "function"
    },
    {
      "inputs": [
        {
          "internalType": "bytes4",
          "name": "interfaceId",
          "type": "bytes4"
        }
      ],
      "name": "supportsInterface",
      "outputs": [
        {
          "internalType": "bool",
          "name": "",
          "type": "bool"
        }
      ],
      "stateMutability": "view",
      "type": "function"
    },
    {
      "inputs": [],
      "name": "symbol",
      "outputs": [
        {
          "internalType": "string",
          "name": "",
          "type": "string"
        }
      ],
      "stateMutability": "view",
      "type": "function"
    },
    {
      "inputs": [],
      "name": "tokenInterestRate",
      "outputs": [
        {
          "internalType": "uint256",
          "name": "",
          "type": "uint256"
        }
      ],
      "stateMutability": "view",
      "type": "function"
    },
    {
      "inputs": [],
      "name": "totalSupply",
      "outputs": [
        {
          "internalType": "uint256",
          "name": "",
          "type": "uint256"
        }
      ],
      "stateMutability": "view",
      "type": "function"
    },
    {
      "inputs": [],
      "name": "totalWithdrawable",
      "outputs": [
        {
          "internalType": "uint256",
          "name": "",
          "type": "uint256"
        }
      ],
      "stateMutability": "view",
      "type": "function"
    },
    {
      "inputs": [
        {
          "internalType": "address",
          "name": "recipient",
          "type": "address"
        },
        {
          "internalType": "uint256",
          "name": "amount",
          "type": "uint256"
        }
      ],
      "name": "transfer",
      "outputs": [
        {
          "internalType": "bool",
          "name": "",
          "type": "bool"
        }
      ],
      "stateMutability": "nonpayable",
      "type": "function"
    },
    {
      "inputs": [
        {
          "internalType": "address",
          "name": "sender",
          "type": "address"
        },
        {
          "internalType": "address",
          "name": "recipient",
          "type": "address"
        },
        {
          "internalType": "uint256",
          "name": "amount",
          "type": "uint256"
        }
      ],
      "name": "transferFrom",
      "outputs": [
        {
          "internalType": "bool",
          "name": "",
          "type": "bool"
        }
      ],
      "stateMutability": "nonpayable",
      "type": "function"
    },
    {
      "inputs": [
        {
          "internalType": "uint256",
          "name": "scrAmount",
          "type": "uint256"
        },
        {
          "internalType": "uint256",
          "name": "policyInterestRate",
          "type": "uint256"
        },
        {
          "internalType": "int256",
          "name": "adjustment",
          "type": "int256"
        }
      ],
      "name": "unlockScr",
      "outputs": [],
      "stateMutability": "nonpayable",
      "type": "function"
    },
    {
      "inputs": [],
      "name": "unpause",
      "outputs": [],
      "stateMutability": "nonpayable",
      "type": "function"
    },
    {
      "inputs": [
        {
          "internalType": "address",
          "name": "newImplementation",
          "type": "address"
        }
      ],
      "name": "upgradeTo",
      "outputs": [],
      "stateMutability": "nonpayable",
      "type": "function"
    },
    {
      "inputs": [
        {
          "internalType": "address",
          "name": "newImplementation",
          "type": "address"
        },
        {
          "internalType": "bytes",
          "name": "data",
          "type": "bytes"
        }
      ],
      "name": "upgradeToAndCall",
      "outputs": [],
      "stateMutability": "payable",
      "type": "function"
    },
    {
      "inputs": [],
      "name": "utilizationRate",
      "outputs": [
        {
          "internalType": "uint256",
          "name": "",
          "type": "uint256"
        }
      ],
      "stateMutability": "view",
      "type": "function"
    },
    {
      "inputs": [],
      "name": "whitelist",
      "outputs": [
        {
          "internalType": "contract ILPWhitelist",
          "name": "",
          "type": "address"
        }
      ],
      "stateMutability": "view",
      "type": "function"
    },
    {
      "inputs": [
        {
          "internalType": "address",
          "name": "provider",
          "type": "address"
        },
        {
          "internalType": "uint256",
          "name": "amount",
          "type": "uint256"
        }
      ],
      "name": "withdraw",
      "outputs": [
        {
          "internalType": "uint256",
          "name": "",
          "type": "uint256"
        }
      ],
      "stateMutability": "nonpayable",
      "type": "function"
    }
  ],
  "bytecode": "0x60e0604052306080523480156200001557600080fd5b50604051620063bc380380620063bc8339810160408190526200003891620002a8565b80806001600160a01b038116620000bc5760405162461bcd60e51b815260206004820152603660248201527f506f6c696379506f6f6c436f6d706f6e656e743a20706f6c696379506f6f6c2060448201527f63616e6e6f74206265207a65726f20616464726573730000000000000000000060648201526084015b60405180910390fd5b620000c6620001d1565b806001600160a01b031660a0816001600160a01b031681525050506002816001600160a01b031663e5a6b10f6040518163ffffffff1660e01b8152600401602060405180830381865afa15801562000122573d6000803e3d6000fd5b505050506040513d601f19601f82011682018060405250810190620001489190620002a8565b6001600160a01b031663313ce5676040518163ffffffff1660e01b8152600401602060405180830381865afa15801562000186573d6000803e3d6000fd5b505050506040513d601f19601f82011682018060405250810190620001ac9190620002cf565b620001b891906200030a565b620001c590600a6200043a565b60c052506200044b9050565b600054610100900460ff16156200023b5760405162461bcd60e51b815260206004820152602760248201527f496e697469616c697a61626c653a20636f6e747261637420697320696e697469604482015266616c697a696e6760c81b6064820152608401620000b3565b60005460ff908116146200028d576000805460ff191660ff9081179091556040519081527f7f26b83ff96e1f2b6a682f133852f6798a09c465da95921460cefb38474024989060200160405180910390a15b565b6001600160a01b0381168114620002a557600080fd5b50565b600060208284031215620002bb57600080fd5b8151620002c8816200028f565b9392505050565b600060208284031215620002e257600080fd5b815160ff81168114620002c857600080fd5b634e487b7160e01b600052601160045260246000fd5b600060ff8316806200032c57634e487b7160e01b600052601260045260246000fd5b8060ff84160491505092915050565b600181815b808511156200037c578160001904821115620003605762000360620002f4565b808516156200036e57918102915b93841c939080029062000340565b509250929050565b600082620003955750600162000434565b81620003a45750600062000434565b8160018114620003bd5760028114620003c857620003e8565b600191505062000434565b60ff841115620003dc57620003dc620002f4565b50506001821b62000434565b5060208310610133831016604e8410600b84101617156200040d575081810a62000434565b6200041983836200033b565b8060001904821115620004305762000430620002f4565b0290505b92915050565b6000620002c860ff84168362000384565b60805160a05160c051615eb56200050760003960006144630152600081816106a501528181610d2001528181610e5b01528181611090015281816111850152818161178f01528181611b7201528181611c7c01528181611d730152818161234e0152818161290c01528181612ce401528181612dd501528181612e74015281816134d4015281816140cb01526147f8015260008181610f7101528181610fba01528181611383015281816113c301526114f30152615eb56000f3fe6080604052600436106103a25760003560e01c806370a08231116101e7578063a9059cbb1161010d578063d80359f1116100a0578063e5a6b10f1161006f578063e5a6b10f14610af5578063ee01a18314610b0a578063f3fef3a314610b1f578063f67b2bad14610b3f57600080fd5b8063d80359f114610a80578063dd62ed3e14610aa0578063dfcb48bd14610ac0578063e3a8e29c14610ad557600080fd5b8063c1cca2b3116100dc578063c1cca2b314610a16578063c2c4c5c114610a36578063c3df9dac14610a4b578063cda4bcc214610a6b57600080fd5b8063a9059cbb1461099b578063b1081ccf146109bb578063b1bf962d146109db578063ba4e8df514610a0157600080fd5b8063854cff2f1161018557806395d89b411161015457806395d89b411461092b5780639d90724d14610940578063a08f220314610966578063a457c2d71461097b57600080fd5b8063854cff2f146108a6578063918344d3146108c657806393e59dc1146108e657806394217ad11461090c57600080fd5b80637d7c2a1c116101c15780637d7c2a1c1461082f5780637ed5acfa14610844578063837c83a3146108715780638456cb591461089157600080fd5b806370a08231146107cf57806376c7fc55146107ef57806379d989fb1461080f57600080fd5b806339509351116102cc5780634f1ef2861161026a5780635c975abb116102395780635c975abb146107635780636c321c8a1461077b5780636c6f4542146107905780636fe0e395146107af57600080fd5b80634f1ef286146106f25780634fe0bd1e1461070557806352d1902d1461071a5780635b494dd51461072f57600080fd5b806347e7ef24116102a657806347e7ef24146106545780634a47a3e0146106745780634d15eb03146106965780634eb978a4146106dd57600080fd5b806339509351146105e55780633f4ba83a14610605578063468a8c9f1461061a57600080fd5b806318160ddd1161034457806324ea54f41161031357806324ea54f41461055a578063313ce5671461057c57806333481fc9146105a35780633659cfe6146105c357600080fd5b806318160ddd146104ce5780631da24f3e146104e35780631e9c46581461051a57806323b872dd1461053a57600080fd5b8063095ea7b311610380578063095ea7b3146104215780630afbcdc914610441578063159ec2df146104a457806316db000f146104b957600080fd5b806301ffc9a7146103a75780630600a865146103dc57806306fdde03146103ff575b600080fd5b3480156103b357600080fd5b506103c76103c236600461546b565b610b61565b60405190151581526020015b60405180910390f35b3480156103e857600080fd5b506103f1610bc3565b6040519081526020016103d3565b34801561040b57600080fd5b50610414610c13565b6040516103d391906154e5565b34801561042d57600080fd5b506103c761043c36600461550d565b610ca6565b34801561044d57600080fd5b5061048f61045c366004615539565b6001600160a01b0316600090815261012d6020526040902054610131549091600160701b9091046001600160701b031690565b604080519283526020830191909152016103d3565b3480156104b057600080fd5b506103f1610cbc565b3480156104c557600080fd5b506103f1610cd3565b3480156104da57600080fd5b506103f1610cf7565b3480156104ef57600080fd5b506103f16104fe366004615539565b6001600160a01b0316600090815261012d602052604090205490565b34801561052657600080fd5b506104146105353660046155f8565b610d0d565b34801561054657600080fd5b506103c761055536600461562c565b610e31565b34801561056657600080fd5b506103f1600080516020615e6083398151915281565b34801561058857600080fd5b50610591610e57565b60405160ff90911681526020016103d3565b3480156105af57600080fd5b506103f16105be366004615539565b610f3c565b3480156105cf57600080fd5b506105e36105de366004615539565b610f67565b005b3480156105f157600080fd5b506103c761060036600461550d565b61104f565b34801561061157600080fd5b506105e3611070565b34801561062657600080fd5b5060c9546040805164ffffffffff83168152600160281b90920466ffffffffffffff166020830152016103d3565b34801561066057600080fd5b506103f161066f36600461550d565b611180565b34801561068057600080fd5b506103f1600080516020615e4083398151915281565b3480156106a257600080fd5b507f00000000000000000000000000000000000000000000000000000000000000005b6040516001600160a01b0390911681526020016103d3565b3480156106e957600080fd5b506105e3611310565b6105e361070036600461566d565b611379565b34801561071157600080fd5b506103f1611445565b34801561072657600080fd5b506103f16114e6565b34801561073b57600080fd5b506103f17f5ec196419322369c6bac572d883f4d990ae5ec82f7d93cdf89b85dbb05b63c2781565b34801561076f57600080fd5b5060975460ff166103c7565b34801561078757600080fd5b506103f1611599565b34801561079c57600080fd5b50610132546001600160801b03166103f1565b3480156107bb57600080fd5b506105e36107ca3660046156bc565b611613565b3480156107db57600080fd5b506103f16107ea366004615539565b611734565b3480156107fb57600080fd5b506105e361080a366004615539565b61178c565b34801561081b57600080fd5b506103f161082a36600461573d565b611863565b34801561083b57600080fd5b506105e361188d565b34801561085057600080fd5b5061085b6201518081565b60405164ffffffffff90911681526020016103d3565b34801561087d57600080fd5b506105e361088c36600461575a565b6118d5565b34801561089d57600080fd5b506105e3611b61565b3480156108b257600080fd5b506105e36108c1366004615539565b611c5c565b3480156108d257600080fd5b506105e36108e136600461577c565b611e99565b3480156108f257600080fd5b5061013454600160401b90046001600160a01b03166106c5565b34801561091857600080fd5b50610135546001600160a01b03166106c5565b34801561093757600080fd5b50610414611ffb565b34801561094c57600080fd5b5061013254600160801b90046001600160401b03166103f1565b34801561097257600080fd5b506103f161200b565b34801561098757600080fd5b506103c761099636600461550d565b612081565b3480156109a757600080fd5b506103c76109b636600461550d565b61211e565b3480156109c757600080fd5b506105e36109d63660046157ac565b61212b565b3480156109e757600080fd5b5061013154600160701b90046001600160701b03166103f1565b348015610a0d57600080fd5b506103f1612308565b348015610a2257600080fd5b506105e3610a313660046157d8565b61231c565b348015610a4257600080fd5b506105e36127c6565b348015610a5757600080fd5b506103f1610a6636600461577c565b6127e0565b348015610a7757600080fd5b506103f16128d1565b348015610a8c57600080fd5b506105e3610a9b3660046157fa565b6128ec565b348015610aac57600080fd5b506103f1610abb366004615828565b612c99565b348015610acc57600080fd5b506103f1612cc5565b348015610ae157600080fd5b506105e3610af0366004615539565b612ce1565b348015610b0157600080fd5b506106c5612dd1565b348015610b1657600080fd5b506103f1612e55565b348015610b2b57600080fd5b506103f1610b3a36600461550d565b612e6f565b348015610b4b57600080fd5b506103f1600080516020615df983398151915281565b6000610b6c8261301f565b80610b8757506001600160e01b031982166336372b0760e01b145b80610ba257506001600160e01b0319821663a219a02560e01b145b80610bbd57506001600160e01b03198216639077062160e01b145b92915050565b600080610be4610bd1612308565b610132546001600160801b031690613055565b90506000610bf0610cf7565b9050818110610c0a57610c03828261586c565b9250505090565b60009250505090565b606061012f8054610c239061587f565b80601f0160208091040260200160405190810160405280929190818152602001828054610c4f9061587f565b8015610c9c5780601f10610c7157610100808354040283529160200191610c9c565b820191906000526020600020905b815481529060010190602001808311610c7f57829003601f168201915b5050505050905090565b6000610cb333848461308d565b50600192915050565b61013254600160c01b90046001600160401b031690565b6000610ce06101316131b6565b610ce8610cf7565b610cf2919061586c565b905090565b6000610cf2610d04610cbc565b610131906131e6565b6060600080516020615e408339815191527f00000000000000000000000000000000000000000000000000000000000000006001600160a01b03166371907f176040518163ffffffff1660e01b8152600401602060405180830381865afa158015610d7c573d6000803e3d6000fd5b505050506040513d601f19601f82011682018060405250810190610da091906158b3565b6001600160a01b0316635ff57d2030833360016040518563ffffffff1660e01b8152600401610dd294939291906158d0565b60006040518083038186803b158015610dea57600080fd5b505afa158015610dfe573d6000803e3d6000fd5b50505050610e2883610e19610135546001600160a01b031690565b6001600160a01b031690613213565b91505b50919050565b600033610e3f858285613238565b610e4a8585856132b2565b60019150505b9392505050565b60007f00000000000000000000000000000000000000000000000000000000000000006001600160a01b031663e5a6b10f6040518163ffffffff1660e01b8152600401602060405180830381865afa158015610eb7573d6000803e3d6000fd5b505050506040513d601f19601f82011682018060405250810190610edb91906158b3565b6001600160a01b031663313ce5676040518163ffffffff1660e01b8152600401602060405180830381865afa158015610f18573d6000803e3d6000fd5b505050506040513d601f19601f82011682018060405250810190610cf291906158fa565b6001600160a01b038116600090815261013360205260408120610e28610f606128d1565b82906131e6565b6001600160a01b037f0000000000000000000000000000000000000000000000000000000000000000163003610fb85760405162461bcd60e51b8152600401610faf9061591d565b60405180910390fd5b7f00000000000000000000000000000000000000000000000000000000000000006001600160a01b0316611001600080516020615dd9833981519152546001600160a01b031690565b6001600160a01b0316146110275760405162461bcd60e51b8152600401610faf90615969565b611030816134b4565b6040805160008082526020820190925261104c918391906135c1565b50565b6000610cb33384846110613388612c99565b61106b91906159b5565b61308d565b600080516020615e60833981519152600080516020615df98339815191527f00000000000000000000000000000000000000000000000000000000000000006001600160a01b03166371907f176040518163ffffffff1660e01b8152600401602060405180830381865afa1580156110ec573d6000803e3d6000fd5b505050506040513d601f19601f8201168201806040525081019061111091906158b3565b6001600160a01b0316632b1cff1f3084843360016040518663ffffffff1660e01b81526004016111449594939291906159c8565b60006040518083038186803b15801561115c57600080fd5b505afa158015611170573d6000803e3d6000fd5b5050505061117c61372c565b5050565b6000337f00000000000000000000000000000000000000000000000000000000000000006001600160a01b0316146111ca5760405162461bcd60e51b8152600401610faf906159fb565b61013454600160401b90046001600160a01b031615806112695750610134546040516337ee20dd60e01b81523060048201526001600160a01b03858116602483015260448201859052600160401b909204909116906337ee20dd90606401602060405180830381865afa158015611245573d6000803e3d6000fd5b505050506040513d601f19601f820116820180604052508101906112699190615a3c565b6112855760405162461bcd60e51b8152600401610faf90615a59565b61128f838361377e565b6112976138d4565b61129f612e55565b6112a7611599565b10156113075760405162461bcd60e51b815260206004820152602960248201527f4465706f7369742072656a6563746564202d205574696c697a6174696f6e205260448201526830ba32901e1036b4b760b91b6064820152608401610faf565b610e5083611734565b6113186139d8565b6040805160048152602481019091526020810180516001600160e01b03166313ae5e2960e21b17905260009061135b90610e19610135546001600160a01b031690565b905061104c818060200190518101906113749190615a9b565b613a1e565b6001600160a01b037f00000000000000000000000000000000000000000000000000000000000000001630036113c15760405162461bcd60e51b8152600401610faf9061591d565b7f00000000000000000000000000000000000000000000000000000000000000006001600160a01b031661140a600080516020615dd9833981519152546001600160a01b031690565b6001600160a01b0316146114305760405162461bcd60e51b8152600401610faf90615969565b611439826134b4565b61117c828260016135c1565b600080306001600160a01b03166318160ddd6040518163ffffffff1660e01b8152600401602060405180830381865afa158015611486573d6000803e3d6000fd5b505050506040513d601f19601f820116820180604052508101906114aa9190615a9b565b610132549091506001600160801b03168111156114de57610132546114d8906001600160801b03168261586c565b91505090565b600091505090565b6000306001600160a01b037f000000000000000000000000000000000000000000000000000000000000000016146115865760405162461bcd60e51b815260206004820152603860248201527f555550535570677261646561626c653a206d757374206e6f742062652063616c60448201527f6c6564207468726f7567682064656c656761746563616c6c00000000000000006064820152608401610faf565b50600080516020615dd983398151915290565b6000610cf2306001600160a01b03166318160ddd6040518163ffffffff1660e01b8152600401602060405180830381865afa1580156115dc573d6000803e3d6000fd5b505050506040513d601f19601f820116820180604052508101906116009190615a9b565b610132546001600160801b031690613a27565b600054610100900460ff16158080156116335750600054600160ff909116105b8061164d5750303b15801561164d575060005460ff166001145b6116b05760405162461bcd60e51b815260206004820152602e60248201527f496e697469616c697a61626c653a20636f6e747261637420697320616c72656160448201526d191e481a5b9a5d1a585b1a5e995960921b6064820152608401610faf565b6000805460ff1916600117905580156116d3576000805461ff0019166101001790555b6116db613a5e565b6116e785858585613a8d565b801561172d576000805461ff0019169055604051600181527f7f26b83ff96e1f2b6a682f133852f6798a09c465da95921460cefb38474024989060200160405180910390a15b5050505050565b6001600160a01b038116600090815261012d602052604081205480820361175e5750600092915050565b610e2861178761176d83613c6a565b611781611778610cbc565b61013190613c80565b90613d1c565b613d5f565b337f00000000000000000000000000000000000000000000000000000000000000006001600160a01b0316146117d45760405162461bcd60e51b8152600401610faf906159fb565b6001600160a01b0381166117fa5760405162461bcd60e51b8152600401610faf90615ab4565b600061180582610f3c565b6001600160a01b038316600081815261013360205260408082209190915551919250907fe2ebfbed0df9004eae018a4ae91b24baa0cd1d83f495fab6dde3a1493f9dc6c6906118579084815260200190565b60405180910390a25050565b6000811561187657610bbd611778610cbc565b5050610131546001600160701b031690565b919050565b6118956139d8565b6040805160048152602481019091526020810180516001600160e01b0316631f5f0a8760e21b17905261104c90610e19610135546001600160a01b031690565b33600090815261013360205260408120546001600160701b0316900361190d5760405162461bcd60e51b8152600401610faf90615aff565b6119156139d8565b306001600160a01b031663a08f22036040518163ffffffff1660e01b8152600401602060405180830381865afa158015611953573d6000803e3d6000fd5b505050506040513d601f19601f820116820180604052508101906119779190615a9b565b8211156119da5760405162461bcd60e51b815260206004820152602b60248201527f4e6f7420656e6f7567682066756e647320617661696c61626c6520746f20636f60448201526a3b32b9103a34329029a1a960a91b6064820152608401610faf565b6119ee6119e5610cbc565b61013190613d7e565b610132546001600160801b0316600003611a6757611a0b82613e1b565b61013280546001600160801b0319166001600160801b0392909216919091179055611a3581613e88565b61013280546001600160401b0392909216600160801b0267ffffffffffffffff60801b19909216919091179055611b20565b610132546001600160801b03166000611a8084836159b5565b9050611ac6611ac182611a938688613055565b61013254611ab190600160801b90046001600160401b031687613055565b611abb91906159b5565b90613a27565b613e88565b61013280546001600160401b0392909216600160801b0267ffffffffffffffff60801b19909216919091179055611afc81613e1b565b61013280546001600160801b0319166001600160801b039290921691909117905550505b60408051828152602081018490527f333478c2835efe2f226b0d334f71bdf18c977621845f20d21fff75321fc8ab27910160405180910390a161117c6138d4565b600080516020615e608339815191527f00000000000000000000000000000000000000000000000000000000000000006001600160a01b03166371907f176040518163ffffffff1660e01b8152600401602060405180830381865afa158015611bce573d6000803e3d6000fd5b505050506040513d601f19601f82011682018060405250810190611bf291906158b3565b6001600160a01b0316635ff57d2030833360016040518563ffffffff1660e01b8152600401611c2494939291906158d0565b60006040518083038186803b158015611c3c57600080fd5b505afa158015611c50573d6000803e3d6000fd5b5050505061104c613ef0565b600080516020615e60833981519152600080516020615df98339815191527f00000000000000000000000000000000000000000000000000000000000000006001600160a01b03166371907f176040518163ffffffff1660e01b8152600401602060405180830381865afa158015611cd8573d6000803e3d6000fd5b505050506040513d601f19601f82011682018060405250810190611cfc91906158b3565b6001600160a01b0316632b1cff1f3084843360016040518663ffffffff1660e01b8152600401611d309594939291906159c8565b60006040518083038186803b158015611d4857600080fd5b505afa158015611d5c573d6000803e3d6000fd5b505050506001600160a01b0383161580611e0857507f00000000000000000000000000000000000000000000000000000000000000006001600160a01b0316836001600160a01b0316634d15eb036040518163ffffffff1660e01b8152600401602060405180830381865afa158015611dd9573d6000803e3d6000fd5b505050506040513d601f19601f82011682018060405250810190611dfd91906158b3565b6001600160a01b0316145b611e645760405162461bcd60e51b815260206004820152602760248201527f436f6d706f6e656e74206e6f74206c696e6b656420746f207468697320506f6c6044820152661a58de541bdbdb60ca1b6064820152608401610faf565b6101348054600160401b600160e01b031916600160401b6001600160a01b03861602179055611e94601784613f2d565b505050565b611ea16139d8565b60008211611f055760405162461bcd60e51b815260206004820152602b60248201527f45546f6b656e3a20616d6f756e742073686f756c64206265206772656174657260448201526a103a3430b7103d32b9379760a91b6064820152608401610faf565b6001600160a01b038116600090815261013360205260408120805490916001600160701b039091169003611f7b5760405162461bcd60e51b815260206004820152601960248201527f4e6f742061207265676973746572656420626f72726f776572000000000000006044820152606401610faf565b611f8f83611f876128d1565b839190613f80565b50611f9983614028565b816001600160a01b03167fa1aeb41f04a9a2aa1450e8edd0fa1a0a7971ff65c7bbb7b2ca0379b9327edbaf84604051611fd491815260200190565b60405180910390a2611e94333085611fea612dd1565b6001600160a01b0316929190614046565b60606101308054610c239061587f565b6000806114aa612019612cc5565b306001600160a01b03166318160ddd6040518163ffffffff1660e01b8152600401602060405180830381865afa158015612057573d6000803e3d6000fd5b505050506040513d601f19601f8201168201806040525081019061207b9190615a9b565b90613055565b33600090815261012e602090815260408083206001600160a01b0386168452909152812054828110156121055760405162461bcd60e51b815260206004820152602660248201527f45546f6b656e3a2064656372656173656420616c6c6f77616e63652062656c6f60448201526577207a65726f60d01b6064820152608401610faf565b612114338561106b868561586c565b5060019392505050565b6000610cb33384846132b2565b33600090815261013360205260408120546001600160701b031690036121635760405162461bcd60e51b8152600401610faf90615aff565b61216b6139d8565b610132546001600160801b03168311156121e35760405162461bcd60e51b815260206004820152603360248201527f43757272656e7420534352206c657373207468616e2074686520616d6f756e7460448201527220796f752077616e7420746f20756e6c6f636b60681b6064820152608401610faf565b6121ee6119e5610cbc565b610132546001600160801b03168390036122185761013280546001600160c01b03191690556122c6565b610132546001600160801b03166000612231858361586c565b905061226c611ac1826122448789613055565b6101325461226290600160801b90046001600160401b031687613055565b611abb919061586c565b61013280546001600160401b0392909216600160801b0267ffffffffffffffff60801b199092169190911790556122a281613e1b565b61013280546001600160801b0319166001600160801b039290921691909117905550505b60408051838152602081018590527f7b9d63ccbb37347ce0fe73e3663c640d22364d8c733839777f1729e59af1967f910160405180910390a1611e9481614028565b61013454600090610cf29061ffff166140b1565b600080516020615e408339815191527f5ec196419322369c6bac572d883f4d990ae5ec82f7d93cdf89b85dbb05b63c277f00000000000000000000000000000000000000000000000000000000000000006001600160a01b03166371907f176040518163ffffffff1660e01b8152600401602060405180830381865afa1580156123aa573d6000803e3d6000fd5b505050506040513d601f19601f820116820180604052508101906123ce91906158b3565b6001600160a01b0316632b1cff1f3084843360016040518663ffffffff1660e01b81526004016124029594939291906159c8565b60006040518083038186803b15801561241a57600080fd5b505afa15801561242e573d6000803e3d6000fd5b50505050600061244b600080516020615e408339815191526140c7565b159050600085600381111561246257612462615b36565b0361252057801580612489575061248961247a612308565b8567016345785d8a00006141be565b6124fb5760405162461bcd60e51b815260206004820152603a60248201527f547765616b2065786365656465643a206c69717569646974795265717569726560448201527f6d656e7420747765616b73206f6e6c7920757020746f203130250000000000006064820152608401610faf565b61250484614245565b610134805461ffff191661ffff9290921691909117905561278e565b600185600381111561253457612534615b36565b036125f65780158061255b575061255b61254c612e55565b85670429d069189e00006141be565b6125c85760405162461bcd60e51b815260206004820152603860248201527f547765616b2065786365656465643a206d696e5574696c697a6174696f6e5261604482015277746520747765616b73206f6e6c7920757020746f2033302560401b6064820152608401610faf565b6125d184614245565b610134805461ffff92909216620100000263ffff00001990921691909117905561278e565b600285600381111561260a5761260a615b36565b036126c157801580612622575061262261254c612cc5565b61268f5760405162461bcd60e51b815260206004820152603860248201527f547765616b2065786365656465643a206d61785574696c697a6174696f6e5261604482015277746520747765616b73206f6e6c7920757020746f2033302560401b6064820152608401610faf565b61269884614245565b610134805461ffff929092166401000000000265ffff000000001990921691909117905561278e565b60038560038111156126d5576126d5615b36565b0361278e578015806126ed57506126ed61254c6128d1565b61275f5760405162461bcd60e51b815260206004820152603e60248201527f547765616b2065786365656465643a20696e7465726e616c4c6f616e496e746560448201527f726573745261746520747765616b73206f6e6c7920757020746f2033302500006064820152608401610faf565b61276884614245565b610134805461ffff92909216600160301b0267ffff000000000000199092169190911790555b61172d8560038111156127a3576127a3615b36565b6127ae9060186159b5565b602d8111156127bf576127bf615b36565b858361425f565b6127ce6139d8565b6127d6611310565b6127de61188d565b565b33600090815261013360205260408120546001600160701b031681036128185760405162461bcd60e51b8152600401610faf90615aff565b6128206139d8565b826128328161282d610cd3565b6142c0565b935083600003612843579050610bbd565b336000908152610133602052604090206128678561285f6128d1565b8391906142d6565b5061287961287486615b4c565b614028565b6128838486614356565b604080518681526020810184905233917f98697a4799dbd9db66c7168304c43cba77a27a50d2785625e09072e0d91fdd53910160405180910390a26128c8858361586c565b95945050505050565b61013454600090610cf290600160301b900461ffff166140b1565b600080516020615e60833981519152600080516020615df98339815191527f00000000000000000000000000000000000000000000000000000000000000006001600160a01b03166371907f176040518163ffffffff1660e01b8152600401602060405180830381865afa158015612968573d6000803e3d6000fd5b505050506040513d601f19601f8201168201806040525081019061298c91906158b3565b6001600160a01b0316632b1cff1f3084843360016040518663ffffffff1660e01b81526004016129c09594939291906159c8565b60006040518083038186803b1580156129d857600080fd5b505afa1580156129ec573d6000803e3d6000fd5b505050506001600160a01b0384161580612a7057506040516301ffc9a760e01b8152631e670a9760e21b60048201526001600160a01b038516906301ffc9a790602401602060405180830381865afa158015612a4c573d6000803e3d6000fd5b505050506040513d601f19601f82011682018060405250810190612a709190615a3c565b612ae4576040805162461bcd60e51b81526020600482015260248101919091527f526573657276653a206173736574206d616e6167657220646f65736e2774206960448201527f6d706c656d656e74732074686520726571756972656420696e746572666163656064820152608401610faf565b6000612af9610135546001600160a01b031690565b905060026001600160a01b03821615612c21578415612bc65760408051600481526024810182526020810180516001600160e01b031663cec16f3f60e01b179052905160009182916001600160a01b03861691612b5591615b68565b600060405180830381855af49150503d8060008114612b90576040519150601f19603f3d011682016040523d82523d6000602084013e612b95565b606091505b509150915081612ba85760039250612bbf565b612bbf818060200190518101906113749190615a9b565b5050612c21565b6040805160048152602481019091526020810180516001600160e01b031663cec16f3f60e01b179052600090612c06906001600160a01b03851690613213565b9050612c1f818060200190518101906113749190615a9b565b505b61013580546001600160a01b0319166001600160a01b03881690811790915591508115612c87576040805160048152602481019091526020810180516001600160e01b031663948cb71960e01b179052612c85906001600160a01b03841690613213565b505b612c918187613f2d565b505050505050565b6001600160a01b03918216600090815261012e6020908152604080832093909416825291909152205490565b61013454600090610cf290640100000000900461ffff166140b1565b337f00000000000000000000000000000000000000000000000000000000000000006001600160a01b031614612d295760405162461bcd60e51b8152600401610faf906159fb565b6001600160a01b038116612d4f5760405162461bcd60e51b8152600401610faf90615ab4565b6001600160a01b038116600090815261013360205260408120805490916001600160701b03909116900361117c57676765c793fa10079d601b1b600160e01b4263ffffffff16021781556040516001600160a01b038316907f66c0f28249c4fc4db79872a4405be78a93f19c65ac9ef2f173867a149065bcf290600090a25050565b60007f00000000000000000000000000000000000000000000000000000000000000006001600160a01b031663e5a6b10f6040518163ffffffff1660e01b8152600401602060405180830381865afa158015612e31573d6000803e3d6000fd5b505050506040513d601f19601f82011682018060405250810190610cf291906158b3565b61013454600090610cf29062010000900461ffff166140b1565b6000337f00000000000000000000000000000000000000000000000000000000000000006001600160a01b031614612eb95760405162461bcd60e51b8152600401610faf906159fb565b6000612ecf612ec785611734565b61282d610bc3565b90506000198303612ede578092505b82600003612ef0576000915050610bbd565b80831115612f405760405162461bcd60e51b815260206004820152601960248201527f616d6f756e74203e206d617820776974686472617761626c65000000000000006044820152606401610faf565b61013454600160401b90046001600160a01b03161580612fdf575061013454604051639051c76360e01b81523060048201526001600160a01b03868116602483015260448201869052600160401b90920490911690639051c76390606401602060405180830381865afa158015612fbb573d6000803e3d6000fd5b505050506040513d601f19601f82011682018060405250810190612fdf9190615a3c565b612ffb5760405162461bcd60e51b8152600401610faf90615a59565b61300584846144b3565b61300d6138d4565b6130178484614356565b509092915050565b60006001600160e01b031982166301ffc9a760e01b1480610bbd57506001600160e01b03198216634d15eb0360e01b1492915050565b600081156706f05b59d3b20000198390048411151761307357600080fd5b50670de0b6b3a764000091026706f05b59d3b20000010490565b6001600160a01b0383166130f15760405162461bcd60e51b815260206004820152602560248201527f45546f6b656e3a20617070726f76652066726f6d20746865207a65726f206164604482015264647265737360d81b6064820152608401610faf565b6001600160a01b0382166131535760405162461bcd60e51b815260206004820152602360248201527f45546f6b656e3a20617070726f766520746f20746865207a65726f206164647260448201526265737360e81b6064820152608401610faf565b6001600160a01b03838116600081815261012e602090815260408083209487168084529482529182902085905590518481527f8c5be1e5ebec7d5bd14f71427d1e84f3dd0314c0f7b2291e5b200ac8c7c3b92591015b60405180910390a3505050565b8054600090610bbd906117879067016345785d8a00009061178190600160701b90046001600160701b0316613c6a565b6000610e506117876131f88585613c80565b855461178190600160701b90046001600160701b0316613c6a565b6060610e508383604051806060016040528060278152602001615e1960279139614618565b60006132448484612c99565b905060001981146132ac578181101561329f5760405162461bcd60e51b815260206004820152601e60248201527f45546f6b656e3a20696e73756666696369656e7420616c6c6f77616e636500006044820152606401610faf565b6132ac848484840361308d565b50505050565b6001600160a01b0383166133175760405162461bcd60e51b815260206004820152602660248201527f45546f6b656e3a207472616e736665722066726f6d20746865207a65726f206160448201526564647265737360d01b6064820152608401610faf565b6001600160a01b0382166133795760405162461bcd60e51b8152602060048201526024808201527f45546f6b656e3a207472616e7366657220746f20746865207a65726f206164646044820152637265737360e01b6064820152608401610faf565b613384838383614690565b600061339b613391610cbc565b61013190846147d5565b6001600160a01b038516600090815261012d6020526040902054909150818110156134185760405162461bcd60e51b815260206004820152602760248201527f45546f6b656e3a207472616e7366657220616d6f756e7420657863656564732060448201526662616c616e636560c81b6064820152608401610faf565b613422828261586c565b6001600160a01b03808716600090815261012d602052604080822093909355908616815290812080548492906134599084906159b5565b92505081905550836001600160a01b0316856001600160a01b03167fddf252ad1be2c89b69c2b068fc378daa952ba7f163c4a11628f55a4df523b3ef856040516134a591815260200190565b60405180910390a35050505050565b600080516020615e60833981519152600080516020615df98339815191527f00000000000000000000000000000000000000000000000000000000000000006001600160a01b03166371907f176040518163ffffffff1660e01b8152600401602060405180830381865afa158015613530573d6000803e3d6000fd5b505050506040513d601f19601f8201168201806040525081019061355491906158b3565b6001600160a01b0316632b1cff1f3084843360016040518663ffffffff1660e01b81526004016135889594939291906159c8565b60006040518083038186803b1580156135a057600080fd5b505afa1580156135b4573d6000803e3d6000fd5b50505050611e94836147f6565b7f4910fdfa16fed3260ed0e7147f7cc6da11a60208b5b9406d12a635614ffd91435460ff16156135f457611e94836148e7565b826001600160a01b03166352d1902d6040518163ffffffff1660e01b8152600401602060405180830381865afa92505050801561364e575060408051601f3d908101601f1916820190925261364b91810190615a9b565b60015b6136b15760405162461bcd60e51b815260206004820152602e60248201527f45524331393637557067726164653a206e657720696d706c656d656e7461746960448201526d6f6e206973206e6f74205555505360901b6064820152608401610faf565b600080516020615dd983398151915281146137205760405162461bcd60e51b815260206004820152602960248201527f45524331393637557067726164653a20756e737570706f727465642070726f786044820152681a58589b195555525160ba1b6064820152608401610faf565b50611e94838383614983565b6137346149a8565b6097805460ff191690557f5db9ee0a495bf2e6ff9c91a7834c1ba4fdd244a5e8aa4e537bd38aeae4b073aa335b6040516001600160a01b03909116815260200160405180910390a1565b6001600160a01b0382166137d45760405162461bcd60e51b815260206004820181905260248201527f45546f6b656e3a206d696e7420746f20746865207a65726f20616464726573736044820152606401610faf565b6000811161383f5760405162461bcd60e51b815260206004820152603260248201527f45546f6b656e3a20616d6f756e7420746f206d696e742073686f756c642062656044820152712067726561746572207468616e207a65726f60701b6064820152608401610faf565b61384b60008383614690565b600061386382613859610cbc565b61013191906142d6565b6001600160a01b038416600090815261012d60205260408120805492935083929091906138919084906159b5565b90915550506040518281526001600160a01b038416906000907fddf252ad1be2c89b69c2b068fc378daa952ba7f163c4a11628f55a4df523b3ef906020016131a9565b6000306001600160a01b03166318160ddd6040518163ffffffff1660e01b8152600401602060405180830381865afa158015613914573d6000803e3d6000fd5b505050506040513d601f19601f820116820180604052508101906139389190615a9b565b9050806000036139555761013280546001600160c01b0316905550565b61013254600090613985908390611abb906001600160401b03600160801b820416906001600160801b0316613055565b90506001600160401b0381116139a35761399e81613e88565b6139ac565b6001600160401b035b61013280546001600160401b0392909216600160c01b026001600160c01b039092169190911790555050565b60975460ff16156127de5760405162461bcd60e51b815260206004820152601060248201526f14185d5cd8589b194e881c185d5cd95960821b6044820152606401610faf565b61104c81614028565b60008115670de0b6b3a764000060028404190484111715613a4757600080fd5b50670de0b6b3a76400009190910260028204010490565b600054610100900460ff16613a855760405162461bcd60e51b8152600401610faf90615b84565b6127de6149f1565b600054610100900460ff16613ab45760405162461bcd60e51b8152600401610faf90615b84565b6000845111613b055760405162461bcd60e51b815260206004820152601c60248201527f45546f6b656e3a206e616d652063616e6e6f7420626520656d707479000000006044820152606401610faf565b6000835111613b565760405162461bcd60e51b815260206004820152601e60248201527f45546f6b656e3a2073796d626f6c2063616e6e6f7420626520656d70747900006044820152606401610faf565b61012f613b638582615c15565b50610130613b718482615c15565b50676765c793fa10079d601b1b600160e01b4263ffffffff160217610131556040805160a081018252612710815260006020820152908101613bb284614245565b61ffff168152602001613bc483614245565b61ffff908116825260006020928301528251610134805493850151604086015160608701516080909701516001600160a01b0316600160401b02600160401b600160e01b0319978616600160301b0267ffff00000000000019928716640100000000029290921667ffffffff0000000019938716620100000263ffffffff19909816959096169490941795909517169290921792909217929092161790556132ac614a28565b633b9aca00818102908104821461188857600080fd5b8154600090429063ffffffff808316600160e01b9092041610613caf57505081546001600160701b0316610bbd565b8354600090613ccb90600160e01b900463ffffffff1683615cd4565b63ffffffff1690506128c8676765c793fa10079d601b1b6301e1338083613cf188613c6a565b613cfb9190615cf8565b613d059190615d17565b613d0f91906159b5565b86546001600160701b0316905b600081156b019d971e4fe8401e740000001983900484111517613d3e57600080fd5b50676765c793fa10079d601b1b91026b019d971e4fe8401e74000000010490565b633b9aca00808204908206631dcd65008110610e2b5750600101919050565b815463ffffffff428116600160e01b9092041610613d9a575050565b8154600160701b90046001600160701b0316600003613dd1575080546001600160e01b0316600160e01b4263ffffffff1602179055565b613de3613dde8383613c80565b614c41565b82546001600160701b03919091166dffffffffffffffffffffffffffff60701b90911617600160e01b4263ffffffff16021790915550565b60006001600160801b03821115613e845760405162461bcd60e51b815260206004820152602760248201527f53616665436173743a2076616c756520646f65736e27742066697420696e20316044820152663238206269747360c81b6064820152608401610faf565b5090565b60006001600160401b03821115613e845760405162461bcd60e51b815260206004820152602660248201527f53616665436173743a2076616c756520646f65736e27742066697420696e203660448201526534206269747360d01b6064820152608401610faf565b613ef86139d8565b6097805460ff191660011790557f62e78cea01bee320cd4e420270b5ea74000d11b0c9f74754ebdbfc544b05a2586137613390565b613f35614a28565b81602d811115613f4757613f47615b36565b6040516001600160a01b03831681527fb6bdbd44472629fc24a00b6f4ee3348b72c9eff333d0e9c16d78c49da1323c8f90602001611857565b6000613f8c8483613d7e565b6000613f988585614caa565b9050613fa381614cc9565b6001600160601b031685600001600e8282829054906101000a90046001600160701b0316613fd19190615d39565b82546101009290920a6001600160701b038181021990931691831602179091558654600160701b90041660000390506140205784546001600160701b031916676765c793fa10079d601b1b1785555b949350505050565b61403e81614034610cbc565b6101319190614d31565b61104c6138d4565b6040516001600160a01b03808516602483015283166044820152606481018290526132ac9085906323b872dd60e01b906084015b60408051601f198184030181529190526020810180516001600160e01b03166001600160e01b031990931692909217909152614e2e565b6000610bbd655af3107a400061ffff8416615cf8565b60007f00000000000000000000000000000000000000000000000000000000000000006001600160a01b03166371907f176040518163ffffffff1660e01b8152600401602060405180830381865afa158015614127573d6000803e3d6000fd5b505050506040513d601f19601f8201168201806040525081019061414b91906158b3565b6001600160a01b031663b3efcbd230843360016040518563ffffffff1660e01b815260040161417d94939291906158d0565b602060405180830381865afa15801561419a573d6000803e3d6000fd5b505050506040513d601f19601f82011682018060405250810190610bbd9190615a3c565b60008284036141cf57506001610e50565b836000036141e95750670de0b6b3a7640000811015610e50565b826000036141f957506000610e50565b828410156142285781670de0b6b3a76400006142158587613a27565b61421f919061586c565b11159050610e50565b816142338486613a27565b61421f90670de0b6b3a764000061586c565b6000610bbd61425a655af3107a400084615d17565b614f03565b614267614a28565b80156142765761427683614f66565b82602d81111561428857614288615b36565b6040518381527f7bc647fe5043209e2019aa3503b79c1b0dd83eb61c56013d373a7584ff6bfb139060200160405180910390a2505050565b60008183106142cf5781610e50565b5090919050565b60006142e28483613d7e565b60006142ee8585614caa565b90506142f981614cc9565b6001600160601b031685600001600e8282829054906101000a90046001600160701b03166143279190615d59565b92506101000a8154816001600160701b0302191690836001600160701b03160217905550809150509392505050565b6001600160a01b0382166143ba5760405162461bcd60e51b815260206004820152602560248201527f526573657276653a207472616e7366657220746f20746865207a65726f206164604482015264647265737360d81b6064820152608401610faf565b806000036143c6575050565b60006143d0612dd1565b6040516370a0823160e01b81523060048201526001600160a01b0391909116906370a0823190602401602060405180830381865afa158015614416573d6000803e3d6000fd5b505050506040513d601f19601f8201168201806040525081019061443a9190615a9b565b9050818110156144965761444d826150d2565b61445790826159b5565b905080821115614496577f000000000000000000000000000000000000000000000000000000000000000061448c828461586c565b1015614496578091505b611e9483836144a3612dd1565b6001600160a01b031691906151a8565b6001600160a01b0382166145145760405162461bcd60e51b815260206004820152602260248201527f45546f6b656e3a206275726e2066726f6d20746865207a65726f206164647265604482015261737360f01b6064820152608401610faf565b61452082600083614690565b60006145388261452e610cbc565b6101319190613f80565b6001600160a01b038416600090815261012d6020526040902054909150818110156145b15760405162461bcd60e51b815260206004820152602360248201527f45546f6b656e3a206275726e20616d6f756e7420657863656564732062616c616044820152626e636560e81b6064820152608401610faf565b6145bb828261586c565b6001600160a01b038516600081815261012d60205260408082209390935591517fddf252ad1be2c89b69c2b068fc378daa952ba7f163c4a11628f55a4df523b3ef9061460a9087815260200190565b60405180910390a350505050565b6060600080856001600160a01b0316856040516146359190615b68565b600060405180830381855af49150503d8060008114614670576040519150601f19603f3d011682016040523d82523d6000602084013e614675565b606091505b5091509150614686868383876151d8565b9695505050505050565b6146986139d8565b6001600160a01b03831615806146b557506001600160a01b038216155b806146d1575061013454600160401b90046001600160a01b0316155b80614763575061013454604051635fcdca3760e01b81523060048201526001600160a01b038581166024830152848116604483015260648201849052600160401b90920490911690635fcdca3790608401602060405180830381865afa15801561473f573d6000803e3d6000fd5b505050506040513d601f19601f820116820180604052508101906147639190615a3c565b611e945760405162461bcd60e51b815260206004820152603960248201527f5472616e73666572206e6f7420616c6c6f776564202d204c697175696469747960448201527f2050726f7669646572206e6f742077686974656c6973746564000000000000006064820152608401610faf565b60006140206117876147e78686613c80565b6147f085613c6a565b90615251565b7f00000000000000000000000000000000000000000000000000000000000000006001600160a01b0316816001600160a01b0316634d15eb036040518163ffffffff1660e01b8152600401602060405180830381865afa15801561485e573d6000803e3d6000fd5b505050506040513d601f19601f8201168201806040525081019061488291906158b3565b6001600160a01b03161461104c5760405162461bcd60e51b815260206004820152602660248201527f43616e27742075706772616465206368616e67696e672074686520506f6c696360448201526579506f6f6c2160d01b6064820152608401610faf565b6001600160a01b0381163b6149545760405162461bcd60e51b815260206004820152602d60248201527f455243313936373a206e657720696d706c656d656e746174696f6e206973206e60448201526c1bdd08184818dbdb9d1c9858dd609a1b6064820152608401610faf565b600080516020615dd983398151915280546001600160a01b0319166001600160a01b0392909216919091179055565b61498c8361528e565b6000825111806149995750805b15611e94576132ac8383613213565b60975460ff166127de5760405162461bcd60e51b815260206004820152601460248201527314185d5cd8589b194e881b9bdd081c185d5cd95960621b6044820152606401610faf565b600054610100900460ff16614a185760405162461bcd60e51b8152600401610faf90615b84565b614a206152ce565b6127de6152f5565b61013454611f4061ffff90911610801590614a4e5750610134546132c861ffff90911611155b614ab65760405162461bcd60e51b815260206004820152603360248201527f56616c69646174696f6e3a206c6971756964697479526571756972656d656e74604482015272206d757374206265205b302e382c20312e335d60681b6064820152608401610faf565b6101345461138864010000000090910461ffff1610801590614aea57506101345461271064010000000090910461ffff1611155b614b4e5760405162461bcd60e51b815260206004820152602f60248201527f56616c69646174696f6e3a206d61785574696c697a6174696f6e52617465206d60448201526e757374206265205b302e352c20315d60881b6064820152608401610faf565b610134546127106201000090910461ffff161115614bc45760405162461bcd60e51b815260206004820152602d60248201527f56616c69646174696f6e3a206d696e5574696c697a6174696f6e52617465206d60448201526c757374206265205b302c20315d60981b6064820152608401610faf565b61013454611388600160301b90910461ffff1611156127de5760405162461bcd60e51b815260206004820152603360248201527f56616c69646174696f6e3a20696e7465726e616c4c6f616e496e74657265737460448201527252617465206d757374206265203c3d2035302560681b6064820152608401610faf565b60006001600160701b03821115613e845760405162461bcd60e51b815260206004820152602760248201527f53616665436173743a2076616c756520646f65736e27742066697420696e20316044820152663132206269747360c81b6064820152608401610faf565b8154600090610e5090611787906001600160701b03166147f085613c6a565b60006001600160601b03821115613e845760405162461bcd60e51b815260206004820152602660248201527f53616665436173743a2076616c756520646f65736e27742066697420696e203960448201526536206269747360d01b6064820152608401610faf565b8254600160701b90046001600160701b0316600003614d55576132ac8383836142d6565b614d5f8382613d7e565b600082614d6c85846131e6565b614d769190615d79565b8454909150614da590613dde90614d9c90600160701b90046001600160701b0316613c6a565b6147f084613c6a565b84546001600160701b0319166001600160701b0391909116908117855567016345785d8a000011156132ac5760405162461bcd60e51b815260206004820152602c60248201527f5363616c6520746f6f20736d616c6c2c2063616e206c65616420746f20726f7560448201526b6e64696e67206572726f727360a01b6064820152608401610faf565b6000614e83826040518060400160405280602081526020017f5361666545524332303a206c6f772d6c6576656c2063616c6c206661696c6564815250856001600160a01b03166153249092919063ffffffff16565b9050805160001480614ea4575080806020019051810190614ea49190615a3c565b611e945760405162461bcd60e51b815260206004820152602a60248201527f5361666545524332303a204552433230206f7065726174696f6e20646964206e6044820152691bdd081cdd58d8d9595960b21b6064820152608401610faf565b600061ffff821115613e845760405162461bcd60e51b815260206004820152602660248201527f53616665436173743a2076616c756520646f65736e27742066697420696e203160448201526536206269747360d01b6064820152608401610faf565b6000600182602d811115614f7c57614f7c615b36565b614f869190615da1565b60c954600160ff929092169190911b91506201518090614fad9064ffffffffff1642615dba565b64ffffffffff161115614fef5760c9805466ffffffffffffff8316600160281b026bffffffffffffffffffffffff1990911664ffffffffff4216171790555050565b60c954600160281b9004811666ffffffffffffff166000036150545760c9805464ffffffffff421664ffffffffff1966ffffffffffffff808616600160281b808604929092161702166bffffffffffffffffffffffff19909216919091171790555050565b60405162461bcd60e51b815260206004820152604760248201527f596f7520616c726561647920747765616b6564207468697320706172616d657460448201527f657220726563656e746c792e2057616974206265666f726520747765616b696e606482015266339030b3b0b4b760c91b608482015260a401610faf565b6000806150e8610135546001600160a01b031690565b90506001600160a01b0381161561519f576000615189631014a0c260e01b8560405160240161511991815260200190565b60408051601f19818403018152918152602080830180516001600160e01b03166001600160e01b03199095169490941790935280518082019091526016815275115c9c9bdc881c99599a5b1b1a5b99c81dd85b1b195d60521b928101929092526001600160a01b03851691614618565b9050808060200190518101906140209190615a9b565b50600092915050565b6040516001600160a01b038316602482015260448101829052611e9490849063a9059cbb60e01b9060640161407a565b60608315615247578251600003615240576001600160a01b0385163b6152405760405162461bcd60e51b815260206004820152601d60248201527f416464726573733a2063616c6c20746f206e6f6e2d636f6e74726163740000006044820152606401610faf565b5081614020565b6140208383615333565b60008115676765c793fa10079d601b1b6002840419048411171561527457600080fd5b50676765c793fa10079d601b1b9190910260028204010490565b615297816148e7565b6040516001600160a01b038216907fbc7cd75a20ee27fd9adebab32041f755214dbc6bffa90cc0225b39da2e5c2d3b90600090a250565b600054610100900460ff166127de5760405162461bcd60e51b8152600401610faf90615b84565b600054610100900460ff1661531c5760405162461bcd60e51b8152600401610faf90615b84565b6127de61535d565b60606140208484600085615390565b8151156153435781518083602001fd5b8060405162461bcd60e51b8152600401610faf91906154e5565b600054610100900460ff166153845760405162461bcd60e51b8152600401610faf90615b84565b6097805460ff19169055565b6060824710156153f15760405162461bcd60e51b815260206004820152602660248201527f416464726573733a20696e73756666696369656e742062616c616e636520666f6044820152651c8818d85b1b60d21b6064820152608401610faf565b600080866001600160a01b0316858760405161540d9190615b68565b60006040518083038185875af1925050503d806000811461544a576040519150601f19603f3d011682016040523d82523d6000602084013e61544f565b606091505b5091509150615460878383876151d8565b979650505050505050565b60006020828403121561547d57600080fd5b81356001600160e01b031981168114610e5057600080fd5b60005b838110156154b0578181015183820152602001615498565b50506000910152565b600081518084526154d1816020860160208601615495565b601f01601f19169290920160200192915050565b602081526000610e5060208301846154b9565b6001600160a01b038116811461104c57600080fd5b6000806040838503121561552057600080fd5b823561552b816154f8565b946020939093013593505050565b60006020828403121561554b57600080fd5b8135610e50816154f8565b634e487b7160e01b600052604160045260246000fd5b600082601f83011261557d57600080fd5b81356001600160401b038082111561559757615597615556565b604051601f8301601f19908116603f011681019082821181831017156155bf576155bf615556565b816040528381528660208588010111156155d857600080fd5b836020870160208301376000602085830101528094505050505092915050565b60006020828403121561560a57600080fd5b81356001600160401b0381111561562057600080fd5b6140208482850161556c565b60008060006060848603121561564157600080fd5b833561564c816154f8565b9250602084013561565c816154f8565b929592945050506040919091013590565b6000806040838503121561568057600080fd5b823561568b816154f8565b915060208301356001600160401b038111156156a657600080fd5b6156b28582860161556c565b9150509250929050565b600080600080608085870312156156d257600080fd5b84356001600160401b03808211156156e957600080fd5b6156f58883890161556c565b9550602087013591508082111561570b57600080fd5b506157188782880161556c565b949794965050505060408301359260600135919050565b801515811461104c57600080fd5b60006020828403121561574f57600080fd5b8135610e508161572f565b6000806040838503121561576d57600080fd5b50508035926020909101359150565b6000806040838503121561578f57600080fd5b8235915060208301356157a1816154f8565b809150509250929050565b6000806000606084860312156157c157600080fd5b505081359360208301359350604090920135919050565b600080604083850312156157eb57600080fd5b82356004811061552b57600080fd5b6000806040838503121561580d57600080fd5b8235615818816154f8565b915060208301356157a18161572f565b6000806040838503121561583b57600080fd5b8235615846816154f8565b915060208301356157a1816154f8565b634e487b7160e01b600052601160045260246000fd5b81810381811115610bbd57610bbd615856565b600181811c9082168061589357607f821691505b602082108103610e2b57634e487b7160e01b600052602260045260246000fd5b6000602082840312156158c557600080fd5b8151610e50816154f8565b6001600160a01b039485168152602081019390935292166040820152901515606082015260800190565b60006020828403121561590c57600080fd5b815160ff81168114610e5057600080fd5b6020808252602c908201527f46756e6374696f6e206d7573742062652063616c6c6564207468726f7567682060408201526b19195b1959d85d1958d85b1b60a21b606082015260800190565b6020808252602c908201527f46756e6374696f6e206d7573742062652063616c6c6564207468726f7567682060408201526b6163746976652070726f787960a01b606082015260800190565b80820180821115610bbd57610bbd615856565b6001600160a01b039586168152602081019490945260408401929092529092166060820152901515608082015260a00190565b60208082526021908201527f5468652063616c6c6572206d7573742062652074686520506f6c696379506f6f6040820152601b60fa1b606082015260800190565b600060208284031215615a4e57600080fd5b8151610e508161572f565b60208082526022908201527f4c69717569646974792050726f7669646572206e6f742077686974656c697374604082015261195960f21b606082015260800190565b600060208284031215615aad57600080fd5b5051919050565b6020808252602b908201527f45546f6b656e3a20426f72726f7765722063616e6e6f7420626520746865207a60408201526a65726f206164647265737360a81b606082015260800190565b6020808252601d908201527f5468652063616c6c6572206d757374206265206120626f72726f776572000000604082015260600190565b634e487b7160e01b600052602160045260246000fd5b6000600160ff1b8201615b6157615b61615856565b5060000390565b60008251615b7a818460208701615495565b9190910192915050565b6020808252602b908201527f496e697469616c697a61626c653a20636f6e7472616374206973206e6f74206960408201526a6e697469616c697a696e6760a81b606082015260800190565b601f821115611e9457600081815260208120601f850160051c81016020861015615bf65750805b601f850160051c820191505b81811015612c9157828155600101615c02565b81516001600160401b03811115615c2e57615c2e615556565b615c4281615c3c845461587f565b84615bcf565b602080601f831160018114615c775760008415615c5f5750858301515b600019600386901b1c1916600185901b178555612c91565b600085815260208120601f198616915b82811015615ca657888601518255948401946001909101908401615c87565b5085821015615cc45787850151600019600388901b60f8161c191681555b5050505050600190811b01905550565b63ffffffff828116828216039080821115615cf157615cf1615856565b5092915050565b6000816000190483118215151615615d1257615d12615856565b500290565b600082615d3457634e487b7160e01b600052601260045260246000fd5b500490565b6001600160701b03828116828216039080821115615cf157615cf1615856565b6001600160701b03818116838216019080821115615cf157615cf1615856565b8082018281126000831280158216821582161715615d9957615d99615856565b505092915050565b60ff8281168282160390811115610bbd57610bbd615856565b64ffffffffff828116828216039080821115615cf157615cf161585656fe360894a13ba1a3210667c828492db98dca3e2076cc3735a920a3ca505d382bbcbf372ca3ebecfe59ac256f17697941bbe63302aced610e8b0e3646f743c7beb2416464726573733a206c6f772d6c6576656c2064656c65676174652063616c6c206661696c6564a82e22387fca439f316d78ca566f383218ab8ae1b3e830178c9c82cbd16749c055435dd261a4b9b3364963f7738a7a662ad9c84396d64be3365284bb7f0a5041a2646970667358221220dc81587bb0b712a7144a9cacbfd0027f7390867af62b063b80174f76c5c30cb964736f6c63430008100033",
  "linkReferences": {},
  "deployedLinkReferences": {}
}