{
  "_format": "hh-sol-artifact-1",
  "contractName": "PremiumsAccount",
  "sourceName": "contracts/PremiumsAccount.sol",
  "abi": [
    {
      "inputs": [
        {
          "internalType": "contract IPolicyPool",
          "name": "policyPool_",
          "type": "address"
        },
        {
          "internalType": "contract IEToken",
          "name": "juniorEtk_",
          "type": "address"
        },
        {
          "internalType": "contract IEToken",
          "name": "seniorEtk_",
          "type": "address"
        }
      ],
      "stateMutability": "nonpayable",
      "type": "constructor"
    },
    {
      "anonymous": false,
      "inputs": [
        {
          "indexed": false,
          "internalType": "address",
          "name": "previousAdmin",
          "type": "address"
        },
        {
          "indexed": false,
          "internalType": "address",
          "name": "newAdmin",
          "type": "address"
        }
      ],
      "name": "AdminChanged",
      "type": "event"
    },
    {
      "anonymous": false,
      "inputs": [
        {
          "indexed": true,
          "internalType": "address",
          "name": "beacon",
          "type": "address"
        }
      ],
      "name": "BeaconUpgraded",
      "type": "event"
    },
    {
      "anonymous": false,
      "inputs": [
        {
          "indexed": true,
          "internalType": "enum IAccessManager.GovernanceActions",
          "name": "action",
          "type": "uint8"
        },
        {
          "indexed": false,
          "internalType": "address",
          "name": "value",
          "type": "address"
        }
      ],
      "name": "ComponentChanged",
      "type": "event"
    },
    {
      "anonymous": false,
      "inputs": [
        {
          "indexed": true,
          "internalType": "enum IAccessManager.GovernanceActions",
          "name": "action",
          "type": "uint8"
        },
        {
          "indexed": false,
          "internalType": "uint256",
          "name": "value",
          "type": "uint256"
        }
      ],
      "name": "GovernanceAction",
      "type": "event"
    },
    {
      "anonymous": false,
      "inputs": [
        {
          "indexed": false,
          "internalType": "uint8",
          "name": "version",
          "type": "uint8"
        }
      ],
      "name": "Initialized",
      "type": "event"
    },
    {
      "anonymous": false,
      "inputs": [
        {
          "indexed": false,
          "internalType": "address",
          "name": "account",
          "type": "address"
        }
      ],
      "name": "Paused",
      "type": "event"
    },
    {
      "anonymous": false,
      "inputs": [
        {
          "indexed": false,
          "internalType": "address",
          "name": "account",
          "type": "address"
        }
      ],
      "name": "Unpaused",
      "type": "event"
    },
    {
      "anonymous": false,
      "inputs": [
        {
          "indexed": true,
          "internalType": "address",
          "name": "implementation",
          "type": "address"
        }
      ],
      "name": "Upgraded",
      "type": "event"
    },
    {
      "anonymous": false,
      "inputs": [
        {
          "indexed": false,
          "internalType": "bool",
          "name": "moneyIn",
          "type": "bool"
        },
        {
          "indexed": false,
          "internalType": "uint256",
          "name": "value",
          "type": "uint256"
        }
      ],
      "name": "WonPremiumsInOut",
      "type": "event"
    },
    {
      "inputs": [],
      "name": "GUARDIAN_ROLE",
      "outputs": [
        {
          "internalType": "bytes32",
          "name": "",
          "type": "bytes32"
        }
      ],
      "stateMutability": "view",
      "type": "function"
    },
    {
      "inputs": [],
      "name": "LEVEL1_ROLE",
      "outputs": [
        {
          "internalType": "bytes32",
          "name": "",
          "type": "bytes32"
        }
      ],
      "stateMutability": "view",
      "type": "function"
    },
    {
      "inputs": [],
      "name": "LEVEL2_ROLE",
      "outputs": [
        {
          "internalType": "bytes32",
          "name": "",
          "type": "bytes32"
        }
      ],
      "stateMutability": "view",
      "type": "function"
    },
    {
      "inputs": [],
      "name": "LEVEL3_ROLE",
      "outputs": [
        {
          "internalType": "bytes32",
          "name": "",
          "type": "bytes32"
        }
      ],
      "stateMutability": "view",
      "type": "function"
    },
    {
      "inputs": [],
      "name": "REPAY_LOANS_ROLE",
      "outputs": [
        {
          "internalType": "bytes32",
          "name": "",
          "type": "bytes32"
        }
      ],
      "stateMutability": "view",
      "type": "function"
    },
    {
      "inputs": [],
      "name": "TWEAK_EXPIRATION",
      "outputs": [
        {
          "internalType": "uint40",
          "name": "",
          "type": "uint40"
        }
      ],
      "stateMutability": "view",
      "type": "function"
    },
    {
      "inputs": [],
      "name": "WITHDRAW_WON_PREMIUMS_ROLE",
      "outputs": [
        {
          "internalType": "bytes32",
          "name": "",
          "type": "bytes32"
        }
      ],
      "stateMutability": "view",
      "type": "function"
    },
    {
      "inputs": [],
      "name": "activePurePremiums",
      "outputs": [
        {
          "internalType": "uint256",
          "name": "",
          "type": "uint256"
        }
      ],
      "stateMutability": "view",
      "type": "function"
    },
    {
      "inputs": [],
      "name": "assetManager",
      "outputs": [
        {
          "internalType": "contract IAssetManager",
          "name": "",
          "type": "address"
        }
      ],
      "stateMutability": "view",
      "type": "function"
    },
    {
      "inputs": [],
      "name": "borrowedActivePP",
      "outputs": [
        {
          "internalType": "uint256",
          "name": "",
          "type": "uint256"
        }
      ],
      "stateMutability": "view",
      "type": "function"
    },
    {
      "inputs": [],
      "name": "checkpoint",
      "outputs": [],
      "stateMutability": "nonpayable",
      "type": "function"
    },
    {
      "inputs": [],
      "name": "currency",
      "outputs": [
        {
          "internalType": "contract IERC20Metadata",
          "name": "",
          "type": "address"
        }
      ],
      "stateMutability": "view",
      "type": "function"
    },
    {
      "inputs": [],
      "name": "deficitRatio",
      "outputs": [
        {
          "internalType": "uint256",
          "name": "",
          "type": "uint256"
        }
      ],
      "stateMutability": "view",
      "type": "function"
    },
    {
      "inputs": [
        {
          "internalType": "bytes",
          "name": "functionCall",
          "type": "bytes"
        }
      ],
      "name": "forwardToAssetManager",
      "outputs": [
        {
          "internalType": "bytes",
          "name": "",
          "type": "bytes"
        }
      ],
      "stateMutability": "nonpayable",
      "type": "function"
    },
    {
      "inputs": [],
      "name": "fundsAvailable",
      "outputs": [
        {
          "internalType": "uint256",
          "name": "",
          "type": "uint256"
        }
      ],
      "stateMutability": "view",
      "type": "function"
    },
    {
      "inputs": [],
      "name": "initialize",
      "outputs": [],
      "stateMutability": "nonpayable",
      "type": "function"
    },
    {
      "inputs": [],
      "name": "jrLoanLimit",
      "outputs": [
        {
          "internalType": "uint256",
          "name": "",
          "type": "uint256"
        }
      ],
      "stateMutability": "view",
      "type": "function"
    },
    {
      "inputs": [],
      "name": "juniorEtk",
      "outputs": [
        {
          "internalType": "contract IEToken",
          "name": "",
          "type": "address"
        }
      ],
      "stateMutability": "view",
      "type": "function"
    },
    {
      "inputs": [],
      "name": "lastTweak",
      "outputs": [
        {
          "internalType": "uint40",
          "name": "",
          "type": "uint40"
        },
        {
          "internalType": "uint56",
          "name": "",
          "type": "uint56"
        }
      ],
      "stateMutability": "view",
      "type": "function"
    },
    {
      "inputs": [],
      "name": "pause",
      "outputs": [],
      "stateMutability": "nonpayable",
      "type": "function"
    },
    {
      "inputs": [],
      "name": "paused",
      "outputs": [
        {
          "internalType": "bool",
          "name": "",
          "type": "bool"
        }
      ],
      "stateMutability": "view",
      "type": "function"
    },
    {
      "inputs": [
        {
          "components": [
            {
              "internalType": "uint256",
              "name": "id",
              "type": "uint256"
            },
            {
              "internalType": "uint256",
              "name": "payout",
              "type": "uint256"
            },
            {
              "internalType": "uint256",
              "name": "premium",
              "type": "uint256"
            },
            {
              "internalType": "uint256",
              "name": "jrScr",
              "type": "uint256"
            },
            {
              "internalType": "uint256",
              "name": "srScr",
              "type": "uint256"
            },
            {
              "internalType": "uint256",
              "name": "lossProb",
              "type": "uint256"
            },
            {
              "internalType": "uint256",
              "name": "purePremium",
              "type": "uint256"
            },
            {
              "internalType": "uint256",
              "name": "ensuroCommission",
              "type": "uint256"
            },
            {
              "internalType": "uint256",
              "name": "partnerCommission",
              "type": "uint256"
            },
            {
              "internalType": "uint256",
              "name": "jrCoc",
              "type": "uint256"
            },
            {
              "internalType": "uint256",
              "name": "srCoc",
              "type": "uint256"
            },
            {
              "internalType": "contract IRiskModule",
              "name": "riskModule",
              "type": "address"
            },
            {
              "internalType": "uint40",
              "name": "start",
              "type": "uint40"
            },
            {
              "internalType": "uint40",
              "name": "expiration",
              "type": "uint40"
            }
          ],
          "internalType": "struct Policy.PolicyData",
          "name": "policy",
          "type": "tuple"
        }
      ],
      "name": "policyCreated",
      "outputs": [],
      "stateMutability": "nonpayable",
      "type": "function"
    },
    {
      "inputs": [
        {
          "components": [
            {
              "internalType": "uint256",
              "name": "id",
              "type": "uint256"
            },
            {
              "internalType": "uint256",
              "name": "payout",
              "type": "uint256"
            },
            {
              "internalType": "uint256",
              "name": "premium",
              "type": "uint256"
            },
            {
              "internalType": "uint256",
              "name": "jrScr",
              "type": "uint256"
            },
            {
              "internalType": "uint256",
              "name": "srScr",
              "type": "uint256"
            },
            {
              "internalType": "uint256",
              "name": "lossProb",
              "type": "uint256"
            },
            {
              "internalType": "uint256",
              "name": "purePremium",
              "type": "uint256"
            },
            {
              "internalType": "uint256",
              "name": "ensuroCommission",
              "type": "uint256"
            },
            {
              "internalType": "uint256",
              "name": "partnerCommission",
              "type": "uint256"
            },
            {
              "internalType": "uint256",
              "name": "jrCoc",
              "type": "uint256"
            },
            {
              "internalType": "uint256",
              "name": "srCoc",
              "type": "uint256"
            },
            {
              "internalType": "contract IRiskModule",
              "name": "riskModule",
              "type": "address"
            },
            {
              "internalType": "uint40",
              "name": "start",
              "type": "uint40"
            },
            {
              "internalType": "uint40",
              "name": "expiration",
              "type": "uint40"
            }
          ],
          "internalType": "struct Policy.PolicyData",
          "name": "policy",
          "type": "tuple"
        }
      ],
      "name": "policyExpired",
      "outputs": [],
      "stateMutability": "nonpayable",
      "type": "function"
    },
    {
      "inputs": [],
      "name": "policyPool",
      "outputs": [
        {
          "internalType": "contract IPolicyPool",
          "name": "",
          "type": "address"
        }
      ],
      "stateMutability": "view",
      "type": "function"
    },
    {
      "inputs": [
        {
          "internalType": "address",
          "name": "policyHolder",
          "type": "address"
        },
        {
          "components": [
            {
              "internalType": "uint256",
              "name": "id",
              "type": "uint256"
            },
            {
              "internalType": "uint256",
              "name": "payout",
              "type": "uint256"
            },
            {
              "internalType": "uint256",
              "name": "premium",
              "type": "uint256"
            },
            {
              "internalType": "uint256",
              "name": "jrScr",
              "type": "uint256"
            },
            {
              "internalType": "uint256",
              "name": "srScr",
              "type": "uint256"
            },
            {
              "internalType": "uint256",
              "name": "lossProb",
              "type": "uint256"
            },
            {
              "internalType": "uint256",
              "name": "purePremium",
              "type": "uint256"
            },
            {
              "internalType": "uint256",
              "name": "ensuroCommission",
              "type": "uint256"
            },
            {
              "internalType": "uint256",
              "name": "partnerCommission",
              "type": "uint256"
            },
            {
              "internalType": "uint256",
              "name": "jrCoc",
              "type": "uint256"
            },
            {
              "internalType": "uint256",
              "name": "srCoc",
              "type": "uint256"
            },
            {
              "internalType": "contract IRiskModule",
              "name": "riskModule",
              "type": "address"
            },
            {
              "internalType": "uint40",
              "name": "start",
              "type": "uint40"
            },
            {
              "internalType": "uint40",
              "name": "expiration",
              "type": "uint40"
            }
          ],
          "internalType": "struct Policy.PolicyData",
          "name": "policy",
          "type": "tuple"
        },
        {
          "internalType": "uint256",
          "name": "payout",
          "type": "uint256"
        }
      ],
      "name": "policyResolvedWithPayout",
      "outputs": [],
      "stateMutability": "nonpayable",
      "type": "function"
    },
    {
      "inputs": [],
      "name": "proxiableUUID",
      "outputs": [
        {
          "internalType": "bytes32",
          "name": "",
          "type": "bytes32"
        }
      ],
      "stateMutability": "view",
      "type": "function"
    },
    {
      "inputs": [],
      "name": "purePremiums",
      "outputs": [
        {
          "internalType": "uint256",
          "name": "",
          "type": "uint256"
        }
      ],
      "stateMutability": "view",
      "type": "function"
    },
    {
      "inputs": [],
      "name": "rebalance",
      "outputs": [],
      "stateMutability": "nonpayable",
      "type": "function"
    },
    {
      "inputs": [
        {
          "internalType": "uint256",
          "name": "amount",
          "type": "uint256"
        }
      ],
      "name": "receiveGrant",
      "outputs": [],
      "stateMutability": "nonpayable",
      "type": "function"
    },
    {
      "inputs": [],
      "name": "recordEarnings",
      "outputs": [],
      "stateMutability": "nonpayable",
      "type": "function"
    },
    {
      "inputs": [],
      "name": "repayLoans",
      "outputs": [
        {
          "internalType": "uint256",
          "name": "available",
          "type": "uint256"
        }
      ],
      "stateMutability": "nonpayable",
      "type": "function"
    },
    {
      "inputs": [],
      "name": "seniorEtk",
      "outputs": [
        {
          "internalType": "contract IEToken",
          "name": "",
          "type": "address"
        }
      ],
      "stateMutability": "view",
      "type": "function"
    },
    {
      "inputs": [
        {
          "internalType": "contract IAssetManager",
          "name": "newAM",
          "type": "address"
        },
        {
          "internalType": "bool",
          "name": "force",
          "type": "bool"
        }
      ],
      "name": "setAssetManager",
      "outputs": [],
      "stateMutability": "nonpayable",
      "type": "function"
    },
    {
      "inputs": [
        {
          "internalType": "uint256",
          "name": "newRatio",
          "type": "uint256"
        },
        {
          "internalType": "bool",
          "name": "adjustment",
          "type": "bool"
        }
      ],
      "name": "setDeficitRatio",
      "outputs": [],
      "stateMutability": "nonpayable",
      "type": "function"
    },
    {
      "inputs": [
        {
          "internalType": "uint256",
          "name": "newLimitJr",
          "type": "uint256"
        },
        {
          "internalType": "uint256",
          "name": "newLimitSr",
          "type": "uint256"
        }
      ],
      "name": "setLoanLimits",
      "outputs": [],
      "stateMutability": "nonpayable",
      "type": "function"
    },
    {
      "inputs": [],
      "name": "srLoanLimit",
      "outputs": [
        {
          "internalType": "uint256",
          "name": "",
          "type": "uint256"
        }
      ],
      "stateMutability": "view",
      "type": "function"
    },
    {
      "inputs": [
        {
          "internalType": "bytes4",
          "name": "interfaceId",
          "type": "bytes4"
        }
      ],
      "name": "supportsInterface",
      "outputs": [
        {
          "internalType": "bool",
          "name": "",
          "type": "bool"
        }
      ],
      "stateMutability": "view",
      "type": "function"
    },
    {
      "inputs": [],
      "name": "surplus",
      "outputs": [
        {
          "internalType": "int256",
          "name": "",
          "type": "int256"
        }
      ],
      "stateMutability": "view",
      "type": "function"
    },
    {
      "inputs": [],
      "name": "unpause",
      "outputs": [],
      "stateMutability": "nonpayable",
      "type": "function"
    },
    {
      "inputs": [
        {
          "internalType": "address",
          "name": "newImplementation",
          "type": "address"
        }
      ],
      "name": "upgradeTo",
      "outputs": [],
      "stateMutability": "nonpayable",
      "type": "function"
    },
    {
      "inputs": [
        {
          "internalType": "address",
          "name": "newImplementation",
          "type": "address"
        },
        {
          "internalType": "bytes",
          "name": "data",
          "type": "bytes"
        }
      ],
      "name": "upgradeToAndCall",
      "outputs": [],
      "stateMutability": "payable",
      "type": "function"
    },
    {
      "inputs": [
        {
          "internalType": "uint256",
          "name": "amount",
          "type": "uint256"
        },
        {
          "internalType": "address",
          "name": "destination",
          "type": "address"
        }
      ],
      "name": "withdrawWonPremiums",
      "outputs": [
        {
          "internalType": "uint256",
          "name": "",
          "type": "uint256"
        }
      ],
      "stateMutability": "nonpayable",
      "type": "function"
    },
    {
      "inputs": [],
      "name": "wonPurePremiums",
      "outputs": [
        {
          "internalType": "uint256",
          "name": "",
          "type": "uint256"
        }
      ],
      "stateMutability": "view",
      "type": "function"
    }
  ],
  "bytecode": "0x610120604052306080523480156200001657600080fd5b5060405162005141380380620051418339810160408190526200003991620002bb565b82806001600160a01b038116620000bd5760405162461bcd60e51b815260206004820152603660248201527f506f6c696379506f6f6c436f6d706f6e656e743a20706f6c696379506f6f6c2060448201527f63616e6e6f74206265207a65726f20616464726573730000000000000000000060648201526084015b60405180910390fd5b620000c7620001e4565b806001600160a01b031660a0816001600160a01b031681525050506002816001600160a01b031663e5a6b10f6040518163ffffffff1660e01b8152600401602060405180830381865afa15801562000123573d6000803e3d6000fd5b505050506040513d601f19601f820116820180604052508101906200014991906200030f565b6001600160a01b031663313ce5676040518163ffffffff1660e01b8152600401602060405180830381865afa15801562000187573d6000803e3d6000fd5b505050506040513d601f19601f82011682018060405250810190620001ad919062000336565b620001b9919062000371565b620001c690600a620004a1565b60c052506001600160a01b0391821660e052166101005250620004b2565b600054610100900460ff16156200024e5760405162461bcd60e51b815260206004820152602760248201527f496e697469616c697a61626c653a20636f6e747261637420697320696e697469604482015266616c697a696e6760c81b6064820152608401620000b4565b60005460ff90811614620002a0576000805460ff191660ff9081179091556040519081527f7f26b83ff96e1f2b6a682f133852f6798a09c465da95921460cefb38474024989060200160405180910390a15b565b6001600160a01b0381168114620002b857600080fd5b50565b600080600060608486031215620002d157600080fd5b8351620002de81620002a2565b6020850151909350620002f181620002a2565b60408501519092506200030481620002a2565b809150509250925092565b6000602082840312156200032257600080fd5b81516200032f81620002a2565b9392505050565b6000602082840312156200034957600080fd5b815160ff811681146200032f57600080fd5b634e487b7160e01b600052601160045260246000fd5b600060ff8316806200039357634e487b7160e01b600052601260045260246000fd5b8060ff84160491505092915050565b600181815b80851115620003e3578160001904821115620003c757620003c76200035b565b80851615620003d557918102915b93841c9390800290620003a7565b509250929050565b600082620003fc575060016200049b565b816200040b575060006200049b565b81600181146200042457600281146200042f576200044f565b60019150506200049b565b60ff8411156200044357620004436200035b565b50506001821b6200049b565b5060208310610133831016604e8410600b841016171562000474575081810a6200049b565b620004808383620003a2565b80600019048211156200049757620004976200035b565b0290505b92915050565b60006200032f60ff841683620003eb565b60805160a05160c05160e05161010051614b2b620006166000396000818161054901528181611e150152818161216e015281816121a401528181612b0401528181612bad01528181612fad015281816136e401526137800152600081816104ca01528181610f3901528181611d77015281816121d70152818161220d015281816127a901528181612851015281816128e20152818161297c01528181612a0f01528181612eee015281816135af015261364b015260008181612abf01528181612c1f015261313f0152600081816103fc0152818161081001528181610a8101528181610cfa015281816112530152818161134e0152818161157c0152818161166f015281816118c70152818161196701528181611d0201528181611eae01528181611f730152818161206d015281816123390152613ef0015260008181610983015281816109cc01528181610c0701528181610c470152610f8f0152614b2b6000f3fe60806040526004361061025c5760003560e01c80635c975abb116101445780639d8c5ee7116100b6578063d80359f11161007a578063d80359f114610730578063e3638ea314610750578063e5a6b10f14610770578063e823584a14610785578063f39a4bc51461079a578063f67b2bad146107af57600080fd5b80639d8c5ee714610687578063a0ce58b8146106a7578063aac0cfaf146106c7578063c2c4c5c1146106fb578063c7a9c70d1461071057600080fd5b80638129fc1c116101085780638129fc1c146105c457806381ced71f146105d95780638456cb59146105f95780638ca23bc91461060e57806394217ad11461064257806397a146c01461066757600080fd5b80635c975abb146105225780637b83037b1461053a5780637bb623191461056d5780637d7c2a1c146105825780637ed5acfa1461059757600080fd5b80634863c8b0116101dd5780634fe0bd1e116101a15780634fe0bd1e1461045c57806350093f041461047157806352d1902d14610491578063536c9a43146104a6578063536ebbfc146104bb5780635b494dd5146104ee57600080fd5b80634863c8b0146103b65780634a47a3e0146103cb5780634d15eb03146103ed5780634eb978a4146104345780634f1ef2861461044957600080fd5b806326ccbd221161022457806326ccbd221461031b5780632d8f892a146103305780633659cfe6146103455780633f4ba83a14610367578063468a8c9f1461037c57600080fd5b806301ffc9a71461026157806313888565146102965780631a548a27146102b65780631e9c4658146102cc57806324ea54f4146102f9575b600080fd5b34801561026d57600080fd5b5061028161027c3660046141f3565b6107d1565b60405190151581526020015b60405180910390f35b3480156102a257600080fd5b5061012e545b60405190815260200161028d565b3480156102c257600080fd5b5061012d546102a8565b3480156102d857600080fd5b506102ec6102e73660046142ea565b6107fd565b60405161028d919061436f565b34801561030557600080fd5b506102a8600080516020614ad683398151915281565b34801561032757600080fd5b506102a8610926565b34801561033c57600080fd5b506102a861093f565b34801561035157600080fd5b50610365610360366004614397565b610979565b005b34801561037357600080fd5b50610365610a61565b34801561038857600080fd5b5060c9546040805164ffffffffff83168152600160281b90920466ffffffffffffff1660208301520161028d565b3480156103c257600080fd5b506102a8610b71565b3480156103d757600080fd5b506102a8600080516020614ab683398151915281565b3480156103f957600080fd5b507f00000000000000000000000000000000000000000000000000000000000000005b6040516001600160a01b03909116815260200161028d565b34801561044057600080fd5b50610365610b8d565b6103656104573660046143b4565b610bfd565b34801561046857600080fd5b506102a8610cc9565b34801561047d57600080fd5b5061036561048c366004614412565b610ce9565b34801561049d57600080fd5b506102a8610f82565b3480156104b257600080fd5b506102a8611035565b3480156104c757600080fd5b507f000000000000000000000000000000000000000000000000000000000000000061041c565b3480156104fa57600080fd5b506102a87f5ec196419322369c6bac572d883f4d990ae5ec82f7d93cdf89b85dbb05b63c2781565b34801561052e57600080fd5b5060975460ff16610281565b34801561054657600080fd5b507f000000000000000000000000000000000000000000000000000000000000000061041c565b34801561057957600080fd5b506102a8611050565b34801561058e57600080fd5b50610365611083565b3480156105a357600080fd5b506105ae6201518081565b60405164ffffffffff909116815260200161028d565b3480156105d057600080fd5b506103656110d2565b3480156105e557600080fd5b506103656105f4366004614442565b6111e3565b34801561060557600080fd5b50610365611242565b34801561061a57600080fd5b506102a87fa23b11d346b90fc279e0a917152caf41f3c1247b12211b7cbc0e0e3f8b79405781565b34801561064e57600080fd5b5061012f546201000090046001600160a01b031661041c565b34801561067357600080fd5b5061036561068236600461445b565b61133d565b34801561069357600080fd5b506103656106a2366004614569565b611579565b3480156106b357600080fd5b506102a86106c23660046145aa565b61164a565b3480156106d357600080fd5b506102a87f963ce71e8efef763efaed378c32433e843c9e3083032dec79fa806375f2fc7aa81565b34801561070757600080fd5b506103656118aa565b34801561071c57600080fd5b5061036561072b3660046145cf565b6118c4565b34801561073c57600080fd5b5061036561074b3660046145ec565b611947565b34801561075c57600080fd5b5061036561076b3660046145cf565b611cff565b34801561077c57600080fd5b5061041c611eaa565b34801561079157600080fd5b506102a8611f2e565b3480156107a657600080fd5b506102a8611f4e565b3480156107bb57600080fd5b506102a8600080516020614a6f83398151915281565b60006107dc82612238565b806107f757506001600160e01b03198216632dd9c4bb60e21b145b92915050565b6060600080516020614ab68339815191527f00000000000000000000000000000000000000000000000000000000000000006001600160a01b03166371907f176040518163ffffffff1660e01b8152600401602060405180830381865afa15801561086c573d6000803e3d6000fd5b505050506040513d601f19601f82011682018060405250810190610890919061461a565b6001600160a01b0316635ff57d2030833360016040518563ffffffff1660e01b81526004016108c29493929190614637565b60006040518083038186803b1580156108da57600080fd5b505afa1580156108ee573d6000803e3d6000fd5b5050505061091f8361091061012f546001600160a01b03620100009091041690565b6001600160a01b03169061226e565b9392505050565b600061012e5461012d5461093a9190614677565b905090565b61012f54600090600160b01b900463ffffffff16156109725761012f5461093a90600160b01b900463ffffffff16612293565b5060001990565b6001600160a01b037f00000000000000000000000000000000000000000000000000000000000000001630036109ca5760405162461bcd60e51b81526004016109c19061469f565b60405180910390fd5b7f00000000000000000000000000000000000000000000000000000000000000006001600160a01b0316610a13600080516020614a4f833981519152546001600160a01b031690565b6001600160a01b031614610a395760405162461bcd60e51b81526004016109c1906146eb565b610a4281612319565b60408051600080825260208201909252610a5e91839190612426565b50565b600080516020614ad6833981519152600080516020614a6f8339815191527f00000000000000000000000000000000000000000000000000000000000000006001600160a01b03166371907f176040518163ffffffff1660e01b8152600401602060405180830381865afa158015610add573d6000803e3d6000fd5b505050506040513d601f19601f82011682018060405250810190610b01919061461a565b6001600160a01b0316632b1cff1f3084843360016040518663ffffffff1660e01b8152600401610b35959493929190614737565b60006040518083038186803b158015610b4d57600080fd5b505afa158015610b61573d6000803e3d6000fd5b50505050610b6d612591565b5050565b61012f5460009061093a90655af3107a40009061ffff1661476a565b610b956125e3565b6040805160048152602481019091526020810180516001600160e01b03166313ae5e2960e21b179052600090610bdf9061091061012f546001600160a01b03620100009091041690565b9050610a5e81806020019051810190610bf89190614789565b612629565b6001600160a01b037f0000000000000000000000000000000000000000000000000000000000000000163003610c455760405162461bcd60e51b81526004016109c19061469f565b7f00000000000000000000000000000000000000000000000000000000000000006001600160a01b0316610c8e600080516020614a4f833981519152546001600160a01b031690565b6001600160a01b031614610cb45760405162461bcd60e51b81526004016109c1906146eb565b610cbd82612319565b610b6d82826001612426565b6000610cdb610cd6610b71565b612693565b61012e5461093a91906147a2565b600080516020614ab68339815191527f00000000000000000000000000000000000000000000000000000000000000006001600160a01b03166371907f176040518163ffffffff1660e01b8152600401602060405180830381865afa158015610d56573d6000803e3d6000fd5b505050506040513d601f19601f82011682018060405250810190610d7a919061461a565b6001600160a01b0316635ff57d2030833360016040518563ffffffff1660e01b8152600401610dac9493929190614637565b60006040518083038186803b158015610dc457600080fd5b505afa158015610dd8573d6000803e3d6000fd5b505050506000610df8655af3107a400085610df391906147c2565b6126ad565b905083610e0f655af3107a400061ffff841661476a565b14610e6e5760405162461bcd60e51b815260206004820152602960248201527f56616c69646174696f6e3a206f6e6c7920757020746f203420646563696d616c6044820152681cc8185b1b1bddd95960ba1b60648201526084016109c1565b6000610e7985612693565b90508380610e8a57508061012e5412155b610ee85760405162461bcd60e51b815260206004820152602960248201527f56616c69646174696f6e3a20737572706c7573206d757374206265203e3d206d604482015268185e1119599a58da5d60ba1b60648201526084016109c1565b61012f805461ffff191661ffff8416179055610f02612710565b61012e54602090821315610f6e5760008261012e54610f20906147e4565b610f2a9190614677565b61012e8490559050610f6881307f00000000000000000000000000000000000000000000000000000000000000006001600160a01b03161515612783565b60219150505b610f7a81876000612ca6565b505050505050565b6000306001600160a01b037f000000000000000000000000000000000000000000000000000000000000000016146110225760405162461bcd60e51b815260206004820152603860248201527f555550535570677261646561626c653a206d757374206e6f742062652063616c60448201527f6c6564207468726f7567682064656c656761746563616c6c000000000000000060648201526084016109c1565b50600080516020614a4f83398151915290565b60008061012e5412156110485750600090565b5061012e5490565b61012f54600090600160d01b900463ffffffff16156109725761012f5461093a90600160d01b900463ffffffff16612293565b61108b6125e3565b6040805160048152602481019091526020810180516001600160e01b0316631f5f0a8760e21b179052610a5e9061091061012f546001600160a01b03620100009091041690565b600054610100900460ff16158080156110f25750600054600160ff909116105b8061110c5750303b15801561110c575060005460ff166001145b61116f5760405162461bcd60e51b815260206004820152602e60248201527f496e697469616c697a61626c653a20636f6e747261637420697320616c72656160448201526d191e481a5b9a5d1a585b1a5e995960921b60648201526084016109c1565b6000805460ff191660011790558015611192576000805461ff0019166101001790555b61119a612d07565b8015610a5e576000805461ff0019169055604051600181527f7f26b83ff96e1f2b6a682f133852f6798a09c465da95921460cefb3847402498906020015b60405180910390a150565b6111ec81612d3e565b61120b3330836111fa611eaa565b6001600160a01b0316929190612d59565b6040805160018152602081018390527fd60d524f1cae273480bb0a4ddfb992b6ac0b61c8e12ffbe2e4e31463f9e9019991016111d8565b600080516020614ad68339815191527f00000000000000000000000000000000000000000000000000000000000000006001600160a01b03166371907f176040518163ffffffff1660e01b8152600401602060405180830381865afa1580156112af573d6000803e3d6000fd5b505050506040513d601f19601f820116820180604052508101906112d3919061461a565b6001600160a01b0316635ff57d2030833360016040518563ffffffff1660e01b81526004016113059493929190614637565b60006040518083038186803b15801561131d57600080fd5b505afa158015611331573d6000803e3d6000fd5b50505050610a5e612dc4565b600080516020614ab68339815191527f00000000000000000000000000000000000000000000000000000000000000006001600160a01b03166371907f176040518163ffffffff1660e01b8152600401602060405180830381865afa1580156113aa573d6000803e3d6000fd5b505050506040513d601f19601f820116820180604052508101906113ce919061461a565b6001600160a01b0316635ff57d2030833360016040518563ffffffff1660e01b81526004016114009493929190614637565b60006040518083038186803b15801561141857600080fd5b505afa15801561142c573d6000803e3d6000fd5b5050505060001983146114d25761144283612e01565b61012f805463ffffffff60b01b1916600160b01b63ffffffff938416810291909117918290558592611478929190910416612293565b146114c55760405162461bcd60e51b815260206004820152601f60248201527f56616c69646174696f6e3a206e6f20646563696d616c7320616c6c6f7765640060448201526064016109c1565b6114d26022846000612ca6565b6000198214611574576114e482612e01565b61012f805463ffffffff60d01b1916600160d01b63ffffffff93841681029190911791829055849261151a929190910416612293565b146115675760405162461bcd60e51b815260206004820152601f60248201527f56616c69646174696f6e3a206e6f20646563696d616c7320616c6c6f7765640060448201526064016109c1565b6115746023836000612ca6565b505050565b337f00000000000000000000000000000000000000000000000000000000000000006001600160a01b0316146115c15760405162461bcd60e51b81526004016109c190614800565b6115c96125e3565b8160c0015161012d60008282546115e09190614841565b909155505060c0820151600090611600906115fb90846147a2565b612e89565b905080156116285761161183612ee2565b61162381856000866060015111612783565b611631565b61163183612ee2565b6116448461163f8385614841565b613032565b50505050565b60007fa23b11d346b90fc279e0a917152caf41f3c1247b12211b7cbc0e0e3f8b7940577f00000000000000000000000000000000000000000000000000000000000000006001600160a01b03166371907f176040518163ffffffff1660e01b8152600401602060405180830381865afa1580156116cb573d6000803e3d6000fd5b505050506040513d601f19601f820116820180604052508101906116ef919061461a565b6001600160a01b0316635ff57d2030833360016040518563ffffffff1660e01b81526004016117219493929190614637565b60006040518083038186803b15801561173957600080fd5b505afa15801561174d573d6000803e3d6000fd5b5050506001600160a01b03841690506117ce5760405162461bcd60e51b815260206004820152603760248201527f5072656d69756d734163636f756e743a2064657374696e6174696f6e2063616e60448201527f6e6f7420626520746865207a65726f206164647265737300000000000000000060648201526084016109c1565b600061012e54136117e257600093506117f2565b6117ef8461012e5461318f565b93505b600084116118425760405162461bcd60e51b815260206004820152601760248201527f4e6f207072656d69756d7320746f20776974686472617700000000000000000060448201526064016109c1565b8361012e600082825461185591906147a2565b9091555061186590508385613032565b6040805160008152602081018690527fd60d524f1cae273480bb0a4ddfb992b6ac0b61c8e12ffbe2e4e31463f9e90199910160405180910390a18391505b5092915050565b6118b26125e3565b6118ba610b8d565b6118c2611083565b565b337f00000000000000000000000000000000000000000000000000000000000000006001600160a01b03161461190c5760405162461bcd60e51b81526004016109c190614800565b6119146125e3565b8060c0015161012d600082825461192b9190614841565b909155505060c081015161193e90612d3e565b610a5e81612ee2565b600080516020614ad6833981519152600080516020614a6f8339815191527f00000000000000000000000000000000000000000000000000000000000000006001600160a01b03166371907f176040518163ffffffff1660e01b8152600401602060405180830381865afa1580156119c3573d6000803e3d6000fd5b505050506040513d601f19601f820116820180604052508101906119e7919061461a565b6001600160a01b0316632b1cff1f3084843360016040518663ffffffff1660e01b8152600401611a1b959493929190614737565b60006040518083038186803b158015611a3357600080fd5b505afa158015611a47573d6000803e3d6000fd5b505050506001600160a01b0384161580611acb57506040516301ffc9a760e01b8152631e670a9760e21b60048201526001600160a01b038516906301ffc9a790602401602060405180830381865afa158015611aa7573d6000803e3d6000fd5b505050506040513d601f19601f82011682018060405250810190611acb9190614854565b611b3f576040805162461bcd60e51b81526020600482015260248101919091527f526573657276653a206173736574206d616e6167657220646f65736e2774206960448201527f6d706c656d656e74732074686520726571756972656420696e7465726661636560648201526084016109c1565b61012f546201000090046001600160a01b031660028115611c6f578415611c145760408051600481526024810182526020810180516001600160e01b031663cec16f3f60e01b179052905160009182916001600160a01b03861691611ba391614871565b600060405180830381855af49150503d8060008114611bde576040519150601f19603f3d011682016040523d82523d6000602084013e611be3565b606091505b509150915081611bf65760039250611c0d565b611c0d81806020019051810190610bf89190614789565b5050611c6f565b6040805160048152602481019091526020810180516001600160e01b031663cec16f3f60e01b179052600090611c54906001600160a01b0385169061226e565b9050611c6d81806020019051810190610bf89190614789565b505b61012f805462010000600160b01b031916620100006001600160a01b0389160217905561012f546201000090046001600160a01b031691506001600160a01b03821615611cf5576040805160048152602481019091526020810180516001600160e01b031663948cb71960e01b179052611cf3906001600160a01b0384169061226e565b505b610f7a81876131a5565b337f00000000000000000000000000000000000000000000000000000000000000006001600160a01b031614611d475760405162461bcd60e51b81526004016109c190614800565b611d4f6125e3565b8060c0015161012d6000828254611d66919061488d565b9091555050606081015115611e09577f00000000000000000000000000000000000000000000000000000000000000006001600160a01b031663837c83a38260600151611db2846131ff565b6040516001600160e01b031960e085901b16815260048101929092526024820152604401600060405180830381600087803b158015611df057600080fd5b505af1158015611e04573d6000803e3d6000fd5b505050505b608081015115610a5e577f00000000000000000000000000000000000000000000000000000000000000006001600160a01b031663837c83a38260800151611e508461324b565b6040516001600160e01b031960e085901b168152600481019290925260248201526044015b600060405180830381600087803b158015611e8f57600080fd5b505af1158015611ea3573d6000803e3d6000fd5b5050505050565b60007f00000000000000000000000000000000000000000000000000000000000000006001600160a01b031663e5a6b10f6040518163ffffffff1660e01b8152600401602060405180830381865afa158015611f0a573d6000803e3d6000fd5b505050506040513d601f19601f8201168201806040525081019061093a919061461a565b60008061012e541215611f485761012e5461093a906147e4565b50600090565b60007f963ce71e8efef763efaed378c32433e843c9e3083032dec79fa806375f2fc7aa7f00000000000000000000000000000000000000000000000000000000000000006001600160a01b03166371907f176040518163ffffffff1660e01b8152600401602060405180830381865afa158015611fcf573d6000803e3d6000fd5b505050506040513d601f19601f82011682018060405250810190611ff3919061461a565b6001600160a01b031663b3efcbd23083600060016040518563ffffffff1660e01b81526004016120269493929190614637565b602060405180830381865afa158015612043573d6000803e3d6000fd5b505050506040513d601f19601f820116820180604052508101906120679190614854565b612150577f00000000000000000000000000000000000000000000000000000000000000006001600160a01b03166371907f176040518163ffffffff1660e01b8152600401602060405180830381865afa1580156120c9573d6000803e3d6000fd5b505050506040513d601f19601f820116820180604052508101906120ed919061461a565b6001600160a01b0316635ff57d2030833360016040518563ffffffff1660e01b815260040161211f9493929190614637565b60006040518083038186803b15801561213757600080fd5b505afa15801561214b573d6000803e3d6000fd5b505050505b6121586125e3565b612160610cc9565b9150811580159061219957507f00000000000000000000000000000000000000000000000000000000000000006001600160a01b031615155b156121cb576121c8827f0000000000000000000000000000000000000000000000000000000000000000613287565b91505b811580159061220257507f00000000000000000000000000000000000000000000000000000000000000006001600160a01b031615155b1561223457612231827f0000000000000000000000000000000000000000000000000000000000000000613287565b91505b5090565b60006001600160e01b031982166301ffc9a760e01b14806107f757506001600160e01b03198216634d15eb0360e01b1492915050565b606061091f8383604051806060016040528060278152602001614a8f60279139613527565b600061229d611eaa565b6001600160a01b031663313ce5676040518163ffffffff1660e01b8152600401602060405180830381865afa1580156122da573d6000803e3d6000fd5b505050506040513d601f19601f820116820180604052508101906122fe91906148a0565b61230990600a6149a7565b6107f79063ffffffff841661476a565b600080516020614ad6833981519152600080516020614a6f8339815191527f00000000000000000000000000000000000000000000000000000000000000006001600160a01b03166371907f176040518163ffffffff1660e01b8152600401602060405180830381865afa158015612395573d6000803e3d6000fd5b505050506040513d601f19601f820116820180604052508101906123b9919061461a565b6001600160a01b0316632b1cff1f3084843360016040518663ffffffff1660e01b81526004016123ed959493929190614737565b60006040518083038186803b15801561240557600080fd5b505afa158015612419573d6000803e3d6000fd5b505050506115748361359f565b7f4910fdfa16fed3260ed0e7147f7cc6da11a60208b5b9406d12a635614ffd91435460ff16156124595761157483613817565b826001600160a01b03166352d1902d6040518163ffffffff1660e01b8152600401602060405180830381865afa9250505080156124b3575060408051601f3d908101601f191682019092526124b091810190614789565b60015b6125165760405162461bcd60e51b815260206004820152602e60248201527f45524331393637557067726164653a206e657720696d706c656d656e7461746960448201526d6f6e206973206e6f74205555505360901b60648201526084016109c1565b600080516020614a4f83398151915281146125855760405162461bcd60e51b815260206004820152602960248201527f45524331393637557067726164653a20756e737570706f727465642070726f786044820152681a58589b195555525160ba1b60648201526084016109c1565b506115748383836138b3565b6125996138d8565b6097805460ff191690557f5db9ee0a495bf2e6ff9c91a7834c1ba4fdd244a5e8aa4e537bd38aeae4b073aa335b6040516001600160a01b03909116815260200160405180910390a1565b60975460ff16156118c25760405162461bcd60e51b815260206004820152601060248201526f14185d5cd8589b194e881c185d5cd95960821b60448201526064016109c1565b6000811261263a57610a5e81612d3e565b6126466115fb826147e4565b15610a5e5760405162461bcd60e51b815260206004820152601e60248201527f4c6f737365732063616e277420657863656564206d617844656669636974000060448201526064016109c1565b61012d546000906126a49083613921565b6107f7906147e4565b600061ffff8211156122345760405162461bcd60e51b815260206004820152602660248201527f53616665436173743a2076616c756520646f65736e27742066697420696e203160448201526536206269747360d01b60648201526084016109c1565b61012f5461271061ffff90911611801590612729575060015b6118c25760405162461bcd60e51b815260206004820152602560248201527f56616c69646174696f6e3a2064656669636974526174696f206d757374206265604482015264203c3d203160d81b60648201526084016109c1565b828115612abd5761279261093f565b6040516333481fc960e01b815230600482015285907f00000000000000000000000000000000000000000000000000000000000000006001600160a01b0316906333481fc990602401602060405180830381865afa1580156127f8573d6000803e3d6000fd5b505050506040513d601f19601f8201168201806040525081019061281c9190614789565b612826919061488d565b116128c5576040516330f7e76b60e21b8152600481018590526001600160a01b0384811660248301527f0000000000000000000000000000000000000000000000000000000000000000169063c3df9dac906044016020604051808303816000875af115801561289a573d6000803e3d6000fd5b505050506040513d601f19601f820116820180604052508101906128be9190614789565b9050612abd565b6128cd61093f565b6040516333481fc960e01b81523060048201527f00000000000000000000000000000000000000000000000000000000000000006001600160a01b0316906333481fc990602401602060405180830381865afa158015612931573d6000803e3d6000fd5b505050506040513d601f19601f820116820180604052508101906129559190614789565b1015612abd57600061296561093f565b6040516333481fc960e01b815230600482015286907f00000000000000000000000000000000000000000000000000000000000000006001600160a01b0316906333481fc990602401602060405180830381865afa1580156129cb573d6000803e3d6000fd5b505050506040513d601f19601f820116820180604052508101906129ef9190614789565b6129f9919061488d565b612a039190614841565b90506001600160a01b037f00000000000000000000000000000000000000000000000000000000000000001663c3df9dac612a3e8388614841565b6040516001600160e01b031960e084901b16815260048101919091526001600160a01b03871660248201526044016020604051808303816000875af1158015612a8b573d6000803e3d6000fd5b505050506040513d601f19601f82011682018060405250810190612aaf9190614789565b612ab9908261488d565b9150505b7f000000000000000000000000000000000000000000000000000000000000000081111561164457612aed611050565b6040516333481fc960e01b815230600482015282907f00000000000000000000000000000000000000000000000000000000000000006001600160a01b0316906333481fc990602401602060405180830381865afa158015612b53573d6000803e3d6000fd5b505050506040513d601f19601f82011682018060405250810190612b779190614789565b612b81919061488d565b1015612c1d576040516330f7e76b60e21b8152600481018290526001600160a01b0384811660248301527f0000000000000000000000000000000000000000000000000000000000000000169063c3df9dac906044016020604051808303816000875af1158015612bf6573d6000803e3d6000fd5b505050506040513d601f19601f82011682018060405250810190612c1a9190614789565b90505b7f00000000000000000000000000000000000000000000000000000000000000008111156116445760405162461bcd60e51b815260206004820152603060248201527f446f6e2774206b6e6f7720776865726520746f20736f7572636520746865207260448201526f657374206f6620746865206d6f6e657960801b60648201526084016109c1565b612cae612710565b8015612cbd57612cbd83613959565b82602d811115612ccf57612ccf6149b6565b6040518381527f7bc647fe5043209e2019aa3503b79c1b0dd83eb61c56013d373a7584ff6bfb139060200160405180910390a2505050565b600054610100900460ff16612d2e5760405162461bcd60e51b81526004016109c1906149cc565b612d36613ac5565b6118c2613af4565b8061012e6000828254612d519190614677565b909155505050565b6040516001600160a01b03808516602483015283166044820152606481018290526116449085906323b872dd60e01b906084015b60408051601f198184030181529190526020810180516001600160e01b03166001600160e01b031990931692909217909152613b5f565b612dcc6125e3565b6097805460ff191660011790557f62e78cea01bee320cd4e420270b5ea74000d11b0c9f74754ebdbfc544b05a2586125c63390565b60006107f7612e0e611eaa565b6001600160a01b031663313ce5676040518163ffffffff1660e01b8152600401602060405180830381865afa158015612e4b573d6000803e3d6000fd5b505050506040513d601f19601f82011682018060405250810190612e6f91906148a0565b612e7a90600a6149a7565b612e8490846147c2565b613c34565b6000808261012e54612e9b91906147a2565b90506000612eaa610cd6610b71565b9050808212612ec0575061012e55506000919050565b61012e81905580612ed0836147e4565b612eda9190614677565b949350505050565b606081015115612fa1577f00000000000000000000000000000000000000000000000000000000000000006001600160a01b031663b1081ccf8260600151612f29846131ff565b612f3285613c99565b856101200151612f4291906147a2565b6040516001600160e01b031960e086901b168152600481019390935260248301919091526044820152606401600060405180830381600087803b158015612f8857600080fd5b505af1158015612f9c573d6000803e3d6000fd5b505050505b608081015115610a5e577f00000000000000000000000000000000000000000000000000000000000000006001600160a01b031663b1081ccf8260800151612fe88461324b565b612ff185613cea565b85610140015161300191906147a2565b6040516001600160e01b031960e086901b168152600481019390935260248301919091526044820152606401611e75565b6001600160a01b0382166130965760405162461bcd60e51b815260206004820152602560248201527f526573657276653a207472616e7366657220746f20746865207a65726f206164604482015264647265737360d81b60648201526084016109c1565b806000036130a2575050565b60006130ac611eaa565b6040516370a0823160e01b81523060048201526001600160a01b0391909116906370a0823190602401602060405180830381865afa1580156130f2573d6000803e3d6000fd5b505050506040513d601f19601f820116820180604052508101906131169190614789565b9050818110156131725761312982613d31565b613133908261488d565b905080821115613172577f00000000000000000000000000000000000000000000000000000000000000006131688284614841565b1015613172578091505b611574838361317f611eaa565b6001600160a01b03169190613e0e565b600081831061319e578161091f565b5090919050565b6131ad612710565b81602d8111156131bf576131bf6149b6565b6040516001600160a01b03831681527fb6bdbd44472629fc24a00b6f4ee3348b72c9eff333d0e9c16d78c49da1323c8f9060200160405180910390a25050565b60006107f78260600151836101800151846101a0015161321f9190614a17565b64ffffffffff166301e1338085610120015161323b919061476a565b61324591906147c2565b90613e3e565b60006107f78260800151836101800151846101a0015161326b9190614a17565b64ffffffffff166301e1338085610140015161323b919061476a565b6040516333481fc960e01b815230600482015260009081906001600160a01b038416906333481fc990602401602060405180830381865afa1580156132d0573d6000803e3d6000fd5b505050506040513d601f19601f820116820180604052508101906132f49190614789565b90508060000361330757839150506107f7565b6000613313858361318f565b90508061012e600082825461332891906147a2565b90915550819050613337611eaa565b6040516370a0823160e01b81523060048201526001600160a01b0391909116906370a0823190602401602060405180830381865afa15801561337d573d6000803e3d6000fd5b505050506040513d601f19601f820116820180604052508101906133a19190614789565b10156133b2576133b081613d31565b505b806133bb611eaa565b604051636eb1769f60e11b81523060048201526001600160a01b038781166024830152919091169063dd62ed3e90604401602060405180830381865afa158015613409573d6000803e3d6000fd5b505050506040513d601f19601f8201168201806040525081019061342d9190614789565b10156134b25761343b611eaa565b60405163095ea7b360e01b81526001600160a01b03868116600483015260248201859052919091169063095ea7b3906044016020604051808303816000875af115801561348c573d6000803e3d6000fd5b505050506040513d601f19601f820116820180604052508101906134b09190614854565b505b60405163918344d360e01b8152600481018290523060248201526001600160a01b0385169063918344d390604401600060405180830381600087803b1580156134fa57600080fd5b505af115801561350e573d6000803e3d6000fd5b50505050808561351e9190614841565b95945050505050565b6060600080856001600160a01b0316856040516135449190614871565b600060405180830381855af49150503d806000811461357f576040519150601f19603f3d011682016040523d82523d6000602084013e613584565b606091505b509150915061359586838387613e75565b9695505050505050565b6135a881613eee565b60008190507f00000000000000000000000000000000000000000000000000000000000000006001600160a01b0316816001600160a01b031663536ebbfc6040518163ffffffff1660e01b8152600401602060405180830381865afa158015613615573d6000803e3d6000fd5b505050506040513d601f19601f82011682018060405250810190613639919061461a565b6001600160a01b0316148061367557507f00000000000000000000000000000000000000000000000000000000000000006001600160a01b0316155b6136e25760405162461bcd60e51b815260206004820152603860248201527f43616e27742075706772616465206368616e67696e6720746865204a756e696f604482015277722045544b20756e6c65737320746f206e6f6e2d7a65726f60401b60648201526084016109c1565b7f00000000000000000000000000000000000000000000000000000000000000006001600160a01b0316816001600160a01b0316637b83037b6040518163ffffffff1660e01b8152600401602060405180830381865afa15801561374a573d6000803e3d6000fd5b505050506040513d601f19601f8201168201806040525081019061376e919061461a565b6001600160a01b031614806137aa57507f00000000000000000000000000000000000000000000000000000000000000006001600160a01b0316155b610b6d5760405162461bcd60e51b815260206004820152603860248201527f43616e27742075706772616465206368616e67696e67207468652053656e696f604482015277722045544b20756e6c65737320746f206e6f6e2d7a65726f60401b60648201526084016109c1565b6001600160a01b0381163b6138845760405162461bcd60e51b815260206004820152602d60248201527f455243313936373a206e657720696d706c656d656e746174696f6e206973206e60448201526c1bdd08184818dbdb9d1c9858dd609a1b60648201526084016109c1565b600080516020614a4f83398151915280546001600160a01b0319166001600160a01b0392909216919091179055565b6138bc83613fdf565b6000825111806138c95750805b1561157457611644838361226e565b60975460ff166118c25760405162461bcd60e51b815260206004820152601460248201527314185d5cd8589b194e881b9bdd081c185d5cd95960621b60448201526064016109c1565b600081156706f05b59d3b20000198390048411151761393f57600080fd5b50670de0b6b3a764000091026706f05b59d3b20000010490565b6000600182602d81111561396f5761396f6149b6565b6139799190614a35565b60c954600160ff929092169190911b915062015180906139a09064ffffffffff1642614a17565b64ffffffffff1611156139e25760c9805466ffffffffffffff8316600160281b026bffffffffffffffffffffffff1990911664ffffffffff4216171790555050565b60c954600160281b9004811666ffffffffffffff16600003613a475760c9805464ffffffffff421664ffffffffff1966ffffffffffffff808616600160281b808604929092161702166bffffffffffffffffffffffff19909216919091171790555050565b60405162461bcd60e51b815260206004820152604760248201527f596f7520616c726561647920747765616b6564207468697320706172616d657460448201527f657220726563656e746c792e2057616974206265666f726520747765616b696e606482015266339030b3b0b4b760c91b608482015260a4016109c1565b600054610100900460ff16613aec5760405162461bcd60e51b81526004016109c1906149cc565b6118c261401f565b600054610100900460ff16613b1b5760405162461bcd60e51b81526004016109c1906149cc565b6040805160808101825261271080825260006020830181905292820183905260609091019190915261012f80546001600160f01b03191690911790556118c2612710565b6000613bb4826040518060400160405280602081526020017f5361666545524332303a206c6f772d6c6576656c2063616c6c206661696c6564815250856001600160a01b03166140569092919063ffffffff16565b9050805160001480613bd5575080806020019051810190613bd59190614854565b6115745760405162461bcd60e51b815260206004820152602a60248201527f5361666545524332303a204552433230206f7065726174696f6e20646964206e6044820152691bdd081cdd58d8d9595960b21b60648201526084016109c1565b600063ffffffff8211156122345760405162461bcd60e51b815260206004820152602660248201527f53616665436173743a2076616c756520646f65736e27742066697420696e203360448201526532206269747360d01b60648201526084016109c1565b6000816101800151826101a00151613cb19190614a17565b64ffffffffff1682610180015164ffffffffff1642613cd09190614841565b836101200151613ce0919061476a565b6107f791906147c2565b6000816101800151826101a00151613d029190614a17565b64ffffffffff1682610180015164ffffffffff1642613d219190614841565b836101400151613ce0919061476a565b600080613d4e61012f546001600160a01b03620100009091041690565b90506001600160a01b03811615613e05576000613def631014a0c260e01b85604051602401613d7f91815260200190565b60408051601f19818403018152918152602080830180516001600160e01b03166001600160e01b03199095169490941790935280518082019091526016815275115c9c9bdc881c99599a5b1b1a5b99c81dd85b1b195d60521b928101929092526001600160a01b03851691613527565b905080806020019051810190612eda9190614789565b50600092915050565b6040516001600160a01b03831660248201526044810182905261157490849063a9059cbb60e01b90606401612d8d565b60008115670de0b6b3a764000060028404190484111715613e5e57600080fd5b50670de0b6b3a76400009190910260028204010490565b60608315613ee4578251600003613edd576001600160a01b0385163b613edd5760405162461bcd60e51b815260206004820152601d60248201527f416464726573733a2063616c6c20746f206e6f6e2d636f6e747261637400000060448201526064016109c1565b5081612eda565b612eda8383614065565b7f00000000000000000000000000000000000000000000000000000000000000006001600160a01b0316816001600160a01b0316634d15eb036040518163ffffffff1660e01b8152600401602060405180830381865afa158015613f56573d6000803e3d6000fd5b505050506040513d601f19601f82011682018060405250810190613f7a919061461a565b6001600160a01b031614610a5e5760405162461bcd60e51b815260206004820152602660248201527f43616e27742075706772616465206368616e67696e672074686520506f6c696360448201526579506f6f6c2160d01b60648201526084016109c1565b613fe881613817565b6040516001600160a01b038216907fbc7cd75a20ee27fd9adebab32041f755214dbc6bffa90cc0225b39da2e5c2d3b90600090a250565b600054610100900460ff166140465760405162461bcd60e51b81526004016109c1906149cc565b61404e61408f565b6118c26140b6565b6060612eda84846000856140e5565b8151156140755781518083602001fd5b8060405162461bcd60e51b81526004016109c1919061436f565b600054610100900460ff166118c25760405162461bcd60e51b81526004016109c1906149cc565b600054610100900460ff166140dd5760405162461bcd60e51b81526004016109c1906149cc565b6118c26141c0565b6060824710156141465760405162461bcd60e51b815260206004820152602660248201527f416464726573733a20696e73756666696369656e742062616c616e636520666f6044820152651c8818d85b1b60d21b60648201526084016109c1565b600080866001600160a01b031685876040516141629190614871565b60006040518083038185875af1925050503d806000811461419f576040519150601f19603f3d011682016040523d82523d6000602084013e6141a4565b606091505b50915091506141b587838387613e75565b979650505050505050565b600054610100900460ff166141e75760405162461bcd60e51b81526004016109c1906149cc565b6097805460ff19169055565b60006020828403121561420557600080fd5b81356001600160e01b03198116811461091f57600080fd5b634e487b7160e01b600052604160045260246000fd5b6040516101c0810167ffffffffffffffff811182821017156142575761425761421d565b60405290565b600082601f83011261426e57600080fd5b813567ffffffffffffffff808211156142895761428961421d565b604051601f8301601f19908116603f011681019082821181831017156142b1576142b161421d565b816040528381528660208588010111156142ca57600080fd5b836020870160208301376000602085830101528094505050505092915050565b6000602082840312156142fc57600080fd5b813567ffffffffffffffff81111561431357600080fd5b612eda8482850161425d565b60005b8381101561433a578181015183820152602001614322565b50506000910152565b6000815180845261435b81602086016020860161431f565b601f01601f19169290920160200192915050565b60208152600061091f6020830184614343565b6001600160a01b0381168114610a5e57600080fd5b6000602082840312156143a957600080fd5b813561091f81614382565b600080604083850312156143c757600080fd5b82356143d281614382565b9150602083013567ffffffffffffffff8111156143ee57600080fd5b6143fa8582860161425d565b9150509250929050565b8015158114610a5e57600080fd5b6000806040838503121561442557600080fd5b82359150602083013561443781614404565b809150509250929050565b60006020828403121561445457600080fd5b5035919050565b6000806040838503121561446e57600080fd5b50508035926020909101359150565b803561448881614382565b919050565b803564ffffffffff8116811461448857600080fd5b60006101c082840312156144b557600080fd5b6144bd614233565b9050813581526020820135602082015260408201356040820152606082013560608201526080820135608082015260a082013560a082015260c082013560c082015260e082013560e082015261010080830135818301525061012080830135818301525061014080830135818301525061016061453b81840161447d565b9082015261018061454d83820161448d565b908201526101a061455f83820161448d565b9082015292915050565b6000806000610200848603121561457f57600080fd5b833561458a81614382565b925061459985602086016144a2565b91506101e084013590509250925092565b600080604083850312156145bd57600080fd5b82359150602083013561443781614382565b60006101c082840312156145e257600080fd5b61091f83836144a2565b600080604083850312156145ff57600080fd5b823561460a81614382565b9150602083013561443781614404565b60006020828403121561462c57600080fd5b815161091f81614382565b6001600160a01b039485168152602081019390935292166040820152901515606082015260800190565b634e487b7160e01b600052601160045260246000fd5b808201828112600083128015821682158216171561469757614697614661565b505092915050565b6020808252602c908201527f46756e6374696f6e206d7573742062652063616c6c6564207468726f7567682060408201526b19195b1959d85d1958d85b1b60a21b606082015260800190565b6020808252602c908201527f46756e6374696f6e206d7573742062652063616c6c6564207468726f7567682060408201526b6163746976652070726f787960a01b606082015260800190565b6001600160a01b039586168152602081019490945260408401929092529092166060820152901515608082015260a00190565b600081600019048311821515161561478457614784614661565b500290565b60006020828403121561479b57600080fd5b5051919050565b81810360008312801583831316838312821617156118a3576118a3614661565b6000826147df57634e487b7160e01b600052601260045260246000fd5b500490565b6000600160ff1b82016147f9576147f9614661565b5060000390565b60208082526021908201527f5468652063616c6c6572206d7573742062652074686520506f6c696379506f6f6040820152601b60fa1b606082015260800190565b818103818111156107f7576107f7614661565b60006020828403121561486657600080fd5b815161091f81614404565b6000825161488381846020870161431f565b9190910192915050565b808201808211156107f7576107f7614661565b6000602082840312156148b257600080fd5b815160ff8116811461091f57600080fd5b600181815b808511156148fe5781600019048211156148e4576148e4614661565b808516156148f157918102915b93841c93908002906148c8565b509250929050565b600082614915575060016107f7565b81614922575060006107f7565b816001811461493857600281146149425761495e565b60019150506107f7565b60ff84111561495357614953614661565b50506001821b6107f7565b5060208310610133831016604e8410600b8410161715614981575081810a6107f7565b61498b83836148c3565b806000190482111561499f5761499f614661565b029392505050565b600061091f60ff841683614906565b634e487b7160e01b600052602160045260246000fd5b6020808252602b908201527f496e697469616c697a61626c653a20636f6e7472616374206973206e6f74206960408201526a6e697469616c697a696e6760a81b606082015260800190565b64ffffffffff8281168282160390808211156118a3576118a3614661565b60ff82811682821603908111156107f7576107f761466156fe360894a13ba1a3210667c828492db98dca3e2076cc3735a920a3ca505d382bbcbf372ca3ebecfe59ac256f17697941bbe63302aced610e8b0e3646f743c7beb2416464726573733a206c6f772d6c6576656c2064656c65676174652063616c6c206661696c6564a82e22387fca439f316d78ca566f383218ab8ae1b3e830178c9c82cbd16749c055435dd261a4b9b3364963f7738a7a662ad9c84396d64be3365284bb7f0a5041a2646970667358221220ec4099e9247976f6f4766386a182e985ab0c9dd3d8eeedace6fd372301b68fae64736f6c63430008100033",
  "linkReferences": {},
  "deployedLinkReferences": {}
}