{
  "_format": "hh-sol-artifact-1",
  "contractName": "SignedQuoteRiskModule",
  "sourceName": "contracts/SignedQuoteRiskModule.sol",
  "abi": [
    {
      "inputs": [
        {
          "internalType": "contract IPolicyPool",
          "name": "policyPool_",
          "type": "address"
        },
        {
          "internalType": "contract IPremiumsAccount",
          "name": "premiumsAccount_",
          "type": "address"
        },
        {
          "internalType": "bool",
          "name": "creationIsOpen_",
          "type": "bool"
        }
      ],
      "stateMutability": "nonpayable",
      "type": "constructor"
    },
    {
      "anonymous": false,
      "inputs": [
        {
          "indexed": false,
          "internalType": "address",
          "name": "previousAdmin",
          "type": "address"
        },
        {
          "indexed": false,
          "internalType": "address",
          "name": "newAdmin",
          "type": "address"
        }
      ],
      "name": "AdminChanged",
      "type": "event"
    },
    {
      "anonymous": false,
      "inputs": [
        {
          "indexed": true,
          "internalType": "address",
          "name": "beacon",
          "type": "address"
        }
      ],
      "name": "BeaconUpgraded",
      "type": "event"
    },
    {
      "anonymous": false,
      "inputs": [
        {
          "indexed": true,
          "internalType": "enum IAccessManager.GovernanceActions",
          "name": "action",
          "type": "uint8"
        },
        {
          "indexed": false,
          "internalType": "address",
          "name": "value",
          "type": "address"
        }
      ],
      "name": "ComponentChanged",
      "type": "event"
    },
    {
      "anonymous": false,
      "inputs": [
        {
          "indexed": true,
          "internalType": "enum IAccessManager.GovernanceActions",
          "name": "action",
          "type": "uint8"
        },
        {
          "indexed": false,
          "internalType": "uint256",
          "name": "value",
          "type": "uint256"
        }
      ],
      "name": "GovernanceAction",
      "type": "event"
    },
    {
      "anonymous": false,
      "inputs": [
        {
          "indexed": false,
          "internalType": "uint8",
          "name": "version",
          "type": "uint8"
        }
      ],
      "name": "Initialized",
      "type": "event"
    },
    {
      "anonymous": false,
      "inputs": [
        {
          "indexed": true,
          "internalType": "uint256",
          "name": "policyId",
          "type": "uint256"
        },
        {
          "indexed": false,
          "internalType": "bytes32",
          "name": "policyData",
          "type": "bytes32"
        }
      ],
      "name": "NewSignedPolicy",
      "type": "event"
    },
    {
      "anonymous": false,
      "inputs": [
        {
          "indexed": false,
          "internalType": "address",
          "name": "account",
          "type": "address"
        }
      ],
      "name": "Paused",
      "type": "event"
    },
    {
      "anonymous": false,
      "inputs": [
        {
          "indexed": false,
          "internalType": "address",
          "name": "account",
          "type": "address"
        }
      ],
      "name": "Unpaused",
      "type": "event"
    },
    {
      "anonymous": false,
      "inputs": [
        {
          "indexed": true,
          "internalType": "address",
          "name": "implementation",
          "type": "address"
        }
      ],
      "name": "Upgraded",
      "type": "event"
    },
    {
      "inputs": [],
      "name": "GUARDIAN_ROLE",
      "outputs": [
        {
          "internalType": "bytes32",
          "name": "",
          "type": "bytes32"
        }
      ],
      "stateMutability": "view",
      "type": "function"
    },
    {
      "inputs": [],
      "name": "LEVEL1_ROLE",
      "outputs": [
        {
          "internalType": "bytes32",
          "name": "",
          "type": "bytes32"
        }
      ],
      "stateMutability": "view",
      "type": "function"
    },
    {
      "inputs": [],
      "name": "LEVEL2_ROLE",
      "outputs": [
        {
          "internalType": "bytes32",
          "name": "",
          "type": "bytes32"
        }
      ],
      "stateMutability": "view",
      "type": "function"
    },
    {
      "inputs": [],
      "name": "LEVEL3_ROLE",
      "outputs": [
        {
          "internalType": "bytes32",
          "name": "",
          "type": "bytes32"
        }
      ],
      "stateMutability": "view",
      "type": "function"
    },
    {
      "inputs": [],
      "name": "POLICY_CREATOR_ROLE",
      "outputs": [
        {
          "internalType": "bytes32",
          "name": "",
          "type": "bytes32"
        }
      ],
      "stateMutability": "view",
      "type": "function"
    },
    {
      "inputs": [],
      "name": "PRICER_ROLE",
      "outputs": [
        {
          "internalType": "bytes32",
          "name": "",
          "type": "bytes32"
        }
      ],
      "stateMutability": "view",
      "type": "function"
    },
    {
      "inputs": [],
      "name": "RESOLVER_ROLE",
      "outputs": [
        {
          "internalType": "bytes32",
          "name": "",
          "type": "bytes32"
        }
      ],
      "stateMutability": "view",
      "type": "function"
    },
    {
      "inputs": [],
      "name": "RM_PROVIDER_ROLE",
      "outputs": [
        {
          "internalType": "bytes32",
          "name": "",
          "type": "bytes32"
        }
      ],
      "stateMutability": "view",
      "type": "function"
    },
    {
      "inputs": [],
      "name": "TWEAK_EXPIRATION",
      "outputs": [
        {
          "internalType": "uint40",
          "name": "",
          "type": "uint40"
        }
      ],
      "stateMutability": "view",
      "type": "function"
    },
    {
      "inputs": [],
      "name": "activeExposure",
      "outputs": [
        {
          "internalType": "uint256",
          "name": "",
          "type": "uint256"
        }
      ],
      "stateMutability": "view",
      "type": "function"
    },
    {
      "inputs": [],
      "name": "currency",
      "outputs": [
        {
          "internalType": "contract IERC20Metadata",
          "name": "",
          "type": "address"
        }
      ],
      "stateMutability": "view",
      "type": "function"
    },
    {
      "inputs": [],
      "name": "exposureLimit",
      "outputs": [
        {
          "internalType": "uint256",
          "name": "",
          "type": "uint256"
        }
      ],
      "stateMutability": "view",
      "type": "function"
    },
    {
      "inputs": [
        {
          "internalType": "uint256",
          "name": "payout",
          "type": "uint256"
        },
        {
          "internalType": "uint256",
          "name": "lossProb",
          "type": "uint256"
        },
        {
          "internalType": "uint40",
          "name": "expiration",
          "type": "uint40"
        }
      ],
      "name": "getMinimumPremium",
      "outputs": [
        {
          "internalType": "uint256",
          "name": "",
          "type": "uint256"
        }
      ],
      "stateMutability": "view",
      "type": "function"
    },
    {
      "inputs": [
        {
          "internalType": "string",
          "name": "name_",
          "type": "string"
        },
        {
          "internalType": "uint256",
          "name": "collRatio_",
          "type": "uint256"
        },
        {
          "internalType": "uint256",
          "name": "ensuroPpFee_",
          "type": "uint256"
        },
        {
          "internalType": "uint256",
          "name": "srRoc_",
          "type": "uint256"
        },
        {
          "internalType": "uint256",
          "name": "maxPayoutPerPolicy_",
          "type": "uint256"
        },
        {
          "internalType": "uint256",
          "name": "exposureLimit_",
          "type": "uint256"
        },
        {
          "internalType": "address",
          "name": "wallet_",
          "type": "address"
        }
      ],
      "name": "initialize",
      "outputs": [],
      "stateMutability": "nonpayable",
      "type": "function"
    },
    {
      "inputs": [],
      "name": "lastTweak",
      "outputs": [
        {
          "internalType": "uint40",
          "name": "",
          "type": "uint40"
        },
        {
          "internalType": "uint56",
          "name": "",
          "type": "uint56"
        }
      ],
      "stateMutability": "view",
      "type": "function"
    },
    {
      "inputs": [],
      "name": "maxDuration",
      "outputs": [
        {
          "internalType": "uint256",
          "name": "",
          "type": "uint256"
        }
      ],
      "stateMutability": "view",
      "type": "function"
    },
    {
      "inputs": [],
      "name": "maxPayoutPerPolicy",
      "outputs": [
        {
          "internalType": "uint256",
          "name": "",
          "type": "uint256"
        }
      ],
      "stateMutability": "view",
      "type": "function"
    },
    {
      "inputs": [],
      "name": "name",
      "outputs": [
        {
          "internalType": "string",
          "name": "",
          "type": "string"
        }
      ],
      "stateMutability": "view",
      "type": "function"
    },
    {
      "inputs": [
        {
          "internalType": "uint256",
          "name": "payout",
          "type": "uint256"
        },
        {
          "internalType": "uint256",
          "name": "premium",
          "type": "uint256"
        },
        {
          "internalType": "uint256",
          "name": "lossProb",
          "type": "uint256"
        },
        {
          "internalType": "uint40",
          "name": "expiration",
          "type": "uint40"
        },
        {
          "internalType": "address",
          "name": "onBehalfOf",
          "type": "address"
        },
        {
          "internalType": "bytes32",
          "name": "policyData",
          "type": "bytes32"
        },
        {
          "internalType": "bytes32",
          "name": "quoteSignatureR",
          "type": "bytes32"
        },
        {
          "internalType": "bytes32",
          "name": "quoteSignatureVS",
          "type": "bytes32"
        },
        {
          "internalType": "uint40",
          "name": "quoteValidUntil",
          "type": "uint40"
        }
      ],
      "name": "newPolicy",
      "outputs": [
        {
          "internalType": "uint256",
          "name": "",
          "type": "uint256"
        }
      ],
      "stateMutability": "nonpayable",
      "type": "function"
    },
    {
      "inputs": [
        {
          "internalType": "uint256",
          "name": "payout",
          "type": "uint256"
        },
        {
          "internalType": "uint256",
          "name": "premium",
          "type": "uint256"
        },
        {
          "internalType": "uint256",
          "name": "lossProb",
          "type": "uint256"
        },
        {
          "internalType": "uint40",
          "name": "expiration",
          "type": "uint40"
        },
        {
          "internalType": "address",
          "name": "onBehalfOf",
          "type": "address"
        },
        {
          "internalType": "bytes32",
          "name": "policyData",
          "type": "bytes32"
        },
        {
          "internalType": "bytes32",
          "name": "quoteSignatureR",
          "type": "bytes32"
        },
        {
          "internalType": "bytes32",
          "name": "quoteSignatureVS",
          "type": "bytes32"
        },
        {
          "internalType": "uint40",
          "name": "quoteValidUntil",
          "type": "uint40"
        }
      ],
      "name": "newPolicyFull",
      "outputs": [
        {
          "components": [
            {
              "internalType": "uint256",
              "name": "id",
              "type": "uint256"
            },
            {
              "internalType": "uint256",
              "name": "payout",
              "type": "uint256"
            },
            {
              "internalType": "uint256",
              "name": "premium",
              "type": "uint256"
            },
            {
              "internalType": "uint256",
              "name": "jrScr",
              "type": "uint256"
            },
            {
              "internalType": "uint256",
              "name": "srScr",
              "type": "uint256"
            },
            {
              "internalType": "uint256",
              "name": "lossProb",
              "type": "uint256"
            },
            {
              "internalType": "uint256",
              "name": "purePremium",
              "type": "uint256"
            },
            {
              "internalType": "uint256",
              "name": "ensuroCommission",
              "type": "uint256"
            },
            {
              "internalType": "uint256",
              "name": "partnerCommission",
              "type": "uint256"
            },
            {
              "internalType": "uint256",
              "name": "jrCoc",
              "type": "uint256"
            },
            {
              "internalType": "uint256",
              "name": "srCoc",
              "type": "uint256"
            },
            {
              "internalType": "contract IRiskModule",
              "name": "riskModule",
              "type": "address"
            },
            {
              "internalType": "uint40",
              "name": "start",
              "type": "uint40"
            },
            {
              "internalType": "uint40",
              "name": "expiration",
              "type": "uint40"
            }
          ],
          "internalType": "struct Policy.PolicyData",
          "name": "createdPolicy",
          "type": "tuple"
        }
      ],
      "stateMutability": "nonpayable",
      "type": "function"
    },
    {
      "inputs": [
        {
          "internalType": "uint256",
          "name": "payout",
          "type": "uint256"
        },
        {
          "internalType": "uint256",
          "name": "premium",
          "type": "uint256"
        },
        {
          "internalType": "uint256",
          "name": "lossProb",
          "type": "uint256"
        },
        {
          "internalType": "uint40",
          "name": "expiration",
          "type": "uint40"
        },
        {
          "internalType": "address",
          "name": "onBehalfOf",
          "type": "address"
        },
        {
          "internalType": "bytes32",
          "name": "policyData",
          "type": "bytes32"
        },
        {
          "internalType": "bytes32",
          "name": "quoteSignatureR",
          "type": "bytes32"
        },
        {
          "internalType": "bytes32",
          "name": "quoteSignatureVS",
          "type": "bytes32"
        },
        {
          "internalType": "uint40",
          "name": "quoteValidUntil",
          "type": "uint40"
        }
      ],
      "name": "newPolicyPaidByHolder",
      "outputs": [
        {
          "internalType": "uint256",
          "name": "",
          "type": "uint256"
        }
      ],
      "stateMutability": "nonpayable",
      "type": "function"
    },
    {
      "inputs": [],
      "name": "params",
      "outputs": [
        {
          "components": [
            {
              "internalType": "uint256",
              "name": "moc",
              "type": "uint256"
            },
            {
              "internalType": "uint256",
              "name": "jrCollRatio",
              "type": "uint256"
            },
            {
              "internalType": "uint256",
              "name": "collRatio",
              "type": "uint256"
            },
            {
              "internalType": "uint256",
              "name": "ensuroPpFee",
              "type": "uint256"
            },
            {
              "internalType": "uint256",
              "name": "ensuroCocFee",
              "type": "uint256"
            },
            {
              "internalType": "uint256",
              "name": "jrRoc",
              "type": "uint256"
            },
            {
              "internalType": "uint256",
              "name": "srRoc",
              "type": "uint256"
            }
          ],
          "internalType": "struct IRiskModule.Params",
          "name": "ret",
          "type": "tuple"
        }
      ],
      "stateMutability": "view",
      "type": "function"
    },
    {
      "inputs": [],
      "name": "pause",
      "outputs": [],
      "stateMutability": "nonpayable",
      "type": "function"
    },
    {
      "inputs": [],
      "name": "paused",
      "outputs": [
        {
          "internalType": "bool",
          "name": "",
          "type": "bool"
        }
      ],
      "stateMutability": "view",
      "type": "function"
    },
    {
      "inputs": [],
      "name": "policyPool",
      "outputs": [
        {
          "internalType": "contract IPolicyPool",
          "name": "",
          "type": "address"
        }
      ],
      "stateMutability": "view",
      "type": "function"
    },
    {
      "inputs": [],
      "name": "premiumsAccount",
      "outputs": [
        {
          "internalType": "contract IPremiumsAccount",
          "name": "",
          "type": "address"
        }
      ],
      "stateMutability": "view",
      "type": "function"
    },
    {
      "inputs": [],
      "name": "proxiableUUID",
      "outputs": [
        {
          "internalType": "bytes32",
          "name": "",
          "type": "bytes32"
        }
      ],
      "stateMutability": "view",
      "type": "function"
    },
    {
      "inputs": [
        {
          "internalType": "uint256",
          "name": "payout",
          "type": "uint256"
        }
      ],
      "name": "releaseExposure",
      "outputs": [],
      "stateMutability": "nonpayable",
      "type": "function"
    },
    {
      "inputs": [
        {
          "components": [
            {
              "internalType": "uint256",
              "name": "id",
              "type": "uint256"
            },
            {
              "internalType": "uint256",
              "name": "payout",
              "type": "uint256"
            },
            {
              "internalType": "uint256",
              "name": "premium",
              "type": "uint256"
            },
            {
              "internalType": "uint256",
              "name": "jrScr",
              "type": "uint256"
            },
            {
              "internalType": "uint256",
              "name": "srScr",
              "type": "uint256"
            },
            {
              "internalType": "uint256",
              "name": "lossProb",
              "type": "uint256"
            },
            {
              "internalType": "uint256",
              "name": "purePremium",
              "type": "uint256"
            },
            {
              "internalType": "uint256",
              "name": "ensuroCommission",
              "type": "uint256"
            },
            {
              "internalType": "uint256",
              "name": "partnerCommission",
              "type": "uint256"
            },
            {
              "internalType": "uint256",
              "name": "jrCoc",
              "type": "uint256"
            },
            {
              "internalType": "uint256",
              "name": "srCoc",
              "type": "uint256"
            },
            {
              "internalType": "contract IRiskModule",
              "name": "riskModule",
              "type": "address"
            },
            {
              "internalType": "uint40",
              "name": "start",
              "type": "uint40"
            },
            {
              "internalType": "uint40",
              "name": "expiration",
              "type": "uint40"
            }
          ],
          "internalType": "struct Policy.PolicyData",
          "name": "policy",
          "type": "tuple"
        },
        {
          "internalType": "uint256",
          "name": "payout",
          "type": "uint256"
        }
      ],
      "name": "resolvePolicy",
      "outputs": [],
      "stateMutability": "nonpayable",
      "type": "function"
    },
    {
      "inputs": [
        {
          "components": [
            {
              "internalType": "uint256",
              "name": "id",
              "type": "uint256"
            },
            {
              "internalType": "uint256",
              "name": "payout",
              "type": "uint256"
            },
            {
              "internalType": "uint256",
              "name": "premium",
              "type": "uint256"
            },
            {
              "internalType": "uint256",
              "name": "jrScr",
              "type": "uint256"
            },
            {
              "internalType": "uint256",
              "name": "srScr",
              "type": "uint256"
            },
            {
              "internalType": "uint256",
              "name": "lossProb",
              "type": "uint256"
            },
            {
              "internalType": "uint256",
              "name": "purePremium",
              "type": "uint256"
            },
            {
              "internalType": "uint256",
              "name": "ensuroCommission",
              "type": "uint256"
            },
            {
              "internalType": "uint256",
              "name": "partnerCommission",
              "type": "uint256"
            },
            {
              "internalType": "uint256",
              "name": "jrCoc",
              "type": "uint256"
            },
            {
              "internalType": "uint256",
              "name": "srCoc",
              "type": "uint256"
            },
            {
              "internalType": "contract IRiskModule",
              "name": "riskModule",
              "type": "address"
            },
            {
              "internalType": "uint40",
              "name": "start",
              "type": "uint40"
            },
            {
              "internalType": "uint40",
              "name": "expiration",
              "type": "uint40"
            }
          ],
          "internalType": "struct Policy.PolicyData",
          "name": "policy",
          "type": "tuple"
        },
        {
          "internalType": "bool",
          "name": "customerWon",
          "type": "bool"
        }
      ],
      "name": "resolvePolicyFullPayout",
      "outputs": [],
      "stateMutability": "nonpayable",
      "type": "function"
    },
    {
      "inputs": [
        {
          "internalType": "enum IRiskModule.Parameter",
          "name": "param",
          "type": "uint8"
        },
        {
          "internalType": "uint256",
          "name": "newValue",
          "type": "uint256"
        }
      ],
      "name": "setParam",
      "outputs": [],
      "stateMutability": "nonpayable",
      "type": "function"
    },
    {
      "inputs": [
        {
          "internalType": "address",
          "name": "wallet_",
          "type": "address"
        }
      ],
      "name": "setWallet",
      "outputs": [],
      "stateMutability": "nonpayable",
      "type": "function"
    },
    {
      "inputs": [
        {
          "internalType": "bytes4",
          "name": "interfaceId",
          "type": "bytes4"
        }
      ],
      "name": "supportsInterface",
      "outputs": [
        {
          "internalType": "bool",
          "name": "",
          "type": "bool"
        }
      ],
      "stateMutability": "view",
      "type": "function"
    },
    {
      "inputs": [],
      "name": "unpause",
      "outputs": [],
      "stateMutability": "nonpayable",
      "type": "function"
    },
    {
      "inputs": [
        {
          "internalType": "address",
          "name": "newImplementation",
          "type": "address"
        }
      ],
      "name": "upgradeTo",
      "outputs": [],
      "stateMutability": "nonpayable",
      "type": "function"
    },
    {
      "inputs": [
        {
          "internalType": "address",
          "name": "newImplementation",
          "type": "address"
        },
        {
          "internalType": "bytes",
          "name": "data",
          "type": "bytes"
        }
      ],
      "name": "upgradeToAndCall",
      "outputs": [],
      "stateMutability": "payable",
      "type": "function"
    },
    {
      "inputs": [],
      "name": "wallet",
      "outputs": [
        {
          "internalType": "address",
          "name": "",
          "type": "address"
        }
      ],
      "stateMutability": "view",
      "type": "function"
    }
  ],
  "bytecode": "0x610100604052306080523480156200001657600080fd5b50604051620058fa380380620058fa8339810160408190526200003991620002b1565b8282816001600160a01b038116620000be5760405162461bcd60e51b815260206004820152603660248201527f506f6c696379506f6f6c436f6d706f6e656e743a20706f6c696379506f6f6c2060448201527f63616e6e6f74206265207a65726f20616464726573730000000000000000000060648201526084015b60405180910390fd5b620000c8620001da565b806001600160a01b031660a0816001600160a01b03168152505050816001600160a01b0316816001600160a01b0316634d15eb036040518163ffffffff1660e01b8152600401602060405180830381865afa1580156200012c573d6000803e3d6000fd5b505050506040513d601f19601f8201168201806040525081019062000152919062000309565b6001600160a01b031614620001bf5760405162461bcd60e51b815260206004820152602c60248201527f546865205072656d69756d734163636f756e74206d757374206265207061727460448201526b081bd9881d1a1948141bdbdb60a21b6064820152608401620000b5565b6001600160a01b031660c05250151560e05250620003309050565b600054610100900460ff1615620002445760405162461bcd60e51b815260206004820152602760248201527f496e697469616c697a61626c653a20636f6e747261637420697320696e697469604482015266616c697a696e6760c81b6064820152608401620000b5565b60005460ff9081161462000296576000805460ff191660ff9081179091556040519081527f7f26b83ff96e1f2b6a682f133852f6798a09c465da95921460cefb38474024989060200160405180910390a15b565b6001600160a01b0381168114620002ae57600080fd5b50565b600080600060608486031215620002c757600080fd5b8351620002d48162000298565b6020850151909350620002e78162000298565b60408501519092508015158114620002fe57600080fd5b809150509250925092565b6000602082840312156200031c57600080fd5b8151620003298162000298565b9392505050565b60805160a05160c05160e0516154e1620004196000396000611f290152600081816105340152612ca90152600081816103db015281816109d801528181610d6e01528181610f490152818161104a015281816110c90152818161124a0152818161134701528181611b4401528181611cc301528181611d6601528181611e6a01528181611f4e01528181612119015281816122a9015281816127f1015281816137d5015281816138740152818161396201528181613be70152613c780152600081816108ab015281816108f401528181610ad201528181610b120152610ba101526154e16000f3fe60806040526004361061021a5760003560e01c80636db5c8fd116101235780638bac3a24116100ab578063deaa59df1161006f578063deaa59df1461070c578063e5a6b10f1461072c578063f67b2bad14610741578063fbb8127914610763578063ffa600e31461079757600080fd5b80638bac3a2414610618578063a9a24f2714610638578063c1cca2b31461066c578063cfd4c6061461068c578063cff0ab96146106a157600080fd5b80637a702b3c116100f25780637a702b3c1461058c5780637ed5acfa146105ac5780637ff8bf25146105d95780638456cb59146105ee57806385272a6e1461060357600080fd5b80636db5c8fd146104e55780636f0dbe6f1461050557806373a952e81461052557806378fab2601461055857600080fd5b80634a47a3e0116101a657806352d1902d1161017557806352d1902d146104445780635b494dd5146104595780635c975abb1461048d57806365533024146104a55780636a448ef1146104c557600080fd5b80634a47a3e0146103985780634d15eb03146103cc5780634f1ef28614610413578063521eb2731461042657600080fd5b80633659cfe6116101ed5780633659cfe6146102c65780633711bbf5146102e85780633f4ba83a1461031557806345f739ff1461032a578063468a8c9f1461035e57600080fd5b806301ffc9a71461021f57806305918a791461025457806306fdde031461028257806324ea54f4146102a4575b600080fd5b34801561022b57600080fd5b5061023f61023a366004614894565b6107b7565b60405190151581526020015b60405180910390f35b34801561026057600080fd5b5061027461026f3660046148ed565b6107e3565b60405190815260200161024b565b34801561028e57600080fd5b5061029761080f565b60405161024b9190614991565b3480156102b057600080fd5b5061027460008051602061548c83398151915281565b3480156102d257600080fd5b506102e66102e13660046149c4565b6108a1565b005b3480156102f457600080fd5b506103086103033660046148ed565b610989565b60405161024b9190614a99565b34801561032157600080fd5b506102e66109b8565b34801561033657600080fd5b506102747f90fe2ba5da14f172ed5a0a0fec391dbf8f191c9a2f3557d79ede5d6b1c1c9ffb81565b34801561036a57600080fd5b5060c9546040805164ffffffffff83168152600160281b90920466ffffffffffffff1660208301520161024b565b3480156103a457600080fd5b506102747fa82e22387fca439f316d78ca566f383218ab8ae1b3e830178c9c82cbd16749c081565b3480156103d857600080fd5b507f00000000000000000000000000000000000000000000000000000000000000005b6040516001600160a01b03909116815260200161024b565b6102e6610421366004614b34565b610ac8565b34801561043257600080fd5b5060fe546001600160a01b03166103fb565b34801561045057600080fd5b50610274610b94565b34801561046557600080fd5b506102747f5ec196419322369c6bac572d883f4d990ae5ec82f7d93cdf89b85dbb05b63c2781565b34801561049957600080fd5b5060975460ff1661023f565b3480156104b157600080fd5b506102746104c03660046148ed565b610c47565b3480156104d157600080fd5b506102e66104e0366004614b98565b610d6b565b3480156104f157600080fd5b5060fc54600160b01b900461ffff16610274565b34801561051157600080fd5b506102e6610520366004614bb1565b610e07565b34801561053157600080fd5b507f00000000000000000000000000000000000000000000000000000000000000006103fb565b34801561056457600080fd5b506102747f92a19c77d2ea87c7f81d50c74403cb2f401780f3ad919571121efe2bdb427eb181565b34801561059857600080fd5b506102e66105a7366004614c60565b610f26565b3480156105b857600080fd5b506105c36201518081565b60405164ffffffffff909116815260200161024b565b3480156105e557600080fd5b5060fd54610274565b3480156105fa57600080fd5b506102e66110b8565b34801561060f57600080fd5b506102746111b3565b34801561062457600080fd5b50610274610633366004614c8d565b6111d6565b34801561064457600080fd5b506102747f0df0a8869cf58168a14cd7ac426ff1b8c6ff5d5c800c6f44803f3431dcb3bad181565b34801561067857600080fd5b506102e6610687366004614cc2565b6111f5565b34801561069857600080fd5b50610274611ab8565b3480156106ad57600080fd5b506106b6611ad7565b60405161024b9190600060e082019050825182526020830151602083015260408301516040830152606083015160608301526080830151608083015260a083015160a083015260c083015160c083015292915050565b34801561071857600080fd5b506102e66107273660046149c4565b611b21565b34801561073857600080fd5b506103fb611cbf565b34801561074d57600080fd5b5061027460008051602061544583398151915281565b34801561076f57600080fd5b506102747fc6823861ee2bb2198ce6b1fd6faf4c8f44f745bc804aca4a762f67e0d507fd8a81565b3480156107a357600080fd5b506102e66107b2366004614d00565b611d43565b60006107c282611ea1565b806107dd57506001600160e01b0319821663da40804f60e01b145b92915050565b60006107ed611ed7565b6108008a8a8a8a89898989335b8f611f1f565b519a9950505050505050505050565b606060fb805461081e90614d3a565b80601f016020809104026020016040519081016040528092919081815260200182805461084a90614d3a565b80156108975780601f1061086c57610100808354040283529160200191610897565b820191906000526020600020905b81548152906001019060200180831161087a57829003601f168201915b5050505050905090565b6001600160a01b037f00000000000000000000000000000000000000000000000000000000000000001630036108f25760405162461bcd60e51b81526004016108e990614d6e565b60405180910390fd5b7f00000000000000000000000000000000000000000000000000000000000000006001600160a01b031661093b600080516020615425833981519152546001600160a01b031690565b6001600160a01b0316146109615760405162461bcd60e51b81526004016108e990614dba565b61096a81612289565b604080516000808252602082019092526109869183919061239b565b50565b61099161480e565b610999611ed7565b6109aa8a8a8a8a89898989336107fa565b9a9950505050505050505050565b60008051602061548c8339815191526000805160206154458339815191527f00000000000000000000000000000000000000000000000000000000000000006001600160a01b03166371907f176040518163ffffffff1660e01b8152600401602060405180830381865afa158015610a34573d6000803e3d6000fd5b505050506040513d601f19601f82011682018060405250810190610a589190614e06565b6001600160a01b0316632b1cff1f3084843360016040518663ffffffff1660e01b8152600401610a8c959493929190614e23565b60006040518083038186803b158015610aa457600080fd5b505afa158015610ab8573d6000803e3d6000fd5b50505050610ac4612506565b5050565b6001600160a01b037f0000000000000000000000000000000000000000000000000000000000000000163003610b105760405162461bcd60e51b81526004016108e990614d6e565b7f00000000000000000000000000000000000000000000000000000000000000006001600160a01b0316610b59600080516020615425833981519152546001600160a01b031690565b6001600160a01b031614610b7f5760405162461bcd60e51b81526004016108e990614dba565b610b8882612289565b610ac48282600161239b565b6000306001600160a01b037f00000000000000000000000000000000000000000000000000000000000000001614610c345760405162461bcd60e51b815260206004820152603860248201527f555550535570677261646561626c653a206d757374206e6f742062652063616c60448201527f6c6564207468726f7567682064656c656761746563616c6c000000000000000060648201526084016108e9565b5060008051602061542583398151915290565b6000610c51611ed7565b6001600160a01b038616331480610cee57506000610c6d611cbf565b6001600160a01b031663dd62ed3e88336040516001600160e01b031960e085901b1681526001600160a01b03928316600482015291166024820152604401602060405180830381865afa158015610cc8573d6000803e3d6000fd5b505050506040513d601f19601f82011682018060405250810190610cec9190614e56565b115b610d595760405162461bcd60e51b815260206004820152603660248201527f53656e646572206973206e6f7420617574686f72697a656420746f20637265616044820152753a32903837b634b1b4b2b99037b72132b430b63327b360511b60648201526084016108e9565b6108008a8a8a8a898989898e8f611f1f565b337f00000000000000000000000000000000000000000000000000000000000000006001600160a01b031614610ded5760405162461bcd60e51b815260206004820152602160248201527f5468652063616c6c6572206d7573742062652074686520506f6c696379506f6f6044820152601b60fa1b60648201526084016108e9565b8060fd6000828254610dff9190614e85565b909155505050565b600054610100900460ff1615808015610e275750600054600160ff909116105b80610e415750303b158015610e41575060005460ff166001145b610ea45760405162461bcd60e51b815260206004820152602e60248201527f496e697469616c697a61626c653a20636f6e747261637420697320616c72656160448201526d191e481a5b9a5d1a585b1a5e995960921b60648201526084016108e9565b6000805460ff191660011790558015610ec7576000805461ff0019166101001790555b610ed688888888888888612558565b8015610f1c576000805461ff0019169055604051600181527f7f26b83ff96e1f2b6a682f133852f6798a09c465da95921460cefb38474024989060200160405180910390a15b5050505050505050565b7f92a19c77d2ea87c7f81d50c74403cb2f401780f3ad919571121efe2bdb427eb17f00000000000000000000000000000000000000000000000000000000000000006001600160a01b03166371907f176040518163ffffffff1660e01b8152600401602060405180830381865afa158015610fa5573d6000803e3d6000fd5b505050506040513d601f19601f82011682018060405250810190610fc99190614e06565b6001600160a01b0316635ff57d2030833360006040518563ffffffff1660e01b8152600401610ffb9493929190614e98565b60006040518083038186803b15801561101357600080fd5b505afa158015611027573d6000803e3d6000fd5b50505050611033611ed7565b604051631e9c0acf60e21b81526001600160a01b037f00000000000000000000000000000000000000000000000000000000000000001690637a702b3c906110819086908690600401614f8e565b600060405180830381600087803b15801561109b57600080fd5b505af11580156110af573d6000803e3d6000fd5b50505050505050565b60008051602061548c8339815191527f00000000000000000000000000000000000000000000000000000000000000006001600160a01b03166371907f176040518163ffffffff1660e01b8152600401602060405180830381865afa158015611125573d6000803e3d6000fd5b505050506040513d601f19601f820116820180604052508101906111499190614e06565b6001600160a01b0316635ff57d2030833360016040518563ffffffff1660e01b815260040161117b9493929190614e98565b60006040518083038186803b15801561119357600080fd5b505afa1580156111a7573d6000803e3d6000fd5b50505050610986612596565b60fc546000906111d1908290600160901b900463ffffffff166125d3565b905090565b60006111eb8484846111e6611ad7565b612664565b90505b9392505050565b6000805160206154458339815191527fa82e22387fca439f316d78ca566f383218ab8ae1b3e830178c9c82cbd16749c07f5ec196419322369c6bac572d883f4d990ae5ec82f7d93cdf89b85dbb05b63c2760007f00000000000000000000000000000000000000000000000000000000000000006001600160a01b03166371907f176040518163ffffffff1660e01b8152600401602060405180830381865afa1580156112a6573d6000803e3d6000fd5b505050506040513d601f19601f820116820180604052508101906112ca9190614e06565b6040516359f7e5e960e11b81529091506001600160a01b0382169063b3efcbd29061130090309088903390600190600401614e98565b602060405180830381865afa15801561131d573d6000803e3d6000fd5b505050506040513d601f19601f820116820180604052508101906113419190614fab565b61142c577f00000000000000000000000000000000000000000000000000000000000000006001600160a01b03166371907f176040518163ffffffff1660e01b8152600401602060405180830381865afa1580156113a3573d6000803e3d6000fd5b505050506040513d601f19601f820116820180604052508101906113c79190614e06565b6001600160a01b0316632b1cff1f3085853360016040518663ffffffff1660e01b81526004016113fb959493929190614e23565b60006040518083038186803b15801561141357600080fd5b505afa158015611427573d6000803e3d6000fd5b505050505b60006114577fa82e22387fca439f316d78ca566f383218ab8ae1b3e830178c9c82cbd16749c06127ed565b15801561147857506114766000805160206154458339815191526127ed565b155b9050600087600981111561148e5761148e614fc8565b036114fe578015806114be575060fc546114be906114af9061ffff166128e4565b8767016345785d8a00006128fa565b6114da5760405162461bcd60e51b81526004016108e990614fde565b6114e386612981565b60fc805461ffff191661ffff92909216919091179055611a80565b600187600981111561151257611512614fc8565b0361158257801580611539575060fc54611539906114af9062010000900461ffff166128e4565b6115555760405162461bcd60e51b81526004016108e990614fde565b61155e86612981565b60fc805461ffff92909216620100000263ffff000019909216919091179055611a80565b600287600981111561159657611596614fc8565b0361160a578015806115be575060fc546115be906114af90600160201b900461ffff166128e4565b6115da5760405162461bcd60e51b81526004016108e990614fde565b6115e386612981565b60fc805461ffff92909216600160201b0265ffff0000000019909216919091179055611a80565b600387600981111561161e5761161e614fc8565b0361169457801580611646575060fc54611646906114af90600160301b900461ffff166128e4565b6116625760405162461bcd60e51b81526004016108e990614fde565b61166b86612981565b60fc805461ffff92909216600160301b0267ffff00000000000019909216919091179055611a80565b60048760098111156116a8576116a8614fc8565b03611720578015806116d0575060fc546116d0906114af90600160401b900461ffff166128e4565b6116ec5760405162461bcd60e51b81526004016108e990614fde565b6116f586612981565b60fc805461ffff92909216600160401b0269ffff000000000000000019909216919091179055611a80565b600587600981111561173457611734614fc8565b036117a75780158061175c575060fc5461175c906114af90600160501b900461ffff166128e4565b6117785760405162461bcd60e51b81526004016108e990614fde565b61178186612981565b60fc805461ffff92909216600160501b0261ffff60501b19909216919091179055611a80565b60068760098111156117bb576117bb614fc8565b0361182e578015806117e3575060fc546117e3906114af90600160601b900461ffff166128e4565b6117ff5760405162461bcd60e51b81526004016108e990614fde565b61180886612981565b60fc805461ffff92909216600160601b0261ffff60601b19909216919091179055611a80565b600787600981111561184257611842614fc8565b036118ab5780158061185a575061185a6114af611ab8565b6118765760405162461bcd60e51b81526004016108e990614fde565b61188160028761299b565b60fc805463ffffffff92909216600160701b0263ffffffff60701b19909216919091179055611a80565b60088760098111156118bf576118bf614fc8565b03611a1e5760fd548610156119305760405162461bcd60e51b815260206004820152603160248201527f43616e277420736574206578706f737572654c696d6974206c657373207468616044820152706e20616374697665206578706f7375726560781b60648201526084016108e9565b80158061194357506119436114af6111b3565b61195f5760405162461bcd60e51b81526004016108e990614fde565b6119676111b3565b8611158061198757506119876000805160206154458339815191526127ed565b6119e95760405162461bcd60e51b815260206004820152602d60248201527f547765616b2065786365656465643a20496e637265617365207265717569726560448201526c73204c4556454c315f524f4c4560981b60648201526084016108e9565b6119f460008761299b565b60fc805463ffffffff92909216600160901b0263ffffffff60901b19909216919091179055611a80565b6009876009811115611a3257611a32614fc8565b03611a80578015611a555760405162461bcd60e51b81526004016108e990614fde565b611a5e86612a2e565b60fc805461ffff92909216600160b01b0261ffff60b01b199092169190911790555b6110af876009811115611a9557611a95614fc8565b611aa0906008615006565b602d811115611ab157611ab1614fc8565b8783612a95565b60fc546000906111d190600290600160701b900463ffffffff166125d3565b611b176040518060e00160405280600081526020016000815260200160008152602001600081526020016000815260200160008152602001600081525090565b6111d160fc612af6565b7f0df0a8869cf58168a14cd7ac426ff1b8c6ff5d5c800c6f44803f3431dcb3bad17f00000000000000000000000000000000000000000000000000000000000000006001600160a01b03166371907f176040518163ffffffff1660e01b8152600401602060405180830381865afa158015611ba0573d6000803e3d6000fd5b505050506040513d601f19601f82011682018060405250810190611bc49190614e06565b6001600160a01b0316635ff57d2030833360006040518563ffffffff1660e01b8152600401611bf69493929190614e98565b60006040518083038186803b158015611c0e57600080fd5b505afa158015611c22573d6000803e3d6000fd5b5050506001600160a01b0383169050611c935760405162461bcd60e51b815260206004820152602d60248201527f5269736b4d6f64756c653a2077616c6c65742063616e6e6f742062652074686560448201526c207a65726f206164647265737360981b60648201526084016108e9565b60fe80546001600160a01b0319166001600160a01b038416908117909155610ac4906012906000612a95565b60007f00000000000000000000000000000000000000000000000000000000000000006001600160a01b031663e5a6b10f6040518163ffffffff1660e01b8152600401602060405180830381865afa158015611d1f573d6000803e3d6000fd5b505050506040513d601f19601f820116820180604052508101906111d19190614e06565b7f92a19c77d2ea87c7f81d50c74403cb2f401780f3ad919571121efe2bdb427eb17f00000000000000000000000000000000000000000000000000000000000000006001600160a01b03166371907f176040518163ffffffff1660e01b8152600401602060405180830381865afa158015611dc2573d6000803e3d6000fd5b505050506040513d601f19601f82011682018060405250810190611de69190614e06565b6001600160a01b0316635ff57d2030833360006040518563ffffffff1660e01b8152600401611e189493929190614e98565b60006040518083038186803b158015611e3057600080fd5b505afa158015611e44573d6000803e3d6000fd5b50505050611e50611ed7565b60405160016259ff1d60e01b031981526001600160a01b037f0000000000000000000000000000000000000000000000000000000000000000169063ffa600e3906110819086908690600401615019565b60006001600160e01b031982166301ffc9a760e01b14806107dd57506001600160e01b03198216634d15eb0360e01b1492915050565b60975460ff1615611f1d5760405162461bcd60e51b815260206004820152601060248201526f14185d5cd8589b194e881c185d5cd95960821b60448201526064016108e9565b565b611f2761480e565b7f0000000000000000000000000000000000000000000000000000000000000000612051577f00000000000000000000000000000000000000000000000000000000000000006001600160a01b03166371907f176040518163ffffffff1660e01b8152600401602060405180830381865afa158015611faa573d6000803e3d6000fd5b505050506040513d601f19601f82011682018060405250810190611fce9190614e06565b6001600160a01b0316635ff57d20307f90fe2ba5da14f172ed5a0a0fec391dbf8f191c9a2f3557d79ede5d6b1c1c9ffb3360006040518563ffffffff1660e01b81526004016120209493929190614e98565b60006040518083038186803b15801561203857600080fd5b505afa15801561204c573d6000803e3d6000fd5b505050505b428464ffffffffff1610156120985760405162461bcd60e51b815260206004820152600d60248201526c145d5bdd1948195e1c1a5c9959609a1b60448201526064016108e9565b6040516001600160601b03193060601b166020820152603481018c9052605481018b9052607481018a90526001600160d81b031960d88a811b82166094840152609983018a905286901b1660b98201526000906121069060be01604051602081830303815290604052612c0d565b90506000612115828989612c48565b90507f00000000000000000000000000000000000000000000000000000000000000006001600160a01b03166371907f176040518163ffffffff1660e01b8152600401602060405180830381865afa158015612175573d6000803e3d6000fd5b505050506040513d601f19601f820116820180604052508101906121999190614e06565b6001600160a01b0316635ff57d20307fc6823861ee2bb2198ce6b1fd6faf4c8f44f745bc804aca4a762f67e0d507fd8a8460006040518563ffffffff1660e01b81526004016121eb9493929190614e98565b60006040518083038186803b15801561220357600080fd5b505afa158015612217573d6000803e3d6000fd5b506000925061222e9150600160601b90508b61504e565b905061223f8e8e8e8e8a8a87612c6e565b80516040518c8152919550907f3e4224c37ba48f27f735eecea98c4d71568b9825d0006b6e128aa73695e35f709060200160405180910390a25050509a9950505050505050505050565b60008051602061548c8339815191526000805160206154458339815191527f00000000000000000000000000000000000000000000000000000000000000006001600160a01b03166371907f176040518163ffffffff1660e01b8152600401602060405180830381865afa158015612305573d6000803e3d6000fd5b505050506040513d601f19601f820116820180604052508101906123299190614e06565b6001600160a01b0316632b1cff1f3084843360016040518663ffffffff1660e01b815260040161235d959493929190614e23565b60006040518083038186803b15801561237557600080fd5b505afa158015612389573d6000803e3d6000fd5b5050505061239683612c99565b505050565b7f4910fdfa16fed3260ed0e7147f7cc6da11a60208b5b9406d12a635614ffd91435460ff16156123ce5761239683612d9c565b826001600160a01b03166352d1902d6040518163ffffffff1660e01b8152600401602060405180830381865afa925050508015612428575060408051601f3d908101601f1916820190925261242591810190614e56565b60015b61248b5760405162461bcd60e51b815260206004820152602e60248201527f45524331393637557067726164653a206e657720696d706c656d656e7461746960448201526d6f6e206973206e6f74205555505360901b60648201526084016108e9565b60008051602061542583398151915281146124fa5760405162461bcd60e51b815260206004820152602960248201527f45524331393637557067726164653a20756e737570706f727465642070726f786044820152681a58589b195555525160ba1b60648201526084016108e9565b50612396838383612e38565b61250e612e63565b6097805460ff191690557f5db9ee0a495bf2e6ff9c91a7834c1ba4fdd244a5e8aa4e537bd38aeae4b073aa335b6040516001600160a01b03909116815260200160405180910390a1565b600054610100900460ff1661257f5760405162461bcd60e51b81526004016108e990615062565b612587612eac565b6110af87878787878787612ee3565b61259e611ed7565b6097805460ff191660011790557f62e78cea01bee320cd4e420270b5ea74000d11b0c9f74754ebdbfc544b05a25861253b3390565b6000826125de611cbf565b6001600160a01b031663313ce5676040518163ffffffff1660e01b8152600401602060405180830381865afa15801561261b573d6000803e3d6000fd5b505050506040513d601f19601f8201168201806040525081019061263f91906150ad565b61264991906150d0565b61265490600a6151cd565b6111ee9063ffffffff84166151dc565b6000806126886126818460000151876130f190919063ffffffff16565b87906130f1565b905060006126a38460200151886130f190919063ffffffff16565b9050818111156126be576126b78282614e85565b90506126c2565b5060005b60006126db8560400151896130f190919063ffffffff16565b90506126e78284615006565b811115612709576126f88284615006565b6127029082614e85565b905061270d565b5060005b600061274e6127476a1a1601fc4ea7109e0000006127324264ffffffffff8c16614e85565b8960a0015161274191906151dc565b90613129565b84906130f1565b905060006127846127476a1a1601fc4ea7109e0000006127754264ffffffffff8d16614e85565b8a60c0015161274191906151dc565b905060006127a28860800151838561279c9190615006565b906130f1565b60608901516127b29088906130f1565b6127bc9190615006565b90506127c88284615006565b6127d28288615006565b6127dc9190615006565b96505050505050505b949350505050565b60007f00000000000000000000000000000000000000000000000000000000000000006001600160a01b03166371907f176040518163ffffffff1660e01b8152600401602060405180830381865afa15801561284d573d6000803e3d6000fd5b505050506040513d601f19601f820116820180604052508101906128719190614e06565b6001600160a01b031663b3efcbd230843360016040518563ffffffff1660e01b81526004016128a39493929190614e98565b602060405180830381865afa1580156128c0573d6000803e3d6000fd5b505050506040513d601f19601f820116820180604052508101906107dd9190614fab565b60006107dd655af3107a400061ffff84166151dc565b600082840361290b575060016111ee565b836000036129255750670de0b6b3a76400008110156111ee565b82600003612935575060006111ee565b828410156129645781670de0b6b3a76400006129518587613129565b61295b9190614e85565b111590506111ee565b8161296f8486613129565b61295b90670de0b6b3a7640000614e85565b60006107dd612996655af3107a4000846151fb565b612a2e565b60006111ee836129a9611cbf565b6001600160a01b031663313ce5676040518163ffffffff1660e01b8152600401602060405180830381865afa1580156129e6573d6000803e3d6000fd5b505050506040513d601f19601f82011682018060405250810190612a0a91906150ad565b612a1491906150d0565b612a1f90600a6151cd565b612a2990846151fb565b613160565b600061ffff821115612a915760405162461bcd60e51b815260206004820152602660248201527f53616665436173743a2076616c756520646f65736e27742066697420696e203160448201526536206269747360d01b60648201526084016108e9565b5090565b612a9d6131c5565b8015612aac57612aac836132c2565b82602d811115612abe57612abe614fc8565b6040518381527f7bc647fe5043209e2019aa3503b79c1b0dd83eb61c56013d373a7584ff6bfb139060200160405180910390a2505050565b612b366040518060e00160405280600081526020016000815260200160008152602001600081526020016000815260200160008152602001600081525090565b6040805160e0810190915282548190612b529061ffff166128e4565b81528354602090910190612b6f9062010000900461ffff166128e4565b81528354602090910190612b8d90600160201b900461ffff166128e4565b81528354602090910190612bab90600160301b900461ffff166128e4565b81528354602090910190612bc990600160401b900461ffff166128e4565b81528354602090910190612be790600160501b900461ffff166128e4565b81528354602090910190612c0590600160601b900461ffff166128e4565b905292915050565b6000612c198251613424565b82604051602001612c2b92919061520f565b604051602081830303815290604052805190602001209050919050565b6000806000612c588686866134b7565b91509150612c65816134f0565b50949350505050565b612c7661480e565b612c8d88888888888888612c88611ad7565b61363a565b98975050505050505050565b612ca281613c76565b60008190507f00000000000000000000000000000000000000000000000000000000000000006001600160a01b0316816001600160a01b03166373a952e86040518163ffffffff1660e01b8152600401602060405180830381865afa158015612d0f573d6000803e3d6000fd5b505050506040513d601f19601f82011682018060405250810190612d339190614e06565b6001600160a01b031614610ac45760405162461bcd60e51b815260206004820152602a60248201527f43616e27742075706772616465206368616e67696e6720746865205072656d696044820152691d5b5cd058d8dbdd5b9d60b21b60648201526084016108e9565b6001600160a01b0381163b612e095760405162461bcd60e51b815260206004820152602d60248201527f455243313936373a206e657720696d706c656d656e746174696f6e206973206e60448201526c1bdd08184818dbdb9d1c9858dd609a1b60648201526084016108e9565b60008051602061542583398151915280546001600160a01b0319166001600160a01b0392909216919091179055565b612e4183613d67565b600082511180612e4e5750805b1561239657612e5d8383613da7565b50505050565b60975460ff16611f1d5760405162461bcd60e51b815260206004820152601460248201527314185d5cd8589b194e881b9bdd081c185d5cd95960621b60448201526064016108e9565b600054610100900460ff16612ed35760405162461bcd60e51b81526004016108e990615062565b612edb613dcc565b611f1d613df3565b600054610100900460ff16612f0a5760405162461bcd60e51b81526004016108e990615062565b60fb612f1688826152b8565b506040805161014081018252612710815260006020820152908101612f3a88612981565b61ffff168152602001612f4c87612981565b61ffff1681526000602082018190526040820152606001612f6c86612981565b61ffff168152602001612f8060028661299b565b63ffffffff168152602001612f9660008561299b565b63ffffffff9081168252612238602092830152825160fc80549385015160408601516060870151608088015160a089015160c08a015160e08b01516101008c0151610120909c015161ffff998a1663ffffffff19909c169b909b1762010000978a16979097029690961767ffffffff000000001916600160201b9589169590950267ffff000000000000191694909417600160301b93881693909302929092176bffffffff00000000000000001916600160401b9187169190910261ffff60501b191617600160501b918616919091021765ffffffffffff60601b1916600160601b9185169190910263ffffffff60701b191617600160701b918516919091021765ffffffffffff60901b1916600160901b959093169490940261ffff60b01b191691909117600160b01b9190921602179055600060fd5560fe80546001600160a01b0319166001600160a01b0383161790556110af6131c5565b600081156706f05b59d3b20000198390048411151761310f57600080fd5b50670de0b6b3a764000091026706f05b59d3b20000010490565b60008115670de0b6b3a76400006002840419048411171561314957600080fd5b50670de0b6b3a76400009190910260028204010490565b600063ffffffff821115612a915760405162461bcd60e51b815260206004820152602660248201527f53616665436173743a2076616c756520646f65736e27742066697420696e203360448201526532206269747360d01b60648201526084016108e9565b60fd546131d06111b3565b101561324f5760405162461bcd60e51b815260206004820152604260248201527f56616c69646174696f6e3a206578706f737572654c696d69742063616e27742060448201527f6265206c657373207468616e2061637475616c206163746976654578706f7375606482015261726560f01b608482015260a4016108e9565b60fe546001600160a01b03166132b85760405162461bcd60e51b815260206004820152602860248201527f56616c69646174696f6e3a2057616c6c65742063616e2774206265207a65726f604482015267206164647265737360c01b60648201526084016108e9565b611f1d60fc613e22565b6000600182602d8111156132d8576132d8614fc8565b6132e291906150d0565b60c954600160ff929092169190911b915062015180906133099064ffffffffff1642615378565b64ffffffffff1611156133465760c9805466ffffffffffffff8316600160281b026001600160601b031990911664ffffffffff4216171790555050565b60c954600160281b9004811666ffffffffffffff166000036133a65760c9805464ffffffffff421664ffffffffff1966ffffffffffffff808616600160281b808604929092161702166001600160601b0319909216919091171790555050565b60405162461bcd60e51b815260206004820152604760248201527f596f7520616c726561647920747765616b6564207468697320706172616d657460448201527f657220726563656e746c792e2057616974206265666f726520747765616b696e606482015266339030b3b0b4b760c91b608482015260a4016108e9565b606060006134318361421c565b600101905060008167ffffffffffffffff81111561345157613451614aa8565b6040519080825280601f01601f19166020018201604052801561347b576020820181803683370190505b5090508181016020015b600019016f181899199a1a9b1b9c1cb0b131b232b360811b600a86061a8153600a850494508461348557509392505050565b6000806001600160ff1b038316816134d460ff86901c601b615006565b90506134e2878288856142f4565b935093505050935093915050565b600081600481111561350457613504614fc8565b0361350c5750565b600181600481111561352057613520614fc8565b0361356d5760405162461bcd60e51b815260206004820152601860248201527f45434453413a20696e76616c6964207369676e6174757265000000000000000060448201526064016108e9565b600281600481111561358157613581614fc8565b036135ce5760405162461bcd60e51b815260206004820152601f60248201527f45434453413a20696e76616c6964207369676e6174757265206c656e6774680060448201526064016108e9565b60038160048111156135e2576135e2614fc8565b036109865760405162461bcd60e51b815260206004820152602260248201527f45434453413a20696e76616c6964207369676e6174757265202773272076616c604482015261756560f01b60648201526084016108e9565b61364261480e565b600019880361365a5761365789888885612664565b97505b8888106136a95760405162461bcd60e51b815260206004820181905260248201527f5072656d69756d206d757374206265206c657373207468616e207061796f757460448201526064016108e9565b4264ffffffffff808216908816116137035760405162461bcd60e51b815260206004820181905260248201527f45787069726174696f6e206d75737420626520696e207468652066757475726560448201526064016108e9565b60fc54600160b01b900461ffff16610e1061371e838a615378565b613728919061539d565b64ffffffffff161061377c5760405162461bcd60e51b815260206004820152601b60248201527f506f6c6963792065786365656473206d6178206475726174696f6e000000000060448201526064016108e9565b6001600160a01b0385166137d25760405162461bcd60e51b815260206004820152601e60248201527f437573746f6d65722063616e2774206265207a65726f2061646472657373000060448201526064016108e9565b887f00000000000000000000000000000000000000000000000000000000000000006001600160a01b031663e5a6b10f6040518163ffffffff1660e01b8152600401602060405180830381865afa158015613831573d6000803e3d6000fd5b505050506040513d601f19601f820116820180604052508101906138559190614e06565b604051636eb1769f60e11b81526001600160a01b0389811660048301527f000000000000000000000000000000000000000000000000000000000000000081166024830152919091169063dd62ed3e90604401602060405180830381865afa1580156138c5573d6000803e3d6000fd5b505050506040513d601f19601f820116820180604052508101906138e99190614e56565b101561394d5760405162461bcd60e51b815260206004820152602d60248201527f596f75206d75737420616c6c6f7720454e5355524f20746f207472616e73666560448201526c7220746865207072656d69756d60981b60648201526084016108e9565b6001600160a01b038616331480613a645750887f00000000000000000000000000000000000000000000000000000000000000006001600160a01b031663e5a6b10f6040518163ffffffff1660e01b8152600401602060405180830381865afa1580156139be573d6000803e3d6000fd5b505050506040513d601f19601f820116820180604052508101906139e29190614e06565b6001600160a01b031663dd62ed3e88336040516001600160e01b031960e085901b1681526001600160a01b03928316600482015291166024820152604401602060405180830381865afa158015613a3d573d6000803e3d6000fd5b505050506040513d601f19601f82011682018060405250810190613a619190614e56565b10155b613ac85760405162461bcd60e51b815260206004820152602f60248201527f5061796572206d75737420616c6c6f772063616c6c657220746f207472616e7360448201526e66657220746865207072656d69756d60881b60648201526084016108e9565b613ad0611ab8565b8a1115613b3a5760405162461bcd60e51b815260206004820152603260248201527f5269736b4d6f64756c653a205061796f7574206973206d6f7265207468616e206044820152716d6178696d756d2070657220706f6c69637960701b60648201526084016108e9565b6000613b4a30858c8e8d8d6143b8565b9050806020015160fd6000828254613b629190615006565b90915550613b7090506111b3565b60fd541115613bcd5760405162461bcd60e51b815260206004820152602360248201527f5269736b4d6f64756c653a204578706f73757265206c696d697420657863656560448201526219195960ea1b60648201526084016108e9565b604051636769a76f60e01b81526000906001600160a01b037f00000000000000000000000000000000000000000000000000000000000000001690636769a76f90613c229085908c908c908c906004016153c1565b6020604051808303816000875af1158015613c41573d6000803e3d6000fd5b505050506040513d601f19601f82011682018060405250810190613c659190614e56565b8252509a9950505050505050505050565b7f00000000000000000000000000000000000000000000000000000000000000006001600160a01b0316816001600160a01b0316634d15eb036040518163ffffffff1660e01b8152600401602060405180830381865afa158015613cde573d6000803e3d6000fd5b505050506040513d601f19601f82011682018060405250810190613d029190614e06565b6001600160a01b0316146109865760405162461bcd60e51b815260206004820152602660248201527f43616e27742075706772616465206368616e67696e672074686520506f6c696360448201526579506f6f6c2160d01b60648201526084016108e9565b613d7081612d9c565b6040516001600160a01b038216907fbc7cd75a20ee27fd9adebab32041f755214dbc6bffa90cc0225b39da2e5c2d3b90600090a250565b60606111ee8383604051806060016040528060278152602001615465602791396146c5565b600054610100900460ff16611f1d5760405162461bcd60e51b81526004016108e990615062565b600054610100900460ff16613e1a5760405162461bcd60e51b81526004016108e990615062565b611f1d61473d565b80546127106201000090910461ffff161115613e8c5760405162461bcd60e51b815260206004820152602360248201527f56616c69646174696f6e3a206a72436f6c6c526174696f206d757374206265206044820152623c3d3160e81b60648201526084016108e9565b8054612710600160201b90910461ffff1611801590613eb657508054600160201b900461ffff1615155b613f0c5760405162461bcd60e51b815260206004820152602160248201527f56616c69646174696f6e3a20636f6c6c526174696f206d757374206265203c3d6044820152603160f81b60648201526084016108e9565b805461ffff6201000082048116600160201b909204161015613f7c5760405162461bcd60e51b8152602060048201526024808201527f56616c69646174696f6e3a20636f6c6c526174696f203e3d206a72436f6c6c526044820152636174696f60e01b60648201526084016108e9565b8054619c4061ffff90911611801590613f9e5750805461138861ffff90911610155b613fea5760405162461bcd60e51b815260206004820181905260248201527f56616c69646174696f6e3a206d6f63206d757374206265205b302e352c20345d60448201526064016108e9565b8054612710600160301b90910461ffff1611156140555760405162461bcd60e51b8152602060048201526024808201527f56616c69646174696f6e3a20656e7375726f5070466565206d757374206265206044820152633c3d203160e01b60648201526084016108e9565b8054612710600160401b90910461ffff1611156140c25760405162461bcd60e51b815260206004820152602560248201527f56616c69646174696f6e3a20656e7375726f436f63466565206d757374206265604482015264203c3d203160d81b60648201526084016108e9565b8054612710600160601b90910461ffff16111561412f5760405162461bcd60e51b815260206004820152602560248201527f56616c69646174696f6e3a207372526f63206d757374206265203c3d20312028604482015264313030252960d81b60648201526084016108e9565b8054612710600160501b90910461ffff16111561419c5760405162461bcd60e51b815260206004820152602560248201527f56616c69646174696f6e3a206a72526f63206d757374206265203c3d20312028604482015264313030252960d81b60648201526084016108e9565b8054600160901b900463ffffffff16158015906141c657508054600160701b900463ffffffff1615155b6109865760405162461bcd60e51b815260206004820152602160248201527f4578706f7375726520616e64204d61785061796f7574206d757374206265203e6044820152600360fc1b60648201526084016108e9565b60008072184f03e93ff9f4daa797ed6e38ed64bf6a1f0160401b831061425b5772184f03e93ff9f4daa797ed6e38ed64bf6a1f0160401b830492506040015b6d04ee2d6d415b85acef81000000008310614287576d04ee2d6d415b85acef8100000000830492506020015b662386f26fc1000083106142a557662386f26fc10000830492506010015b6305f5e10083106142bd576305f5e100830492506008015b61271083106142d157612710830492506004015b606483106142e3576064830492506002015b600a83106107dd5760010192915050565b6000807f7fffffffffffffffffffffffffffffff5d576e7357a4501ddfe92f46681b20a083111561432b57506000905060036143af565b6040805160008082526020820180845289905260ff881692820192909252606081018690526080810185905260019060a0016020604051602081039080840390855afa15801561437f573d6000803e3d6000fd5b5050604051601f1901519150506001600160a01b0381166143a8576000600192509250506143af565b9150600090505b94509492505050565b6143c061480e565b8385111561441b5760405162461bcd60e51b815260206004820152602260248201527f5072656d69756d2063616e6e6f74206265206d6f7265207468616e207061796f6044820152611d5d60f21b60648201526084016108e9565b61442361480e565b6001600160a01b038816610160820152604081018690526020810185905260a0810184905264ffffffffff42811661018083015283166101a08201528651614477906144709086906130f1565b86906130f1565b60c0820152602087015161448c9086906130f1565b6060820181905260c082015110156144bc578060c00151816060018181516144b49190614e85565b9052506144c4565b600060608201525b60408701516144d49086906130f1565b6080820152606081015160c08201516144ed9190615006565b816080015111156145255780606001518160c0015161450c9190615006565b8160800181815161451d9190614e85565b90525061452d565b600060808201525b6145766301e13380826101800151836101a0015161454b9190615378565b64ffffffffff168960a0015161456191906151dc565b61456b91906151fb565b6060830151906130f1565b6101208201526101808101516101a08201516145c7916301e133809161459c9190615378565b64ffffffffff168960c001516145b291906151dc565b6145bc91906151fb565b6080830151906130f1565b61014082018190526101208201516000916145e191615006565b90506145fa8860800151826130f190919063ffffffff16565b606089015160c084015161460d916130f1565b6146179190615006565b60e0830181905260c0830151889183916146319190615006565b61463b9190615006565b11156146895760405162461bcd60e51b815260206004820152601960248201527f5072656d69756d206c657373207468616e206d696e696d756d0000000000000060448201526064016108e9565b8160e00151818360c001518961469f9190614e85565b6146a99190614e85565b6146b39190614e85565b61010083015250979650505050505050565b6060600080856001600160a01b0316856040516146e29190615408565b600060405180830381855af49150503d806000811461471d576040519150601f19603f3d011682016040523d82523d6000602084013e614722565b606091505b509150915061473386838387614770565b9695505050505050565b600054610100900460ff166147645760405162461bcd60e51b81526004016108e990615062565b6097805460ff19169055565b606083156147df5782516000036147d8576001600160a01b0385163b6147d85760405162461bcd60e51b815260206004820152601d60248201527f416464726573733a2063616c6c20746f206e6f6e2d636f6e747261637400000060448201526064016108e9565b50816127e5565b6127e583838151156147f45781518083602001fd5b8060405162461bcd60e51b81526004016108e99190614991565b604051806101c00160405280600081526020016000815260200160008152602001600081526020016000815260200160008152602001600081526020016000815260200160008152602001600081526020016000815260200160006001600160a01b03168152602001600064ffffffffff168152602001600064ffffffffff1681525090565b6000602082840312156148a657600080fd5b81356001600160e01b0319811681146111ee57600080fd5b803564ffffffffff811681146148d357600080fd5b919050565b6001600160a01b038116811461098657600080fd5b60008060008060008060008060006101208a8c03121561490c57600080fd5b8935985060208a0135975060408a0135965061492a60608b016148be565b955060808a013561493a816148d8565b945060a08a0135935060c08a0135925060e08a0135915061495e6101008b016148be565b90509295985092959850929598565b60005b83811015614988578181015183820152602001614970565b50506000910152565b60208152600082518060208401526149b081604085016020870161496d565b601f01601f19169190910160400192915050565b6000602082840312156149d657600080fd5b81356111ee816148d8565b805182526020810151602083015260408101516040830152606081015160608301526080810151608083015260a081015160a083015260c081015160c083015260e081015160e083015261010080820151818401525061012080820151818401525061014080820151818401525061016080820151614a6a828501826001600160a01b03169052565b50506101808181015164ffffffffff81168483015250506101a08181015164ffffffffff811684830152612e5d565b6101c081016107dd82846149e1565b634e487b7160e01b600052604160045260246000fd5b600067ffffffffffffffff80841115614ad957614ad9614aa8565b604051601f8501601f19908116603f01168101908282118183101715614b0157614b01614aa8565b81604052809350858152868686011115614b1a57600080fd5b858560208301376000602087830101525050509392505050565b60008060408385031215614b4757600080fd5b8235614b52816148d8565b9150602083013567ffffffffffffffff811115614b6e57600080fd5b8301601f81018513614b7f57600080fd5b614b8e85823560208401614abe565b9150509250929050565b600060208284031215614baa57600080fd5b5035919050565b600080600080600080600060e0888a031215614bcc57600080fd5b873567ffffffffffffffff811115614be357600080fd5b8801601f81018a13614bf457600080fd5b614c038a823560208401614abe565b9750506020880135955060408801359450606088013593506080880135925060a0880135915060c0880135614c37816148d8565b8091505092959891949750929550565b60006101c08284031215614c5a57600080fd5b50919050565b6000806101e08385031215614c7457600080fd5b614c7e8484614c47565b946101c0939093013593505050565b600080600060608486031215614ca257600080fd5b8335925060208401359150614cb9604085016148be565b90509250925092565b60008060408385031215614cd557600080fd5b8235600a8110614ce457600080fd5b946020939093013593505050565b801515811461098657600080fd5b6000806101e08385031215614d1457600080fd5b614d1e8484614c47565b91506101c0830135614d2f81614cf2565b809150509250929050565b600181811c90821680614d4e57607f821691505b602082108103614c5a57634e487b7160e01b600052602260045260246000fd5b6020808252602c908201527f46756e6374696f6e206d7573742062652063616c6c6564207468726f7567682060408201526b19195b1959d85d1958d85b1b60a21b606082015260800190565b6020808252602c908201527f46756e6374696f6e206d7573742062652063616c6c6564207468726f7567682060408201526b6163746976652070726f787960a01b606082015260800190565b600060208284031215614e1857600080fd5b81516111ee816148d8565b6001600160a01b039586168152602081019490945260408401929092529092166060820152901515608082015260a00190565b600060208284031215614e6857600080fd5b5051919050565b634e487b7160e01b600052601160045260246000fd5b818103818111156107dd576107dd614e6f565b6001600160a01b039485168152602081019390935292166040820152901515606082015260800190565b80356148d3816148d8565b803582526020810135602083015260408101356040830152606081013560608301526080810135608083015260a081013560a083015260c081013560c083015260e081013560e0830152610100808201358184015250610120808201358184015250610140808201358184015250610160614f49818301614ec2565b6001600160a01b031690830152610180614f648282016148be565b64ffffffffff16908301526101a0614f7d8282016148be565b64ffffffffff811684830152612e5d565b6101e08101614f9d8285614ecd565b826101c08301529392505050565b600060208284031215614fbd57600080fd5b81516111ee81614cf2565b634e487b7160e01b600052602160045260246000fd5b6020808252600e908201526d151dd9585ac8195e18d95959195960921b604082015260600190565b808201808211156107dd576107dd614e6f565b6101e081016150288285614ecd565b8215156101c08301529392505050565b634e487b7160e01b600052601260045260246000fd5b60008261505d5761505d615038565b500690565b6020808252602b908201527f496e697469616c697a61626c653a20636f6e7472616374206973206e6f74206960408201526a6e697469616c697a696e6760a81b606082015260800190565b6000602082840312156150bf57600080fd5b815160ff811681146111ee57600080fd5b60ff82811682821603908111156107dd576107dd614e6f565b600181815b8085111561512457816000190482111561510a5761510a614e6f565b8085161561511757918102915b93841c93908002906150ee565b509250929050565b60008261513b575060016107dd565b81615148575060006107dd565b816001811461515e576002811461516857615184565b60019150506107dd565b60ff84111561517957615179614e6f565b50506001821b6107dd565b5060208310610133831016604e8410600b84101617156151a7575081810a6107dd565b6151b183836150e9565b80600019048211156151c5576151c5614e6f565b029392505050565b60006111ee60ff84168361512c565b60008160001904831182151516156151f6576151f6614e6f565b500290565b60008261520a5761520a615038565b500490565b7f19457468657265756d205369676e6564204d6573736167653a0a00000000000081526000835161524781601a85016020880161496d565b83519083019061525e81601a84016020880161496d565b01601a01949350505050565b601f82111561239657600081815260208120601f850160051c810160208610156152915750805b601f850160051c820191505b818110156152b05782815560010161529d565b505050505050565b815167ffffffffffffffff8111156152d2576152d2614aa8565b6152e6816152e08454614d3a565b8461526a565b602080601f83116001811461531b57600084156153035750858301515b600019600386901b1c1916600185901b1785556152b0565b600085815260208120601f198616915b8281101561534a5788860151825594840194600190910190840161532b565b50858210156153685787850151600019600388901b60f8161c191681555b5050505050600190811b01905550565b64ffffffffff82811682821603908082111561539657615396614e6f565b5092915050565b600064ffffffffff808416806153b5576153b5615038565b92169190910492915050565b61022081016153d082876149e1565b6001600160a01b039485166101c0830152929093166101e08401526bffffffffffffffffffffffff1661020090920191909152919050565b6000825161541a81846020870161496d565b919091019291505056fe360894a13ba1a3210667c828492db98dca3e2076cc3735a920a3ca505d382bbcbf372ca3ebecfe59ac256f17697941bbe63302aced610e8b0e3646f743c7beb2416464726573733a206c6f772d6c6576656c2064656c65676174652063616c6c206661696c656455435dd261a4b9b3364963f7738a7a662ad9c84396d64be3365284bb7f0a5041a2646970667358221220a4c2954d488d796968c91fd11d3db3400b8768a958e3d424128bba72939481b564736f6c63430008100033",
  "linkReferences": {},
  "deployedLinkReferences": {}
}